:10000000000200206D0F0000090F0000C50E000067
:10001000190F0000290F0000390F00000000000038
:10002000000000000000000000000000A90E000019
:10003000490F0000000000005D0E0000590F000095
:100040009FA9000029B50000C5AF0000B91200004B
:10005000D51200009FA900009FA900009FA90000E1
:100060009FA90000ADAD0000B3AD00009FA9000046
:100070009FA900009FA900009FA900009FA9000060
:100080009FA90000C9AA00009FA900009FA9000025
:100090009FA900009FA900009FA900009FA9000040
:1000A0009FA900009FA90000B9AD0000BFAD0000EE
:1000B0009FA900009FA900000000000000000000B0
:1000C0009FA900009FA900009FA90000F112000055
:1000D0009FA900009FA900009FA900009FA9000000
:1000E0009FA900009FA900009FA900000000000038
:1000F000000000009FA90000000000000D13000098
:1001000070B50D4681890446164619B14268074804
:100110000FF054FD294632462046442301F07AFD73
:1001200020460021BDE870400AF0DEB8F407010067
:1001300000B50648A1B00EF007FB054801F052FDDE
:100140008022694600200BF03BFDF9E7FD07010026
:100150000002002070B5064E064CA41BA408002522
:10016000AC4200D170BD56F8253098470135F7E70D
:10017000402E0100642E010008B503212A200AF058
:1001800011FC03212F200AF00DFC054B4FF4806277
:10019000C3F80C254FF40042C3F80C2508BD00BF7E
:1001A000000300502DE9F04704460E461746EFF3D2
:1001B000108872B60568C5B9DFF88890051DD4E9C6
:1001C0000331A2689A1A8A4222DC1D4A12883280C0
:1001D000581C6269E0600B4096E8030002EBC30321
:1001E00083E8030088F3108810E055F80C390360A9
:1001F000D1E900012B6983E8030028460C2100F0B7
:10020000DDFA687988F3108800F018FB012714E004
:100210008FB1D9F800A00921504600F0CFFA51461D
:10022000284600F08FFB88F3108800F06BFBEFF39B
:10023000108872B6C3E788F310883846BDE8F087A7
:10024000B40500202805002070B50B460446104672
:10025000EFF3108672B6D4E9022191421DD0501CF2
:10026000A060206961696568024001EBC20292E802
:10027000030083E803001DB986F31088012070BDD8
:1002800055F80C39636028460C2100F097FA68791C
:1002900086F3108800F0D2FAF0E778B1094A1568C1
:1002A00009212B61284600F089FA2946204600F0F2
:1002B00049FB86F3108800F025FBDFE786F3108802
:1002C000DDE700BF28050020F8B50446EFF31086EF
:1002D00072B6334F3B685A6A002A5BD0D3E90620D6
:1002E000904257D0501C9861186A024039B9596938
:1002F00029B9511C03D186F310881046F8BD002A95
:100300004CDB596A01EBC20103C984E803005D6953
:100310009DB9002A2CDA0421184600F04FFA86F322
:100320001088204B4FF080525A60BFF36F8F3B68AC
:100330001B79042B1ED100F033FC55F80C195961C0
:10034000002A0DDBD3E9072099695C6A511A8842BB
:10035000A9BF511C4FF0FF320240D96104EBC20427
:100360002B6993E8030084E803002B79062B03D163
:1003700086F310880122C0E7002328462B610C2158
:1003800000F01CFA687986F310880E28F2D800F085
:1003900055FAEFE74FF0FF320029A8D01C61B6E70D
:1003A0002805002000ED00E00346D0E9072010B545
:1003B0009C69141BA04201DA002010BD541C0240AD
:1003C000DC61F9D4586A00EBC20203C982E8030079
:1003D0001A896FEA42426FEA52421A81184600F0C7
:1003E00079FB0120E9E7000008B50E4B53F82130F6
:1003F000A3B11A79042A0BD103C81A6982E8030051
:1004000018460C2100F0DAF9074B0120186008BDEE
:1004100001461846BDE80840FFF7C6BF4FF0FF3061
:10042000F5E700BF30050020240500202DE9F0414C
:100430001D46294B53F82140284B1B880380064654
:1004400090462CB985F310884FF0FF30BDE8F0815D
:10045000234B1F682379042B34D001462046FFF735
:10046000A3FF78B185F310883B79062B02D01D4B92
:100470001B682BB11C4B4FF080525A60BFF36F8F3B
:100480000120E3E7B8F1000F02D185F31088DDE722
:100490003B793E61062B14BF05210621384600F04A
:1004A0008DF904F11400394600F04CFA23896FEA03
:1004B00043436FEA53432381204600F00BFB85F34F
:1004C0001088D7E7D0E90001236983E803000C21F5
:1004D000204600F073F9F2E730050020B405002053
:1004E000280500202405002000ED00E010B501469D
:1004F000EFF3108472B6054B1B880380044B186819
:10050000FFF752FF84F3108810BD00BFB405002030
:100510002805002021230380FFF766BFEFF3058342
:10052000DBB20BB1FFF7F6BF064B1B881BB299423B
:1005300001D1FFF7DBBFEFF3108372B60122FFF7A3
:1005400075BF00BFB405002010B4EFF3058212F0B0
:10055000FF0203D05DF8044BFFF7DCBF074B1B889D
:100560001BB2994203D15DF8044BFFF7BFBFEFF315
:10057000108372B65DF8044BFFF758BFB405002036
:10058000104B1B881BB29A422DE9F04106460C46DF
:10059000154601D100F004FBEFF3108872B60A4B48
:1005A0001F680621384600F009F996E803003C610F
:1005B000434684E80300012229462046BDE8F04175
:1005C000FFF734BFB40500202805002038B5EFF34D
:1005D000108572B60F4BB0F9002053F822400CB9C9
:1005E00000F0DEFA2379062B04D085F310884FF053
:1005F000FF3038BD03C9236983E8030020460C217E
:1006000000F0DCF8607985F3108800F017F901201C
:10061000EFE700BF300500200021FFF755BE0121A4
:10062000FFF752BE034B1B68586A10B1D3E906307E
:10063000C01A70472805002008B5064B4A1E1B68E3
:100640001140586201D000F0ABFAC3E906111A62FA
:1006500008BD00BF2805002070B504460846EFF32A
:10066000108672B6236833B94FF0FF33236086F3E8
:100670001088012070BD11B986F31088FAE70F4B7E
:100680001D680DB900F08CFA0321284600F096F899
:10069000236801330DD105F10C0323600023EB60C7
:1006A00086F31088064B4FF080525A60BFF36F8F6D
:1006B000DFE72946204600F045F9F1E7280500204C
:1006C00000ED00E038B50446EFF3108572B600681F
:1006D00010B985F3108838BD431C02D10023236074
:1006E000F7E750F80C3923600C2100F067F8236815
:1006F00013B94FF0FF33236085F31088034B4FF09D
:1007000080525A60BFF36F8FE5E700BF00ED00E055
:1007100008B503790B2B04BF0C230371836A1A6895
:10072000934208D0B0F9061003480FF047FA034986
:100730000D2000F06DFA08BD3108010060080100CD
:1007400070B5184C184E2368356843BB15B1284660
:10075000FFF7DEFF00F0B0FB2368002BFAD000208B
:10076000124B00221A602368114AB3FA83F352F83D
:1007700023301C680C3C0B23AC4223710DD008B114
:10078000FFF7C6FF0B4BA16AB4F906201A801F3190
:10079000094A3460022000F0D7FA204670BD28468E
:1007A000DEE700BFE004002028050020240500202B
:1007B000E4040020B4050020080006160A2930B51C
:1007C00003791AD90A2B14D842791A4B53F82250BC
:1007D00000F10C047DB12D68C56053F822502C60E7
:1007E00043F82240144C4FF00043D3402268134397
:1007F0002360017130BDC460F2E70A2BF9D9457955
:100800000C4A52F825303BB11C68A3420BBF0023B1
:10081000246842F825301C60437952F82320002ACE
:10082000E7D1054C4FF00042DA40236823EA020387
:10083000DEE700BFE4040020E00400200B4B1B684F
:100840005A791B790A2B01D990420DD2EFF3058317
:10085000DBB21BB1064B01221A607047054B4FF00B
:1008600080525A60BFF36F8F704700BF2805002089
:100870002405002000ED00E008B5EFF3108372B608
:10088000084B094A1B88094C1BB2002142F823106F
:10089000074A20681368013B1360FFF78FFF216050
:1008A00000F0C6FAB405002030050020280500201D
:1008B0002C050020431E9BB21F2B05D8034B53F879
:1008C000200010B1C06A704700207047300500203A
:1008D00010B5EFF30583DBB27BB9EFF3108472B68A
:1008E000064B02211868FFF769FF84F31088044B58
:1008F0004FF080525A60BFF36F8F10BD2805002063
:1009000000ED00E0EFF3108072B60B4B1B681A7914
:100910000A2A07D95A79094B53F8221011B10968EC
:1009200043F8221080F31088054B4FF080525A6034
:10093000BFF36F8F704700BF28050020E40400203C
:1009400000ED00E038B50B790A2B01D900F028F949
:100950004C7901F10C020346006818B110F8075CED
:10096000A542F8D9C8601A6038BD034601448142E7
:1009700002D90268824201D0C01A70470430F6E7FB
:100980000F2A2DE9F84F05468A469046994632D8F7
:1009900010F003031DBFC3F10402043B5B180B46B8
:1009A000A3F1340318BFAD1823F0030319F0080FA7
:1009B00005EB030416D02D60EFF3108B72B6284AB6
:1009C0000126114652F8047FC7B10136212EF9D114
:1009D0008BF310886FF08A063EE012600432A24268
:1009E000FBD3E9E72A46FAE702212046FFF7E6FEB5
:1009F0008BF3108830E06FF015062DE036B22A46F2
:100A000041F82640DDE90A01E68000F0C3F90C9BBD
:100A1000144AE3624FF0FF33C4E9083713682060DB
:100A2000013319F0010FC4E90377C4E90577A56222
:100A3000C4F830A084F805802771E7611360D3D132
:100A40000C212046FFF7BAFE19F0040FD0D18BF32A
:100A500010884046FFF7F2FE3046BDE8F88F00BF31
:100A6000300500202C05002008B5034B53F820006A
:100A700008B900F095F808BDF028010010B503464C
:100A8000EFF3108472B6028902EA010022EA010241
:100A90001A8184F3108810BD0C4A034610B5106803
:100AA000EFF3108472B6028913420CD1036107215F
:100AB000FFF784FE84F31088054B4FF080525A6094
:100AC000BFF36F8F10BD84F31088FBE7280500206B
:100AD00000ED00E010B50379048A072B03D0082B42
:100AE0000CD0002408E003891C4005D00C21FFF73E
:100AF00065FE054B01221A60204610BD03899C4308
:100B0000EFD10124F2E700BF2405002038B5054BE2
:100B10001D680446FFF7C0FF21462846BDE838405F
:100B2000FFF7ACBF2805002010B5EFF3108472B6B4
:100B3000038902791943072A038A018104D0082A0C
:100B400013D084F310880FE01942FAD00C21FFF77C
:100B500035FE074B01221A6084F31088054B4FF0D5
:100B600080525A60BFF36F8F10BD8B43E9D1EDE720
:100B70002405002000ED00E008B5EFF30583DBB2AB
:100B800043B9EFF310832BB904480DF0DDFDFFF7F7
:100B90009FFEFCE70149032000F03AF8D908010064
:100BA00008B5714602480FF009F8FFF7E5FF00BFEE
:100BB000EB08010008B5FFF7CDFA03480DF0C4FDBE
:100BC000FFF7B6FA002008BDF40801001FB5EFF3E7
:100BD000108372B6074B029300230193064B0093D8
:100BE000072204234FF4C0610448FFF7C9FE00F058
:100BF0001FF900BF1D090100B50B0000B60500205C
:100C000008B50AF0B1FDBDE808400CF075BF7047AB
:100C100008B50D4B1A680C467AB901221A60FFF725
:100C2000F6FF214609480EF0C9FF0AF0B3FD0A207D
:100C30000EF072F806480DF087FDEFF3108372B6E0
:100C400000F092F809F0F8FEB80B0020220901002C
:100C50003E09010070B50D4600210446FFF7FCFC7B
:100C60000D4E70B9BFF35B8FE288BFF35B8F3388A3
:100C700012B21BB29A4204D06DB901212046FFF78F
:100C8000EBFC3388BFF35B8FE380BFF35B8FA388FC
:100C90000133A380012070BDB40500200021FFF7BF
:100CA000D9BF000008B50F4BBFF35B8FC188BFF3FE
:100CB0005B8F1B8809B21BB2994201D0FFF770FF0E
:100CC0008388002BFAD0013B9BB2838043B9BFF3EA
:100CD0005B8FC380BFF35B8FBDE80840FFF7F2BCBA
:100CE00008BD00BFB40500200C4B0D4A10B54021D3
:100CF0009A600C4CE02283F82220D9770022A018B9
:100D00000132302A80F80013F9D11A6942F010023A
:100D10001A615A6942F400725A6110BD00ED00E098
:100D20000000000000E100E0064BD3F8942042F000
:100D30000502C3F894205A6A42F480325A620020B5
:100D4000704700BF00ED00E0064B21F01F0142F0AC
:100D50000102C3F89800C3F89C100020C3F8A0203B
:100D6000704700BF00ED00E008B5EFF30581C1F367
:100D7000080119B1054810390EF020FF044BD3F8D3
:100D8000F030DB0700D500BE08BD00BF4B090100F5
:100D900000ED00E01A4422F0030210B54FF0773462
:100DA00042F8044C540758BF4FF08834A2F10403B2
:100DB0005CBF42F8084CA2F108034FF0807243E98F
:100DC00002020D4A43F80C2C0020032243E90520BF
:100DD00043F8201C01220224194643E907246FF03E
:100DE000020241F8242D0B2241F8042D013A032A76
:100DF000FAD1A3F1440010BD79080000054B064A62
:100E000006481968914201D1834201D3C01A704744
:100E10000433F6E700000020FEE7FEE700020020B2
:100E2000EFF3088070470000004870470000002082
:100E30000023E1EE103AEFF3148323F0040383F36D
:100E40001488BFF36F8FEFF3108362B6024B4FF03D
:100E500080525A60BFF36F8F00ED00E0114910B56A
:100E60000C6872B6FFF76CFC62B6A04208BF10BDFA
:100E70002146BDE8104049B1EFF309821EF0100F82
:100E800008BF22ED108A22E9F04F0A600068B0E83E
:100E9000F04F1EF0100F08BFB0EC108A80F30988E5
:100EA0007047000028050020024B4FF080525A6026
:100EB000704700BF00ED00E030BF62B6BFF36F8F38
:100EC00072B670470D4B0E4A0E496846904203D8E1
:100ED000984201D9002102E009468D4601210420F3
:100EE0007246024202D1EFF3088001E0EFF309807D
:100EF0002DE9F00F6B4600F08FF800BF580100207D
:100F0000000004200002002008B502490620FFF777
:100F10007FFE00BF5A09010008B502490520FFF70E
:100F200077FE00BF6609010008B502490820FFF7F7
:100F30006FFE00BF7909010008B502490920FFF7DB
:100F400067FE00BF8B09010008B502490A20FFF7C0
:100F50005FFE00BF9F09010008B502490B20FFF7A3
:100F600057FE00BFB109010070477047204AD2F810
:100F7000883043F4700310B5C2F88830FFF7F4FFEF
:100F80006A461C4B1C491C4693422DD31B4B1C48E4
:100F9000DA1C121AC11E22F00302994288BF0022F5
:100FA00018490EF0EBF9184B1848DA1C121AC11E3A
:100FB00022F00302994288BF002200210DF04CFD6F
:100FC00024B1134A13490120FFF7BEFEFFF7ACFE20
:100FD000FFF7CBFF00F032F9FFF7CEF80DF044FB3E
:100FE000BDE81040FFF7F2BD43F8041BCCE700BF9B
:100FF00000ED00E000000020FEE7FEE7E004002036
:1010000000020020142F0100FC430020E004002017
:10101000080006161F0000202DE9F04F9A46564B97
:101020008FB093469A6B03925A6B0492D3F8288040
:10103000DA6A05921A6BDB6B0793504B06921A68BB
:101040004F4B9A4204460E4602D04E480DF07CFBB0
:10105000002E62D04C480DF077FB4C4B4C48198861
:1010600009B20EF0ABFD00252F464A480DF06CFB8F
:10107000414649480EF0A2FD059948480EF09EFDF4
:10108000069947480EF09AFD079946480EF096FDDE
:1010900018F4004F03D0039943480EF08FFD18F069
:1010A000800F03D0049941480EF088FD40480DF0B0
:1010B0004BFB404859460EF081FD002E29D11BF014
:1010C000080F53D0314B1E8836B23046FFF7F2FB83
:1010D0003146024638480EF071FD38480DF034FBB9
:1010E000394637480EF06AFD6946364BC91A03D5B2
:1010F000354849420EF062FD20468268C3680169A6
:101100008C4641698E46AD46514691E8F00F4168E4
:1011100000682E490720FFF77BFDD4E90230D4E9AF
:101120000679D4E9001208902069099060690A9054
:1011300019F4007F26480B91CDE90C230CBF04F174
:10114000200504F124050DF0FFFA089B0B9900938C
:101150002048DDE90C230EF031FDDDE90912CDF860
:1011600000903B461C480EF029FD7EE7217F1B487E
:1011700010390EF023FDB0E700ED00E00000002084
:10118000FEE7FEE7BF090100D5090100B405002014
:10119000040A0100AE0A0100B70A0100C70A0100F3
:1011A000D70A0100E70A0100F70A0100070B010056
:1011B000170B01001C0B01002E0B01006D0B010031
:1011C0009E0B010058010020C60B0100F30B01002B
:1011D000180A0100330A0100700A0100470B0100E0
:1011E000BFF34F8F0549064BCA6802F4E062134310
:1011F000CB60BFF34F8F00BFFDE700BF00ED00E005
:101200000400FA054FF0704393F8E02F062A12D13C
:10121000D3F8E40F10F00F000DD1D3F8E82F02F04F
:10122000F002302A08D1D3F8EC3F13F0F00F0CBFD6
:1012300001200020704700207047000008B5FFF72C
:10124000E1FF30B1134AD2F8FC3023F08073C2F8CA
:10125000FC30FFF7D7FF20B14FF080430322C3F8E3
:10126000A025FFF7CFFF30B14FF080430022C3F835
:101270000C21C3F8102100F057F8074B0122C3F8E6
:101280004025FFF731FDFFF7BBFCBDE808400AF041
:1012900063BA00BF00ED00E000E00140044B1B68B2
:1012A0002BB1044B4FF080525A60BFF36F8F7047E1
:1012B0002405002000ED00E008B5044A044B106846
:1012C0001B689847BDE80840FFF7E8BFBC0B00204B
:1012D000CC0B002008B5044A044B50685B68984763
:1012E000BDE80840FFF7DABFBC0B0020CC0B0020A4
:1012F00008B5044A044B90689B689847BDE80840CD
:10130000FFF7CCBFBC0B0020CC0B002008B5044A73
:10131000044BD068DB689847BDE80840FFF7BEBFC4
:10132000BC0B0020CC0B002070470000EFF31081B5
:1013300072B6094A13680133012B136009D14FF0CB
:1013400080420020C2F800011360D2F80031002B67
:10135000FBD081F310887047E00B0020094A08B5E4
:1013600013680BB9FFF71CFCEFF3108172B613681A
:10137000013B13601BB94FF0804301225A6081F397
:10138000108808BDE00B0020084A107868B94FF0BB
:1013900080430121C3F81815C3F804019960D3F8FC
:1013A00004110029FBD0012313707047DC0B0020CF
:1013B00008F0E5BC0346006838B10268904219BFE6
:1013C00013680360002119601046704708B500B12A
:1013D00009B9FFF7E5FB4B68002BFAD0EFF3108259
:1013E00072B60B6833B903686BB11B680B60036896
:1013F00019600160406882F3108830B1BDE8084090
:101400000121FFF791BB0960F3E708BD10B5EFF3C9
:10141000108472B6FFF7CEFF84F3108808B1002362
:10142000036010BD2DE9F0410D46044600B109B935
:10143000FFF7B6FBEFF3108872B6002726467368F5
:10144000002BF5D03046FFF7B5FF50B90137BD424C
:1014500006F10806F3D188F310880120FFF756FB48
:10146000E8E788F3108800220260BDE8F0810146B9
:10147000006810B104310CF0ADBC704738B5856917
:10148000044685B10A4B1868436901330CD00CF04F
:1014900064FC23696A68C11A8A4226BF9B181B1A1A
:1014A00000236B60206138BD83685B689847F0E774
:1014B000E02C01008369084A10B5044610682BB17E
:1014C0005A6821460CF09FFC206110BD2146BDE802
:1014D00010400CF07FBC00BFE02C010083690022AB
:1014E00010B504465A60A06930B1436823B9036857
:1014F000A36163699847F6E72046BDE81040FFF70F
:10150000D9BF000070B505460C46EFF3108672B6E1
:10151000FFF7B4FF05F118000368BBB9236004604E
:10152000AB69A34206D10F4B6268186829460CF0DC
:101530006AFC286186F310880B4B1B682BB10B4BA0
:101540004FF080525A60BFF36F8F70BD61685A6868
:10155000914203D3891A61601846DDE7521A23606D
:101560005A60DCE7E02C01002405002000ED00E0DB
:1015700070B504460D46EFF3108672B6FFF77EFF96
:10158000A36904F118022BB92046FFF793FF86F3F5
:10159000108870BD9D4202D01A461B68F3E72B6885
:1015A0001360002BF0D05A6869680A445A60EBE770
:1015B000034B4161C0E9023000238361704700BFE3
:1015C000DD14000058B1037843B1013810F8013F31
:1015D0000BB901207047303B092BF7D90020704729
:1015E00038B1054B0A0901F00F019A5C5B5C02708F
:1015F00043700220704700BF242901000E4A914227
:1016000030B5034616D80A22012014468A420ED964
:1016100063B103440A25B1FBF5F405FB1412303223
:1016200003F8012D0A46092A2146F4D830BD624349
:101630000130EBE70A20EBE7FFC99A3BFFF7DEBF7B
:1016400088B1E9B1002340EA0102D2070DD5C207F3
:101650000FD5CA070FD5814222BF0A460146104660
:10166000421A0AD199400846704740084908013398
:10167000E9E74008EBE74A08014608461146E8E773
:101680000146F0E72DE9F84306460D4614460AB92F
:10169000FFF786FA11462846FFF7D2FFA042F7D897
:1016A000A84239D8B5FBF0F1B4FBF0F20025B1FA4D
:1016B00081F44FF0004EC4F120002EFA04FEC4F174
:1016C0005F0C2B462C462F46DB1847EB070811EA28
:1016D0000E0F18BF43F00103934278F1000947460B
:1016E0004FEA44044FEA5E0E0FD39B1A68F10007DD
:1016F00044F00104002C0BDA3B4300D00134C0F16C
:10170000200333713460BDE8F883002CF2D1013836
:1017100001356545D8D1EFE700200446EFE700002A
:101720000D4A10B5D2F83C41002303601CB1D2F839
:101730004441A14207D0D2F860315BB1D2F86831A0
:10174000994207D101235B4203F0240303F59E7302
:101750001A44026010BD00BF18020020F8B505460B
:1017600016460C4669B108B9FFF71AFA03688B42AE
:10177000FAD8426803EB02129142F5D2CC1A241136
:1017800001346B68A34201D800200AE02868314682
:1017900000EB0410270108F094FB0028F0D1286822
:1017A0003844F8BDF0B593B015462F230093064694
:1017B0000C46402302AA0B21284608F085FC00288D
:1017C0001BDD2B685B7803F01F03013B01259D4067
:1017D0000023ADB223600227216802AA3046FFF73A
:1017E000BDFF206010B9384613B0F0BD83881D429C
:1017F0004FF00107F0D00027F5E70227F3E70000DC
:1018000070B5164CA36805460E4683B1E3680133F4
:101810000BD104F110035B88B34208D1104829466C
:101820000CF046F918B1002314E02369F3E7236FA5
:101830000BB9002070BD636F013314BFA36F094B58
:101840005B88B342F5D1084829460CF031F90028ED
:10185000EFD068230833E018ECE700BF180200203F
:1018600034020020900200209C0200201FB5144684
:101870001A460378012B0AD10023CDE901314068D3
:10188000069B039401A907F00DF904B010BD4FF0B9
:10189000FF30FAE70A4B10B5044618684369013374
:1018A0000AD00CF05AFA20F07F42626520460621E9
:1018B000BDE8104008F009BD83685B689847F2E70F
:1018C000E02C01002DE9F0411C46064600680D465B
:1018D00090460DF055F8238903F0010383F00104CD
:1018E0000234074604449DB1444516D89BB92C23C5
:1018F0002B7001233C22EA5403F1010831683A4677
:1019000005EB08000DF03AFDE9193E2301F8083017
:101910002046BDE8F0810023ECE74FF0FF30F8E708
:101920001FB54268002A034611DB82687AB110684D
:10193000516801AC03C490680021117001AA0446EB
:1019400003CA4FF0FF329860D9601C615A6004B03E
:1019500010BD30B50368013B012B97B004461CD87D
:10196000C56A042303609DB1502200210DEB0300E2
:101970000DF072F84FF0FF3315936368013314BF15
:10198000A36804F108030093002269462046A84793
:101990002046FFF7C5FF0023236017B030BDF8B520
:1019A00004682568002306460F4603602DB12046D3
:1019B0000CF07EF84FF0FF3538B9A36943B1183405
:1019C000394620460CF074F800B134602846F8BD62
:1019D0000125FBE7014B0360FFF7E1BFF4020020A4
:1019E00010B586B01222002101A80DF035F80423AD
:1019F000009341F23363ADF8163000230E481A46C7
:101A0000694606F047FF002810DB0C4B0C4C1A68A7
:101A100009480023C4E9003221460A4A0CF02EF896
:101A200001212046FFF7FEFC034610B9002006B056
:101A300010BD5B689847F3E7E40B00202805002001
:101A40002C0D0020791C00002DE9F843184C0646A7
:101A50000F46154604F1D009A368FBB1E3680133D2
:101A600014BF216904F1100104F108080B7803F098
:101A70000F03AB4212D12A46043138460EF060F80B
:101A800060B9314604F11C000CF012F858B9E36952
:101A9000042B0BD194F82030FF2B04D068344C4534
:101AA000DAD14FF000084046BDE8F883FFF778F838
:101AB000180200202DE9F74F99460023CDE90033A5
:101AC00005461446036011B16846FFF783FF2CB149
:101AD000214B0193214601A8FFF761FFDFF87C80CD
:101AE000DDE900AB00244FF0FF364746D8F83C3123
:101AF0002BB9264608F12408BCB90124F6E7534562
:101B000002D0BAF1000FF5D1D8F840315B4502D0D0
:101B1000BBF1000FEED1B9F1000F0AD1644204F01D
:101B2000240404F59E743C442C60304603B0BDE8A8
:101B3000F08FD9F80010D8F854210B7803F00F0378
:101B40009A42D7D1002AD5D0043108F5A4700DF0FF
:101B5000F7FF0028CED1E1E724030020180200207F
:101B60007FB51B4EB6F9004074BB1A4B1A481B4D8B
:101B7000CDE901431A4B0093062223464FF48B61B3
:101B8000FEF7FEFE30802846D022214640F8084B62
:101B90000CF062FF3022214605F1DC000CF05CFF06
:101BA0004822214605F59E700CF056FF8022214602
:101BB00005F5C2700CF050FF09F068FEC5F8D800BA
:101BC000B6F9000004B070BD6FF01000FAE700BF76
:101BD0008C110020060C0100340D0020180200209A
:101BE000E119000008B503690BB1FEF7D9FF064BF8
:101BF0005A685860C36802610BB9044BC3604369FB
:101C00000BB9034B436108BD18020020C518000042
:101C1000A5170000F7B50E460027194615461346CE
:101C200000973246044608F0A0FA00280DDD636DE7
:101C3000E78106442D1A6660A58113B1002003B028
:101C4000F0BD2046FFF726FEF8E74FF0FF30F6E73D
:101C500010B50B46802207490446FFF7DBFF01461B
:101C600020B92046BDE8104008F03EBB4FF0FF30E1
:101C700010BD00BFAC0C00202DE9F047CA06B8B07B
:101C800081464AD5002514AF1C22294638460395C3
:101C9000A84C0CF0E1FE01238DF868302E460EAB07
:101CA00000930197002303AA02A9484606F05EFEAE
:101CB000B0F1000831DB0FD008EB0503802B88BFA3
:101CC000C5F1800804EB05000299424688BF012651
:101CD00045440DF053FBE2E7BC46BCE80F001BACEB
:101CE0000FC408239CE803008DF88430149B042B58
:101CF00084E8030014D19DF854308E49CDF8249027
:101D00001BACFF2B08BF44462A46012322A88DF8AE
:101D1000203008F037F9002804DA38B0BDE8F08741
:101D2000FEF73EFF229A137803F03003302B56D192
:101D300051880EA8FFF764FD054628B13430FFF73F
:101D400096FB2846FFF705FE229B0EA906A8B3F8CE
:101D50000280FFF73FFE069D002D40D07648D0F868
:101D60003C1198FA98F2002392B2079329B1A94244
:101D700003D1B0F85011914209D0D0F8601169B187
:101D8000A9420BD1B0F87431934207D101235B42D1
:101D900003F0240303F59E7303440793DDF81C80CE
:101DA000B8F1000F1BD04FF000094B46D8F80420C3
:101DB000C8F8009049460AA8FFF77CFE0A9B1BB9A9
:101DC000D8F80430C3F8009000231A46C8F80490ED
:101DD000294607A8FFF76EFE079B03B92B602299DF
:101DE0004A784FEA5218B8F1020F20D01AD8B8F149
:101DF000000F92D10B78002A6ED113F0300FC3F38D
:101E000001154ED10321229A137823F0300343EABF
:101E1000011323F00F030021137051700EAB0094D7
:101E200004226BE1A8F10403012B3FF676AF11F811
:101E3000042B0EA802F00F02FFF706FE229B0546B8
:101E4000002800F062811A7812F0300FC2F30113FB
:101E500000F05981013B012B3FF65FAF4FF0FF3798
:101E6000AB6C1BB105F13400FFF701FB002E0CBF7A
:101E7000032306232B60EB6A379E1BB10EAA22A90F
:101E8000284698472846FFF74BFD013602D0B8F1A7
:101E9000020F01D000232B6001373FF43EAF022137
:101EA000B1E7022D7FF439AF49880EA8FFF7A8FCEF
:101EB000044600283FF431AF436801333FF42DAFAF
:101EC000C36A0560002B7FF428AF3430FFF7CFFAE8
:101ED0002046FFF73EFD20E79B063FF51EAF26B1EB
:101EE0008D2122A8FFF7B4FE7CE0DFF84C80CDE91D
:101EF0000466CDE90666D8F804504FF0020955B9DA
:101F0000B9F1010F3CD0B9F1020F3BD0B9F1000F8C
:101F100017D0A021E5E76B690A9622AA0AA92846EC
:101F20009847022801D12D69E9E7012806D12D69DA
:101F30008146E4E7AC0C0020180200200028E8D11C
:101F40000A9D294607A8FFF7EBFBDDF8DC90B9F105
:101F5000000F40F09F8022AB4A460EA906A8FFF76B
:101F6000A9FDDDE9063A0646BAF1000F3ED05BB1A5
:101F70009A4515D0CDF818904FF0FF3337930FE006
:101F80008521AEE78421ACE79AF81C30012B2FD1D4
:101F9000DAF800100EA80BF08BFD48B3CDF818A0AE
:101FA000069B8BB1229F9D603A78DDE9080102F023
:101FB0000F0203F11C069A6186E8030022B1391D65
:101FC00003F10C000DF0DAF90EABCDE90B3401236F
:101FD0000A950D93AD6852490AAB802222A8A84702
:101FE000002896DB00283FF498AE84E0002BD7D180
:101FF000379B0133D4D0002EBEDBBAF1000FBBD12A
:102000000EA904A8FFF7E6FC049B33B90028A1BF82
:10201000182303FB0080DC300490424B05932146DB
:1020200005A8FFF7BCFC059B3BB90028A1BF1823FE
:1020300003FB008303F586730593049A002A9BD063
:10204000DDF814C0BCF1000F96D00DF138099646AA
:102050004B4603CBBB42CEF80000CEF804109946A5
:102060000EF1080EF4D1A646674604F1180973462E
:1020700003CB4B45386079609E4607F10807F6D1DF
:102080002423734303F59E7141444344C3E94F2C19
:10209000069185E7B9F1010F27D122AB00220EA9E5
:1020A00006A8FFF707FD069FDFB100233B601A4635
:1020B0000EA90AA8FFF7FEFC0A9E36B90EA904A8CD
:1020C000FFF788FC049B03B11E60002319467A6861
:1020D0000AA8FFF7EFFC0A9B0BB97A68136000238C
:1020E0007B604FF0FF3337936EE7B9F1FF3F3FF46A
:1020F0006BAF4FF0FF3000940EAB0246084908A8C2
:10210000FFF7B4FB09E60227AAE61B7813F0300FAD
:102110003FF478AE379B01337FF474AEFDE500BF2A
:10212000AC0C002024030020282A2DE9FF4105469D
:102130000F4601D0FEF734FD164B01925C68012377
:10214000ADF80C3000261CB9304604B0BDE8F08173
:10215000E36823B1002362680293934201D32469A8
:10216000F1E72068D4F80C8000EB031001AB75B1E7
:10217000BA1BA919C0470028F1DDBDF80C3023F0C7
:102180000103ADF80C30029B06440133E3E72A4615
:102190002946EFE718020020F8B504461E464523FD
:1021A000FFF738FD28220C21204608F08EF8012187
:1021B000204608F099F8054630466768A48908F07B
:1021C000A8F82822C3B221463846FFF7ADFF2844BD
:1021D000F8BDF8B5048906460F46154600200DB136
:1021E000B54218D132897168002307F074FA04F1FE
:1021F0003A030344B3F5803F24BF013080B27968CD
:1022000020443A3000232022083180B207F063FADC
:10221000C04380B2F8BD23462A89696807F05BFA9B
:10222000AB682D6823449CB2D9E72DE9F8430E46EC
:1022300081460321304604F021F9044608B9FEF72F
:10224000AFFC022104F01AF907460028F7D0A36872
:10225000032B05D830460021BDE8F84304F016B939
:10226000014632462046D4F80480FFF7B2FF00282A
:10227000F0D198F80050892D0FD8842D11D8802DD9
:1022800016D098F80010334640F20122032002F0E5
:102290009DFD0028DED0BDE8F8836335EDB2012D49
:1022A000EFD8A36879684246484601F059FDE8E74F
:1022B000238979684246484600F050F8E1E738B58E
:1022C0000D46144600211A46032304F021FA28B1D2
:1022D000436800221D705C709A70DA7038BD10B5CA
:1022E000044660B190F91030032B0BD10268FFF760
:1022F00070FF50B1636840BA5880002010BD6FF085
:102300000D00FBE76FF04C00F8E76FF00100F5E718
:102310004269013201D00BF020BD83685B68184729
:102320002DE9F041DDF81880154600220E461F46C3
:10233000014608F108031046FFF7C1FF044650B1FB
:10234000406876BA6DBA8680C58027B14246394664
:1023500008300DF013F82046BDE8F08173B506464D
:102360000C46002A3ED0072B3CD99188D088083BE8
:1023700040BA49BA009389B202F1080382B28120BF
:10238000FFF7CEFF054668B3237EFF2B04F108025A
:1023900014BF04F11801002100F001FC044610B93B
:1023A0000146284609E000231A461946184603F05C
:1023B00045FD054630B90146204602B0BDE87040F3
:1023C00004F064B843680EB1B6F966615E800649F0
:1023D0002C602B4640F20222022002F0F7FC01465C
:1023E0000028DED002B070BD0000FFFFF7B5099DE8
:1023F0000C4611461A464FF6FB739D4207464AD8D3
:10240000009500238020FFF78BFF002846D022464E
:102410000021466800F0C3FB044630B921480CF0A7
:1024200093F90025284603B0F0BD43689DF82020AD
:10243000DA7167B100231A461946184603F0FEFC0C
:1024400030B34368B7F866215A8004600446164BDF
:102450001868FFF75DFF032D89BFB0600836043DA3
:102460000C3600239D42DAB20FD11049234640F2C8
:102470000222022002F0AAFC0028D2D16FF0080547
:102480000021204604F002F8CCE7F2540133E9E7DA
:102490006FF00B05F4E76FF01505C3E76FF00B0560
:1024A000C0E700BF1E0C0100E42C01000000FFFF8C
:1024B0002DE9F0471F46224B0546186816460C4684
:1024C000FFF726FF02218146284603F0D7FF0321AC
:1024D0008246284603F0D2FF8046BAF1000F2BD087
:1024E00050B3DAF80400083002F0D7F8D8F8041036
:1024F000032C01F1080C1CD98B68043CA9EB0302E6
:102500000C310B190C469C4202D14FF0FF310AE00E
:102510000134601A013814F801ECC0B28645F2D0DB
:10252000A4EB0C0101393B462846B446BDE8F04710
:10253000604761460022E4E76FF01500BDE8F087D0
:10254000E42C0100002103F0A1BF000008B50449FC
:1025500010220DF0F5FAB0FA80F0400908BD00BF76
:10256000AA29010010B50A49082204460DF0E8FA2C
:1025700048B12378FF2B08D1607800F00F00831E4C
:102580005842584110BD0120FCE70020FAE700BF87
:102590009A29010070B51E46CBB2002115460246AD
:1025A000084603F04BFC044620B92846FFF7CAFF53
:1025B000204670BD43681E710560F9E738B50B68A9
:1025C0000C46054608B9FEF7EBFA4A68B0F8661102
:1025D000518000224BB9B5F8A030934209D2204671
:1025E0007A21BDE8384003F051BF99681B680A445E
:1025F000F0E7284602F0BAFD60B10B49234640F2ED
:102600000222012002F0E2FB68B92046BDE8384012
:10261000FFF798BFB5F9660140F20222214602F0A9
:10262000CAFB0028F1DD38BD0000FFFF2DE9F843AB
:102630000E46D1E9001405460A4600232ABB5BBAC0
:10264000A380A379FF2B02D119BB3B23A371E379AC
:1026500013B94DBB4023E37104F108073E49102232
:1026600038460DF06DFA04F11809804678BB4846EB
:10267000FFF76CFF0246D0B11022414638460CF0FD
:10268000EBF90123E37534464FE090681268034488
:10269000D4E70B7C023BDBB2022BD6D82F4AD35CAB
:1026A000A371FF2BD3D1D0E795F86431D3E7494626
:1026B000284602F08BFF03460028E4D000F1100208
:1026C00053F8041B47F8041B9342F9D1DBE7284673
:1026D00002F071FD4846FFF739FF98B10024284603
:1026E00002F070FD002CCED00321304603F0C6FE70
:1026F00028B143681B7803F0FD03852BC3D06FF02E
:102700007C0022E03946284602F04CFF0028E5DB39
:102710002844047D04F01F04103C18BF0124DEE7A8
:1027200004F012F898B12060044694F91030022B9E
:1027300002D120680028F3D13146204603F08DFEF7
:10274000002807DA831C08BF0020BDE8F8836FF07B
:102750000B00FAE70020F8E7BA290100442901003C
:1027600080B590B01022002105A80CF075F9AD4B92
:102770000693AD4BAD481B88ADF820300821FDF71E
:102780005BFF05A9022003F0D1FDA94F40F205230C
:10279000ADF80E3001A8FDF742FFBDF80620B2F5F6
:1027A000017F2CD840F202239A4200F2B48140F219
:1027B00001218A4239D09A42ECD1029E96F910301A
:1027C000013340F0EF8074688CB3B4F9020002F07A
:1027D000E7FC0546304694F8048003F0B5FF08F0A6
:1027E0003F08014600283DD003F07AFE064696F9E0
:1027F0001030022B00F0DA80162130464DE0A2F5B1
:102800009F43403B9BB2152BC4D88A490120984076
:102810000140002940F08781152B00F08981142B9D
:10282000B8D1029801F048F9B4E7029E0EB9FEF75C
:10283000B7F94FF0FF31304603F020FE054638B1BE
:102840004368002BF3D0B3F9020002F0A9FC05465F
:1028500073683BB1B268272A04D91B7803F0F003F0
:10286000602B01D030460EE0304603F06DFF044689
:102870000028F7D00222282103F088FF00232374C8
:10288000034618B92046FFF75DFE83E7D0F80480C1
:1028900098F8072022B97421204603F0F7FD79E764
:1028A000B8F8041098F806608AB249BA89B20AB931
:1028B0003B2EE7D19C42A2685AD08A4257D9204683
:1028C00003F0CCFF08F118084046FFF73FFE70B94F
:1028D0004046FFF747FE08B1002D58D1404602F0B0
:1028E00051FF0546B0FA80F040090028CAD1292ED0
:1028F00051D03A2E51D0A6F11102534253419B00C0
:1029000023743146022003F090FD002801DC3A2EAA
:1029100045D10121204603F071FE4FF001084149E5
:1029200094F91000234640F2012202F04FFA10B948
:102930002046FFF707FEB8F1000F10D03A2E03D162
:102940000121204603F05AFE234640F2012231467F
:10295000022002F03BFA10B92046FFF7F3FD3A2EB1
:102960007FF418AF21462846FFF75FFC12E72346A5
:1029700000209A68104493F91020022A02D01B68A4
:10298000002BF6D1283888429CD2162184E7404695
:1029900002F0F8FEA6E70223B2E70323B0E74FF008
:1029A0000008BCE74FF00008454620E77068102299
:1029B000394618300DF0C4F800283FF41DAF3046FA
:1029C00003F0C2FE044600283FF44CAF4668337E55
:1029D000FF2B54D185BB02F0D6FB00283FF452AF49
:1029E000411E204603F00AFE48F04008284602F047
:1029F000C8FB054600283FF4CDAE204603F0A4FEF8
:102A0000064600283FF43EAF01462846FFF70EFE7B
:102A1000002827DAB4423FF435AF3046FFF792FD85
:102A200030E700BF0000FFFFB40500209011002038
:102A3000BA290100EFFB060001462846FFF7F6FD24
:102A40000028FFF61FAF002148F040032246084649
:102A5000FFF7A0FD014600283FF49CAE2846FFF793
:102A6000ADFD97E60021084643463246FFF792FD4A
:102A700001460028BAD02846FFF7A0FDB6E7183671
:102A8000304602F07FFE8542814606D03046FFF791
:102A900069FD002818BF4FF000093046FFF756FDCA
:102AA00010B9B9F1000F17D021464846FFF7BEFD17
:102AB0000028FFF6E7AE204603F02AFD00287FF449
:102AC000E1AE1D49234640F20122022002F07EF9C8
:102AD00000287FF45FAED5E609AB22462946304692
:102AE00001F05CF80028FFF655AEBDF83C00C0F3DD
:102AF000041002F055FB054600283FF498AE21462D
:102B0000FFF794FD0028FFF6BDAE9DF83E1043464A
:102B100022460DA89CE76FF0850303A901A8049342
:102B2000FDF754FD36E60298114601F0D7FB31E679
:102B3000029800F0EBFF2DE60000FFFF1FB50A4CE6
:102B4000B4F900305BB9094A0948CDE90132094AB4
:102B500000924FF470710422FDF712FF2080B4F947
:102B6000000004B010BD00BF8E110020380C010021
:102B7000D01100206127000008B5022103F07EFC7F
:102B800060B143680BB9FEF70BF88268272AFAD9BF
:102B90001A7802F0F002602AF5D1184608BDF8B59F
:102BA0000C46174602232822002103F0B1FD0646F9
:102BB00008B3456805F10800FCB1214604F1100393
:102BC00051F8042B40F8042B9942F9D105F1180073
:102BD000C7B1394607F1100351F8042B40F8042B14
:102BE0009942F9D1602200232A70FF226B70AB70EA
:102BF000EB70AA71EB713046F8BD102221460BF044
:102C00002BFFE3E7102239460BF026FF012385F85E
:102C10002730E7E7F8B5044615460E4609B9002007
:102C2000F8BDD1F8A470FA04F9D5194908220CF0BE
:102C300087FF38B12378FF2BF1D1637803F00F03BE
:102C4000022BECD1FB0701D4FDF7AAFF96F8650132
:102C500005F1100204F1080106F0AAFF10F0FF00D0
:102C6000DDD0A8762B4604F1100254F8041B43F87B
:102C7000041B9442F9D1B6F866311B0103F4F873D2
:102C800043F4806343F006032B830120C8E700BFB1
:102C90009A2901002DE9F843054602F073FD044628
:102CA000002859D002F087FAB4F96611002000F02C
:102CB0007BFB002843D00368B4F966119A8EC2F3F7
:102CC0000412914201D0FDF76BFF043318462A46E7
:102CD000214600F0FCF82946204602F063FC00285B
:102CE000F1DB21180B7D03F01F02102A31D003F015
:102CF0000702013A012A27D80133D4F898800B75CE
:102D0000050105F17806154B1548B3F900902644E6
:102D10003146FEF72DFC05F1160760190023C0E9C6
:102D20001E38274444F6CF73A0F88230C0F8847070
:102D3000A0F8809031460A48FEF7E4FB04E084F8EE
:102D40009C00204601F084FA2046BDE8F84302F0DA
:102D500039BA4EF66028D3E7BDE8F8838E1100201B
:102D6000901500202DE9F3470D461F46044608B98B
:102D7000FDF716FFD0F8A430D90403D4042002B024
:102D8000BDE8F08779780229F8D11278882AF5D140
:102D9000DB07F3D590F8C0206B4600F1B80102F0D4
:102DA000BFFF0828EAD1DDE90002B968FB689A4252
:102DB00008BF8842E2D1BB78012B41D0022B45D01D
:102DC000CBBB05F118012046FE8802F0EBFB002882
:102DD0001FFA86F8D2DBB8F5807F2ED076BAB6B26D
:102DE0004EF660235E43A6F56A46603E2218050152
:102DF000137D254823F01F0343F0100305F17808E5
:102E00001375A044214B4146B3F900A005F1160902
:102E1000FEF7AEFB60190023C0E91E36A14444F65C
:102E2000CF73A0F88230C0F88490A0F880A041460B
:102E30001548FEF767FBB878A1E747F23056D5E7AB
:102E400005F11801204602F067FDF4E7B4F96611B8
:102E500005F1080000F0A8FA0646002888D000F026
:102E60006BFA002000F08AFA28B984F89C0020460A
:102E700001F0EEF9DFE73368002B3FF479AF05F19D
:102E80001800FFF707FFD6E7901500208E110020ED
:102E900013B58A784878412A34BF02230323984225
:102EA00012D1CC88C87864BAC0F30013A4B20093DE
:102EB0000831234600F00F0003F0F8FE4EF66023C1
:102EC00003FB04F002B010BD4FF0FF30FAE7F0B59D
:102ED000074685B015461E460C4609B9FDF760FE4B
:102EE000B1F96611002000F05FFA45B3D4F8A430C0
:102EF000DA0424D518B30068B4F96621838EC3F3CD
:102F000004139A421BD13146043006F027FCB0B1BD
:102F1000D4F8A430DB0710D594F8C02002AB04F13C
:102F2000B801204602F0FCFE082806D1002302AAC0
:102F30000F21184605F019FB10B905B0F0BD0020AF
:102F4000009033462A462146384601F0E5FDF4E775
:102F50002DE9F04117469846054608B9FDF720FED1
:102F600001F10806B0F96611304600F0C3F80446D6
:102F700028B190F8363013F0010F08BF0024D5F8BF
:102F8000A430DA07EAD595F86501414606F026FE39
:102F900000281ADB74B9B5F966110322304600F037
:102FA000FBF8044688B13B78872B02BF838E23F061
:102FB0000803838694F83630DB0706D53B78862BEA
:102FC00005D1A38E43F00803A386BDE8F081872BCB
:102FD000FBD0A38E23F00803F6E730F9081FFDF7B6
:102FE00099BA000008B5044910220CF0A9FDB0FA06
:102FF00080F0400908BD00BFBA290100054A1068E9
:1030000038B10368984219BF1A6802600021116044
:10301000184670478017002090F8361011B93822F2
:103020000BF01ABD704770B5044610460E461546A3
:10303000FFF7F2FF4CB123462A1D04F1100153F8AB
:10304000040B42F8040B8B42F9D11F2E01D9FDF776
:10305000A7FDAB8E23F4F87343EA0611A98670BD71
:1030600001490248FEF7A4BADB2F000090150020AA
:103070000148FDF713BE00BFAC1500200148FDF765
:1030800011BE00BFAC15002070B50F4CA38EC3F36A
:103090000413994205460E460FD150B9201DFFF783
:1030A000A1FF50B12846084A3146FFF7BCFF064849
:1030B00070BD211D06F052FBF3E794F83630002B6B
:1030C000F0D00020F4E700BF4817002028B13830C6
:1030D000064B984203D3002070470548F8E790F864
:1030E0003620002AF8D13830F3E700BF80170020DF
:1030F0004817002008B50B46014638B9FDF750FDCA
:103100000A4806F02BFB78B109480EE0084A92F80D
:10311000360048B1928E12F4F87FC2F30410EFD05B
:10312000002BEDD08342EBD0002008BD4C170020CF
:10313000481700207047000010B590F8363023F093
:10314000010300F1240180F8363004461048FEF7F0
:103150000FFA10490A6822B113689C4206D1FFF7A2
:103160004DFF2046BDE81040FFF756BF13461B68D1
:103170001868844202D09A42F9D1F2E7002BF0D0CD
:1031800022681A600A68944208BF0B60E9E700BF32
:1031900090150020801700202DE9F8438846074647
:1031A00008B9FDF7FDFC02F007052B1F022BF8D92B
:1031B000FFF76AFF002839D1FFF720FF814660B38F
:1031C000284E044694F83630012B29D8A38E03F4F8
:1031D000C0632BBB2046FFF7AFFF3846224641466F
:1031E000FFF721FFA38E2B43A386012384F83630FB
:1031F00020463368B3B11B68236033681C603460B9
:1032000060B9FFF7FBFE81450446DBD133685BB153
:103210001B6803603368186034600020BDE8F883E1
:103220000020E6E72460EAE72060F5E790F8363012
:10323000DA0708D4828E22F00702154343F0010317
:10324000858680F836300368002BE7D1054B1A6875
:103250002AB1126802601A6810601860DEE7006028
:10326000FBE700BF8017002070B50C46054600B193
:1032700009B9FDF795FC0A46031D00F1140153F846
:10328000040B42F8040B8B42F9D1A88E2083C0F3C3
:10329000041001F085FF10490646082220460CF074
:1032A0004FFC38B12378FF2BE3D1637803F00F0391
:1032B000022BDED1002EDCD0D6F8A430DB0705F1DE
:1032C0000C0104F11002D4D596F8650106F070FCEB
:1032D0000028A8BFA07670BD9A290100F8B5154E48
:1032E000346807460D4694B1A38EC3F30413994284
:1032F0000BD1211D06F032FA38B194F8363043F084
:10330000080384F836300B48F8BD0020FCE7FFF7CF
:10331000BBFE024630600028F7D029463846FFF74A
:1033200082FE326892F8363043F0080382F8363075
:10333000E9E700BFB4150020036810B504468BB15F
:10334000011D0C48FEF714F9206890F8363023F080
:10335000080380F83630FFF75FFE14220021204674
:103360000BF07AFB044B1A68A24204BF00221A60D9
:1033700010BD00BF901500208417002028B1143024
:10338000074A904203D3002070470648F8E70368D5
:103390001BB193F83630002BF6D11430F1E700BFA3
:1033A000C8150020B415002010B520B10D4B1C68C5
:1033B0002CB900200FE00029F8D1FDF7F1FB21B175
:1033C000A38EC3F304139942F3D128B994F836308D
:1033D0001B07F2D5034810BD211D06F0BFF90028D8
:1033E000E7D0F3E7B415002010B5124C2168B1B155
:1033F0000B689B8E03F00703013B012B0DD80020C7
:10340000FFF7BCFF68B90846FFF7B8FF01B110B974
:103410000020FFF7B3FF20600146084610BD0846B4
:10342000EEE703689B8E03F00703013B012BF2D804
:10343000E6E700BF8417002038B50C46054610B1FA
:10344000036803B109B9FDF7ABFB10220021204648
:103450000BF002FB114A12680023AA4284F82030C4
:1034600008D12B689B8E03F00703013B012B94BF0F
:103470000023012384F821302B6804F110011A1D68
:10348000143352F8040B41F8040B9A42F9D12B681B
:103490009B8EC3F30413638438BD00BF84170020E0
:1034A0002DE9F84F054689461F4690463AB1104629
:1034B000FFF798FD044610B97B1E7F2B01D9FDF75D
:1034C0006FFBDFF8E4B082469BF82420DBF8006055
:1034D000DAB9002C08BF5C460AF1010ABAF1080FFC
:1034E0000BF1300BF0D174B12368002B45D1494664
:1034F0002846FFF7C9FD0146206000283DD1302253
:1035000020460BF0A9FA00242BE09BF825209742D7
:10351000E2D141460BF1040006F036F98742DBD8D0
:10352000002ECCD0B28EC2F304129145D4D1043611
:103530003046FFF757FDB8B13DB105F1100255F81F
:10354000041B46F8041B9542F9D1302202FB0AF213
:10355000154B995891F8362042F0400281F83620F8
:103560005C462046BDE8F88F002DB5D03146284690
:1035700006F0F4F80028AFD0DFE722684946284675
:10358000FFF751FD2046FFB250F8042B92F8363079
:1035900043F0400382F8363041463A4606F013F9CC
:1035A00084F82570DDE700BFC815002010B590F83D
:1035B00024300446FBB90068D0B920463022BDE86B
:1035C000104000210BF048BA3033013A04D09C423D
:1035D000FAD019688842F7D1074A9342EDD390F8A0
:1035E000363023F0400380F83630FFF715FDE4E76E
:1035F000024B0922E9E710BD48170020C81500203A
:1036000028B13030064B984203D30020704705485C
:10361000F8E790F82420002AF8D13030F3E700BF13
:1036200048170020C8150020054B984206D303F523
:10363000C07398422CBF00200120704700207047C3
:10364000C815002038B50B4610B1026802B109B99F
:10365000FDF7A6FA021D00F1140452F8045B41F8CC
:10366000045BA242F9D190F8252083F820200021A4
:1036700083F821100268948EC4F304145C8490F8DB
:103680002400042803F1100004D1BDE838401022C2
:103690000BF0E2B9131D143253F8041B40F8041B5D
:1036A0009342F9D138BD00002DE9F843164607468C
:1036B00000B10AB9FDF774FA184D0024A04605F5CB
:1036C000C07995F824305BB13946281D06F05CF8C6
:1036D000404505D995F8253083429CBF80462C464D
:1036E00030354D45EDD134B194F82430042B0FD151
:1036F000E38CDB070CD4FFF777FE18B944B96FF001
:10370000710003E03146FFF797FE0020BDE8F88323
:1037100031462046FFF796FFF7E700BFC8150020A7
:1037200010B5044600F114010648FDF721FF94F896
:10373000243023F0040384F824302046BDE81040F0
:10374000FFF734BF901500202DE9F843044600F13F
:1037500014011748FDF70CFF2368988EC0F304107E
:1037600001F01EFD0546D8B100F1160604F104096A
:103770004946304694F8257006F006F805F126080B
:1037800087424946404694BF94F82570002605F0CC
:10379000FBFF874209D91EB13146284602F0BCF82A
:1037A0002046BDE8F843FFF7BBBF4646F4E700BF3D
:1037B000901500202DE9F8431F4613460A4601469E
:1037C0000020089EFFF76CFE044600283DD090F8CC
:1037D0002430B74243F0040380F8243001D2FDF7CF
:1037E000DFF907EA0605681C36D01D4B18684369E7
:1037F00001332DD00AF0B1FA711C05461CD0194BCB
:103800001948B3F9009004F114084146FDF7B0FEE1
:103810000023C4E9053644F6CC731348E3832462DD
:10382000A4F81C904146FDF76DFEB21C04D073193C
:10383000013308BF01362E44FB1C0FD87B1901331E
:1038400008BF01373D44C4E90A562046BDE8F88365
:1038500083685B689847CFE72E46F4E73D46F2E77A
:10386000E02C01008E1100209015002010B50A4BAD
:103870009B690246002013B94FF0FF3010BD5C6811
:1038800020445C898C4204D1002AF7D0DC68944241
:10389000F4D01B68EFE700BF90150020F0B5044698
:1038A00085B00E4617460021102268460BF0D4F86A
:1038B000D4F8A430D90406D4B4F9661123480CF026
:1038C0007DF905B0F0BDDA07FBD594F8C02002AB56
:1038D00004F1B801204602F0A1FA0028F1DB3A46D3
:1038E0003146684605F06FFF6946204601F05AFEF2
:1038F000051E29DA07233A466946204601F0B6FD3F
:10390000051EDEDB0127D4F8A430DB04D9D510492D
:10391000082230460CF014F938B13378FF2B0BD164
:10392000737803F00F03022B06D16219137D23F085
:103930001F0343F010031375002FC2D004EB0510D2
:103940001630FFF7A7F9BCE70027DCE73D0C0100C4
:103950009A29010010B50A49082204460CF0F0F833
:1039600048B12378FF2B08D1607800F00F00831E48
:103970005842584110BD0120FCE70020FAE700BF83
:103980009A290100002102F081BD08B5FFF7B2FBC2
:1039900028B190F8363013F0010F08BF002008BDA1
:1039A000F8B50446174606981A460D46A9B191F88F
:1039B00065310A2B11D1134604F1100154F8040BA0
:1039C00043F8040B8C42F9D1B5F866311B0113831F
:1039D0000023937601263046F8BD78B92946204663
:1039E000FFF718F906460028F4D1D5F8A41011F411
:1039F000805107D03846FFF7C5FFECE71146FFF7C7
:103A000033FCE7E70DB1B5F9661102222046FFF756
:103A1000C3FB0028EED0002FDDD07621384602F01F
:103A200035FDD8E738B505685DB195F836301B0728
:103A300007D5FFF781FC00242046FFF7E1FD04468F
:103A400000B938BD23689D42F6D1FFF7AFFDF3E71B
:103A50002DE9F843DFF834801F460B4B144605462A
:103A60000E4640461146B3F90090FDF781FD002354
:103A7000C4E900376681E560A4F808902146404615
:103A8000BDE8F843FDF73EBD8E11002090150020E3
:103A900038B5084CFFF7ECFAA16929B10D6820464A
:103AA000FDF766FD2946F8E7FFF7DAFABDE838408A
:103AB000FFF7E4BA9015002038B5044608B9FDF7C1
:103AC0006FF8002501F077FB0E49A4F89C502046C2
:103AD00001F06FFE402220460B49FFF7DFFE4FF456
:103AE0007A71284607F0F6FE04F16802034644F6B0
:103AF000C3712046FFF7ACFF2046BDE8384001F017
:103B000061BB00BF7A2901009A29010038B504463B
:103B100008B9FDF745F801F04EFB04F11605104811
:103B200004F16801FDF724FD2846FFF713FF18B1E3
:103B30002946204601F0F0FE04F126052846FFF74D
:103B400009FF18B12946204601F0E6FE2046054946
:103B500001F085FE2046BDE8384001F033BB00BFD0
:103B6000901500207A29010010B5044608B9FDF728
:103B700017F801F020FB4FF47A73C4F8983094F8EA
:103B80009E3043F00103204684F89E3002F0E6F8B0
:103B90002046BDE8104001F015BB00002DE9F047BC
:103BA0000C468CB0054608461746994601F003FBC3
:103BB000FFF75EFA002C3ED0B4F966112846FFF7F5
:103BC000E4FE0646002838D0B0F83480C8F3041864
:103BD0002846FFF7BFFE00285FD1B8F1000F5CD088
:103BE000204601F0EFFA404601F0DAFA0446FFF70A
:103BF00045FA204601F0DFFAFFF73AFA002C4ED0E2
:103C0000B4F966112846FFF7C0FE064600964B46FB
:103C10003A4621462846FFF7C3FE00280CBF6FF046
:103C200075060026FFF72AFA204601F0CBFA304647
:103C30000CB0BDE8F0872146C0E72846FFF78AFEB2
:103C4000B0460028C4D1B2465046FFF7D9FC8246A0
:103C500078B9B8F1000F2BD098F824305A0727D53F
:103C6000B8F82630DB0723D5D8F80030B3F8348015
:103C7000ACE70AF10401284605F086FD9AF82530E4
:103C80009842E1D3B8F1000F05D098F825209A4268
:103C900038BFD046D8E7D046D6E7002CB6D11FB102
:103CA0007621384602F0F2FB6FF075060024B9E782
:103CB00003AA39462846FFF7F7FC061E35DB2749DD
:103CC000102207A80BF03CFF78B976BB2846FFF717
:103CD00041FE50B307AA05F1100C28686968134625
:103CE00003C3083565451A46F7D1BDF82E3024BB0D
:103CF000BDF92E0001F054FA0446FFF7BFF9204643
:103D000001F059FAFFF7B4F924BB214607A8FFF7E1
:103D10003CFE4B4600903A46214607A8FFF740FE7E
:103D2000002808BF6FF075067CE71FB17221384686
:103D300002F0ACFB6FF0710674E7B4F966219A42A9
:103D400008D0204601F03EFAB4F96621BDF82E30C5
:103D50009A42CDD1B4F96611D8E700BFBA29010063
:103D60002DE9F04F0F4689B015469846044608B92C
:103D7000FCF716FF01F01FFAFFF77AF92B78872B73
:103D800000F05481882B00F01D82862B40F0AB811F
:103D900007F108094846FFF7DDFD002800F0A38180
:103DA000FB79FF2B40F09F816B78002B40F09B81CB
:103DB000B8F10F0F40F29781D4F8A430DA0407D499
:103DC000EB885BBA9BB242F22832934200F28B81BD
:103DD000A8F1100B05F1100632465B46002B59D1B5
:103DE000B5F80680B4F966111FFA88F34846002B2F
:103DF0005CD0FFF773FA8146002800F0748198FACE
:103E000098F84FF47A731FFA88F803FB08F84346D2
:103E1000021D44F6CD71FFF71BFE2B790BB184F820
:103E20006431EB6813B11BBAC4F89830B9F1000FD4
:103E300013D0D4F8A430DB040FD5237D13F0EF0F9B
:103E400003D004F11600FEF725FF637D13F0EF0F9A
:103E500003D004F12600FEF71DFFBBF1000F2FD1A8
:103E6000B9F1000F00F03F8104F16805A24829462E
:103E7000FDF77EFBD4F8A430DE0440F134814FEA34
:103E8000980303EB43032A4644F6C3712046FFF729
:103E9000DFFD28E19845C0F026815178002900F027
:103EA0002281A3EBC10302EBC10297E7FFF77CFA83
:103EB00008B1FFF7B7FD4FF0FF384FF00009ACE74E
:103EC0003378052B1BD009D8012B11D0032B24D01C
:103ED0007378ABEBC30B06EBC306BEE7222BF7D11F
:103EE00031462846FEF7D4FF804528BF8046EFE7DD
:103EF00033462A4639462046FFF72AF8E8E7737822
:103F0000012BE5D12B78862BE2D173681BBAB3F570
:103F1000A06FDDD3A4F8A030DAE773680493B36828
:103F200005937378042B05D04FF0FF33984528BFD5
:103F30009846CDE72B78862BF6D106F1100318466C
:103F40000293FFF707FD0028EED1049B059A1BBAE8
:103F500092FA82FA5345E7D3D4F8A410F278C80451
:103F600001D51106E0D4500606D5B2780299039324
:103F70002046FFF793FC039BF2783F2AD4D9B2780E
:103F800003927268E2B9924613E09AF82430590716
:103F90000FD59AF82530039A93420AD102990AF173
:103FA000040005F0F1FB039B984202D35046FFF753
:103FB000CBFB5046FFF724FB82460028E5D1B3E750
:103FC000049A013207D04D4A93429ABF4FF47A7255
:103FD00053436FF00103059A013208D0474A9245D6
:103FE0009ABF4FF47A7202FB0AFA6FF0010ACDF819
:103FF00000A0DDE90212B4F966010493FFF7DAFBD1
:10400000002891D096F90320F178049B002ABEBFC6
:10401000C28C42F00102C2844A0642BFC28C42F006
:104020000202C284534528BF53467FE7FB79FF2B2A
:1040300059D16B78002B56D1B8F1170F53D92B7A81
:10404000FF2B50D007F108092D49102248460BF0EC
:1040500077FD38B92B490D2207F118000BF070FDE0
:10406000002840D105F1080B5946204601F09AFA84
:10407000031E029337DBA8F1180605F1180A524611
:10408000334673B91E490393102248460BF058FD7E
:10409000039B78B900934A462146584600F098FDA4
:1040A00021E098451FD35178E9B1A3EBC10302EB9E
:1040B000C102E6E7D4F8A430D80705D4B4F96611F4
:1040C00003224846FFF768F8F6B9029B23441B7D9C
:1040D000990670D5B4F966115846FFF756FC0546A7
:1040E00018BBFFF74FFCFEF7C9FF204609B0BDE83B
:1040F000F04F01F067B800BF9015002037894100EC
:10410000BA2901008A2901009AF80030012B05D153
:1041100053462A4639462046FEF71AFF9AF80130E0
:10412000A6EBC3060AEBC30ACEE73B7EFF2B1FD1EB
:1041300094F8C07004F1B8013A4606A80BF01EF9D5
:10414000B7B13246394606A800F0DBFC0646002827
:10415000C7D040213246584600F072FC074648B1AD
:104160004A460021FEF71BFD804628B93846B8E7CD
:104170006021EFE73046B4E74368FF22DA7100239D
:104180001A461946184601F059FE064608B9404637
:10419000A7E74368B4F866215A804FF47A71C0F8F3
:1041A0000080002007F096FB05F12402034644F648
:1041B000C27130466BE63B7E0096A3F1FF0253428C
:1041C000534168E7FB79FF2B8DD16B78002B8AD1A7
:1041D000B8F1170F87D92B7AFF2B84D03B7EFF2BAA
:1041E00003D12B795B063FF57EAFA8F1180905F1E5
:1041F000180632464B46F3B9B4F9661105F10800CA
:10420000FFF7C3FB804600283FF46DAFB9F1000F04
:104210003FF469AF3378212B07D1CDE900683346ED
:104220002A4639462046FEF79DFD7378A9EBC3095F
:1042300006EBC306EAE79845FFF455AF517800292D
:104240003FF451AFA3EBC10302EBC102D3E700BFC0
:1042500038B5044600F0AFFF44F6C3712046FFF7BF
:1042600005FBD4F8A430DA0423D594F89C30022B53
:1042700042F210750AD9033B4FF47A6202FA03F353
:104280001D444EF660239D4228BF1D46A8420BD90F
:104290001149204600F020FD94F89C30092B0BD9E1
:1042A000D4F8A430DB040DD42046BDE8384000F03B
:1042B00089BF4FF47A65E9E70133DBB2022B84F85A
:1042C0009C30EDD82B4604F1680244F6C3712046B9
:1042D000FFF7BEFBE8E700BF6A290100F8B50D460D
:1042E0000446FEF7C5FEA5F59F4142390D2914D8B5
:1042F000DFE801F0071713131313131313131B69CC
:10430000136D3549234640F20222022000F05EFD83
:1043100018B90921204602F0B9F8BDE8F840FEF7C7
:10432000ADBE2046FFF794FFF7E72368988EC0F3F1
:10433000041000F035FF05460028EED0274B186822
:10434000436901330FD009F008FD0646284600F006
:1043500032FFA36AB3420AD82046FFF7F5F9284690
:1043600000F030FFD9E783685B689847EDE7E36AC0
:10437000B342F4D8271D394605F1160005F004FABA
:1043800094F8253083429FBF2B7D23F01F0343F019
:1043900008032B75394605F1260005F0F5F994F868
:1043A000253083429FBF6B7D23F01F0343F008033A
:1043B0006B75A36A04F114029B1B44F6CC71204672
:1043C000FFF746FBCBE72046FFF72CFBA5E720468F
:1043D000FEF760FCA1E700BF0000FFFFE02C01003A
:1043E00008B5044910220BF0ABFBB0FA80F040098D
:1043F00008BD00BFBA290100F8B5069D14461E4647
:1044000080B179B1FFF7ECFF1D4B9D429ABF4FF48D
:104410007A735D434FF0FF350EB128B164B96FF088
:10442000150407E00120EFE7FEF722FE6FF0850498
:10443000FEF724FE2046F8BDFEF71AFE2046314660
:10444000FEF74CFF0446C0B10E4B18609DB10E4BF9
:10445000061D31460D48B3F90070FDF789F80023B9
:10446000C4E9013544F6CD730848E3812461A7818E
:104470003146FDF747F80024DAE76FF00B04D7E781
:1044800037894100841700208E11002090150020EC
:1044900038B504460D46FEF7EBFD24B11DB12046AC
:1044A000FFF79EFF20B1FEF79FFF08B1FEF744FF24
:1044B000BDE83840FEF7E2BD2DE9F04106460F4663
:1044C0009846154602B10BB9FCF76AFB106838B97B
:1044D0002C682046FFF794F80446E8B9286003E00A
:1044E000FFF7A2F80028F3D12C682046FEF746FF1C
:1044F000044668B120680028F7D027B1838EC3F343
:1045000004139F42F1D14EBB41462046FEF794FF73
:10451000201E18BF012017E094F82430002BD3D0C0
:1045200020680028D5D0042B02D1E38CDB07D0D53E
:1045300027B1838EC3F304139F42CAD13EB92046EC
:104540004146FFF77FF801202C60BDE8F08131463D
:10455000043005F003F90028F1D1BAE73146043000
:1045600005F0FCF80028C0D0CEE7000030B590F888
:1045700020308BB0044613B1FFF732FFF8B194F846
:104580002110154A154B164800290CBF1146194633
:104590000BF014FB04F110052846FFF721FF40B98A
:1045A00029462822684605F0D5F901460D480BF04A
:1045B00005FB618C0C480BF001FB0BB030BD2146B4
:1045C0002822684605F0C6F994F8202001460748DD
:1045D0000BF0F4FADEE700BFEB0E0100BC0C0100AB
:1045E000BE0C0100D00C0100D80C0100C90C010068
:1045F00038B50D46044608B9FCF7D2FA082BFBD8AB
:104600004B1E1F2BF8D8FEF733FD2946002220460B
:10461000FEF7C2FD054620B9FEF730FD6FF00B0036
:1046200038BD0E49082220460BF08AFA38B12378AB
:10463000FF2B10D1637803F00F03022B0BD1AB8E4D
:1046400023F4C06323F0070343F4C063AB86FEF793
:1046500015FD0020E4E76FF01500E1E79A2901005D
:1046600070B505460E46FEF703FD00242046FEF712
:104670002DFD044668B1A38EC3F304139E42F5D109
:10468000211D284605F06AF80028EFD02046FEF7E5
:1046900053FDBDE87040FEF7F1BC38B50546FEF7A6
:1046A000E7FC00242046FEF711FD044678B194F89B
:1046B0003630DA07F6D5211D284605F04FF80028D8
:1046C000F0D0A38E5B0702D02046FEF733FDBDE895
:1046D0003840FEF7D3BCF8B50C6806460D461746C1
:1046E000FEF7C6FC2046FEF7F1FC044668B194F8DC
:1046F0003630DB07F6D526B1A38EC3F304139E42F2
:10470000F0D139462046FEF7AFFD2C60FEF7B6FC2F
:104710002868003818BF0120F8BD000010B58AB025
:10472000014604462822684605F014F9014610485F
:104730000BF044FA238B13F4F87FC3F3041102D077
:104740000C480BF03BFAA17E6A4604F1100005F01C
:104750005EFA014608480BF031FA238B1B0702D59D
:1047600006480BF02BFA064809F0EEFF0AB010BD20
:10477000551F0100E10C0100EA0C0100F50C0100DD
:10478000EB0E01002DE9F04387B00C4605461646B6
:104790000021102202A8DDF838901F460AF05CF9CB
:1047A0000CB9FCF7FDF9802EB04628BF4FF0800809
:1047B0005FFA88F2214602A805F005F82449102284
:1047C00002A80BF0BDF900283FD02249082220465C
:1047D0000BF0B6F9002838D02378FF2B35D0B94537
:1047E00033D8FEF745FC2146CDF800903B464246C3
:1047F0002846FEF7DFFF044630B9FEF73FFC6FF0B6
:104800000B0007B0BDE8F08328B200F0C9FC0546F4
:1048100018B9FEF733FC0020F3E700F0CCFCD5F824
:10482000A430DA045EBFE38C43F00103E38495F81F
:104830009E30DB0705D57F2E9EBFE38C43F002033D
:10484000E384284600F0BEFCE3E76FF01500D8E7EC
:10485000BA2901009A290100F8B5054617460E4607
:1048600009B9FCF79DF9FEF703FC00242046FEF78A
:10487000C7FE0446A8B12368002BF2D094F8252087
:10488000BA42F3D125B19B8EC3F304139D42EDD1FF
:10489000211D304604F078FFB842E7D32046FEF7EA
:1048A00053FFBDE8F840FEF7E9BB2DE9F0410C6885
:1048B00007460E461546FEF7DBFB2046FEF7A0FE38
:1048C000044630B3D4F80080B8F1000FF5D094F866
:1048D00024305B07F1D52FB1B8F83430C3F304139B
:1048E0009F42EAD194F825302B74102200212846EB
:1048F0000AF0B2F894F82520211D284604F063FF41
:10490000B8F83430C3F304136B82A36A6B61E36AB3
:10491000AB61FEF7B3FB201E346018BF0120BDE879
:10492000F081000030B58FB00546102200216846A6
:104930000AF092F81E4B18684369013334D009F02D
:104940000CFA2A7C29460446684604F03CFF2822DB
:10495000694604A804F0FEFF2A7C014615480BF0C6
:104960002DF9698A14480BF029F969694A1C07D0A6
:10497000091B4FF47A731148B1FBF3F10BF01EF9E8
:10498000A9694B1C0BD0A14284BF091B4FF47A7359
:104990000B488CBFB1FBF3F100210BF00FF9094874
:1049A00009F0D2FE0FB030BD83685B689847C8E756
:1049B000E02C0100C90C0100E10C0100FC0C01001D
:1049C0000D0D0100EB0E010038B504461846FEF748
:1049D000E6F8054668B14368FF22DA7100231A46FB
:1049E0001946184601F02AFA28B92946284601F046
:1049F00077FD002038BD43680CB1B4F966415C8096
:104A00000560F7E710B50446084614B12378FF2B7C
:104A100001D1FCF7C5F8182300228721FDF74FFCD0
:104A200068B14368216800221A715A719A71DA716B
:104A30006268DA609960A168E2685A61196110BD24
:104A400038B504460D46104614B12378FF2B01D12A
:104A5000FCF7A6F8182300228821FDF730FC78B176
:104A60004368002225F01F051D71DA719A715A7191
:104A700021686268DA609960A168E2685A61196128
:104A800038BD08B5002208238521FDF718FC28B1A0
:104A9000436800221A715A719A71DA7108BD10B513
:104AA000002304461046CA1D02F0F802194601F020
:104AB0002FFE20B1426814708368DB08537010BD6C
:104AC00070B506460D4618460231FFF7E8FF04466A
:104AD00058B1436882680233023A0021184609F04F
:104AE000BBFF2A4631460AF049FC204670BD10B58E
:104AF00000B109B9FCF754F8BDE810400123FFF7F5
:104B0000DFBF10B500B109B9FCF74AF8BDE81040A5
:104B10000223FFF7D5BF00002DE9F7430A9D0C469D
:104B200016469846074610B10378FF2B01D1FCF7D3
:104B300037F80029FBD0B8F1000FF8D0084600F094
:104B40003AFB36B932463946204600F03FFD06466C
:104B5000B8B11D49102230460AF0F2FF88B194F82E
:104B6000C09004F1B8014A4668460AF007FCB9F162
:104B7000000F06D02A4649466846FFF7B8FFE8B15D
:104B8000054638462946FFF73DFF0746B0B10346C4
:104B9000424631462046FFF717FF054668B10346F7
:104BA0000A4940F20222022000F010F930B12046FA
:104BB00000F008FB03B0BDE8F0833D460021284625
:104BC00001F064FCF3E700BFBA2901000000FFFF19
:104BD0002DE9F04387B00D460E9E144699460746D0
:104BE00010B10378FF2B01D1FBF7DAFF0029FBD0CE
:104BF000002AF9D0084600F0DEFA3946284600F0CF
:104C0000D1FCB0F100085CDB3049102220460AF0EC
:104C100097FF30BB2E4B02AC03F1100C186859689B
:104C2000224603C2083363451446F7D1002495F8A1
:104C3000C09005F1B8014A4668460AF09FFBB9F1F9
:104C4000000F3BD0324649466846FFF75AFFC0B3D3
:104C5000A84498F814309B0601D444F0200406467A
:104C60000FE0224602AB04F1100C106851681C469C
:104C700003C4083262452346F7D14024B9F1000F3E
:104C8000D5D1214632463846FFF7DAFE0446C0B198
:104C9000034602AA00212846FFF796FE064678B191
:104CA00003460C4940F20222022000F08FF840B186
:104CB000284600F087FA07B0BDE8F0833046CEE71B
:104CC00026460021304601F0E1FBF1E7BA29010058
:104CD0007A2901000000FFFF2DE9F3410E46054649
:104CE00008B9FBF75DFF214B002908BF1E4600F005
:104CF00062FA00223146284600F068FC8046A0B1E6
:104D000095F8C04005F1B801224668460AF036FB26
:104D100064B1214600226846FFF7E9FE044628B93F
:104D20000021204601F0B2FB17E004462046FFF7C1
:104D3000A8FE07460028F3D00346324641462846DF
:104D4000FFF742FE044670B10346094940F20222D1
:104D5000022000F03BF80028E2D0284602B0BDE86F
:104D6000F04100F02FBA3C46DAE700BF6A290100A3
:104D70000000FFFF00B589B006930A9BADF81C3018
:104D8000BDF82C308DF81410ADF81620ADF80630B3
:104D9000024605AB03A901A80293FBF7F1FBBDF89E
:104DA0000E2040F205239A4201D0FBF7F9FE049849
:104DB00009B05DF804FB07B5019101466846ADF8FE
:104DC0000220FBF7C1FB03B05DF804FB2DE9F341C2
:104DD0000446884617461D4601F072FA41462046B1
:104DE00001F023FB064648B14146204601F018FB7E
:104DF000711E0446284601F001FC2CB901F07AFA34
:104E0000304602B0BDE8F081237A012B0FD0022B8F
:104E100016D003BBB4F90C003A462946FFF7CBFF86
:104E2000002813DC0521284601F030FB0EE0E06885
:104E3000ADF80270002269460195FBF7B3F9EFE780
:104E4000E3682946D3E900823846C047204601F08E
:104E5000FEFA0446D1E78C21E5E710B50C46B0F820
:104E600066112046FCF7EAFB0022225410BD13B560
:104E70004FF40174B0F966010194049C0094FFF7AB
:104E800079FF02B010BD13B540F20324B0F96601FA
:104E90000194049C0094FFF76DFF02B010BD1FB594
:104EA00000240394ADF80C30436801941B698DF81D
:104EB0000410029201A9984704B010BD50F8A80C44
:104EC00003681B691847000008B5044910220AF05E
:104ED00037FEB0FA80F0400908BD00BFBA290100D2
:104EE00010B50A49082204460AF02AFE48B1237880
:104EF000FF2B08D1607800F00F00831E5842584104
:104F000010BD0120FCE70020FAE700BF9A2901004C
:104F100070B58568044600F0E7FE2B6801465E69BF
:104F200004F1B80208232846B04710F1860F08D0D4
:104F3000D4F8A430002843F00103C4F8A43006DC00
:104F400070BD94F8C030002BFAD0FBF729FE84F82E
:104F5000C000F5E7F8B5044608460E461546FFF7CB
:104F6000B3FF98B95DB104F136050327002431463B
:104F700005EB041004F0F2FB28B12046F8BD04F163
:104F800016050227F2E70134BC42F0D14FF0FF30A2
:104F9000F4E70378FF2B10B5044603D1407800F006
:104FA0000F0010BDFFF79CFF60B9208840BA20F0C9
:104FB0003F000004000C4FF6C06398420CBF052070
:104FC0000E20EEE70220ECE770B504460D461646CB
:104FD0007AB908B9FBF7E4FDD0F8C8304BB100F05E
:104FE00031F82946204601F0D3F830B3134809F0D0
:104FF000ABFB0121284601F001FB636829465B6891
:1050000020469847103016D12946204666B101F057
:10501000FBF806468EB10A4809F096FB0C2128469B
:10502000BDE8704001F032BA01F0B2F80646204601
:1050300001F0CCF8EEE70021F1E770BD210D010091
:10504000590D010010B5044608B9FBF7A9FDD0F8C9
:10505000C8307BB11A685968C0F8C82000221A60AD
:105060005A6039B10122FFF7AFFF2046BDE810407A
:1050700001F0ACB810BD000037B5846841B904F147
:10508000B00104F1A80003B0BDE83040FCF79EB9C0
:10509000023907290ED8DFE801F0110D2C2C2C2C39
:1050A000040F174BCDE90034164B6846B3F90010D6
:1050B000FBF734FA03B030BD134BF3E763682046C7
:1050C0009B68984705462046FFF7BCFF002DF1D0AE
:1050D0000E4995F910002B4640F20122FFF776FEAB
:1050E00001460028E6D1284603B0BDE8304001F073
:1050F000CDB9204603B0BDE83040FFF7A3BF00BFE5
:105100000000D44F8E1100200000D54F0000FFFF9B
:10511000F0B589B01E4687680023C0E90333109BB1
:1051200043600C4615460FB1FBF73AFD0F9B8360B9
:10513000CDE90507012106A8FBF78EFA0E9B029325
:1051400005AB0193084B009332463B462946204667
:10515000FBF716FC0028E7DD012106A8FBF77CFA27
:10516000079809B0F0BD00BFD551000090F8653137
:105170000B2B9DBF4FF43760D84000F0010000209A
:10518000704705F061BB10B500242046FFF7F9FF1A
:1051900008B9204610BD4368002BF7D00134F5E76D
:1051A00010B504460020FFF7ECFF18B1B0F96631E6
:1051B000A342F8D110BD20B1436813B10C30FBF706
:1051C0006DBD704720B1436813B10C30FBF76ABD69
:1051D000704700002DE9FF410468DFF808810546AB
:1051E000002640F205232046CDE90066ADF80230E6
:1051F000FFF7E1FFB8F80030A4F86631364BC4F889
:10520000B430364B1B68C4F8AC30102104F1E40014
:10521000C4F8A860FBF710FA636820461B6898473B
:10522000A860281DFBF74EFAAA68B24204F1A8074D
:1052300048DB2046FFF7C6FF41F233263846FCF72D
:10524000E5F8054648B902A8FBF7E6F9002809DCAD
:1052500048F20100FBF75AFCF0E76B68002BEDD039
:105260009847EBE7BDF80A30B3F5017F27D00FD898
:1052700040F20222934211D040F20322934213D013
:1052800063685B69002BD9D002A920469847D5E70F
:10529000B342F5D12046FFF7D5FECFE703992A4662
:1052A0002046FFF791FEC9E763681B690399204612
:1052B00098476946019002A8FBF788F9BEE7636842
:1052C000DB68F3E7B8F80010054809B20AF076FC8D
:1052D000304604B0BDE8F081BD4E00002805002036
:1052E0008D0D0100B40500202DE9F8430E4605465A
:1052F000FFF761FF33783489112B0CD8062B0FD9B7
:10530000073B0A2B0CD8DFE803F01F89260B5069F6
:105310000B0B0B0B9A00402B0BD0412B00F09B800A
:10532000A8687268036831785C693389A0470446CD
:1053300035E0012C01D0FBF733FC2846FFF716FFC0
:105340007368187001242AE0012CF4D1736895F871
:1053500064211A70F6E70F2CEDD92C7D73688CB19F
:1053600005F11602194605F1260052F8044B41F8E2
:10537000044B8242F9D13289102A03F110034FF015
:1053800010040CD96A7D52B105F1260205F13601EF
:1053900052F8040B43F8040B8A42F9D11034284622
:1053A000FFF710FF2046BDE8F883002CC3D07268D9
:1053B00005F1130305F1150000243189A142EEDD4A
:1053C000834203D114F1860FAAD0E8E713F8011F36
:1053D0000029F2D002F8011B0134EEE70F2CAAD904
:1053E000D6F8048005F1360705F1660900243389F3
:1053F000A342D4DDB945D2D03846FFF765FD07F1A9
:10540000100348B9424657F8041B42F8041B9F4258
:10541000F9D1103408F110081F46E8E7072C8AD9A3
:10542000D5F8A4207368D2077FF57AAF95F8C0202D
:1054300005F1B801284600F0F1FC0446C2E7738884
:10544000022B7FF46DAF022C7FF475AF7368B5F853
:10545000A0201A80A3E7012C7FF46DAFD5F8A4300B
:105460007268C3F3002313706CE700002DE9F04766
:105470000D468AB091461F46044600B109B9FBF7B4
:105480008FFB0B78FF2BFAD00846FFF71DFD002895
:10549000F5D14149102228460AF052FB0028EED0EF
:1054A00009F1FF337F2BEAD82046FFF784FE07F08F
:1054B0001F03072B08BF07F0F807294604F1160061
:1054C00008BF47F0010704F049F9B8B9267D29461D
:1054D000003E04F1260018BF012604F03FF9764291
:1054E000804688B996B1637D002B4AD02046FFF7ED
:1054F00069FE6FF00B000AB0BDE8F0870026204679
:10550000FFF760FE3046F6E70126F8E70646D4F8D6
:10551000A430DB040BD4282229462048B4F966A124
:1055200004F018FA514602461D480AF047FBA1193B
:1055300004EB06130F752A46163305F1100052F8D6
:10554000047B43F8047B8242F9D10B7D03F01F03F7
:10555000102BD4D100230293B4F9660103AA02A947
:10556000FFF7A3F9074670B9B8F1000FC7D14FF0A4
:10557000FF330093B4F966014A462946FFF702F962
:10558000BDE70126C3E7294603A804F0FDF8484516
:1055900028BFB846E0E700BFAA290100891700200C
:1055A000AD0D010038B50D46044600B109B9FBF751
:1055B000F7FAFFF700FE294600222046FFF7CAFC53
:1055C00005462046FFF7FEFD284638BD2DE9F04F81
:1055D0008FB017460191044600B109B9FBF7E0FA14
:1055E000FFF7E9FD257D002D47D06A0744D1002F44
:1055F00046D004F11600FFF773FC00280BBF00250E
:1056000080254FF0FF360026637D002B41D05B07DD
:105610003FD1002F37D145F0400576420027019851
:10562000ADF81470FFF7B5FC04F116084FF0FF3128
:1056300002460DF1140943460091BB468BF0070169
:10564000012000FA01F1294246D00199039218463F
:105650009A46029304F082F8002875D1029B1846FE
:10566000FFF797FC039A99F80010029B824218D129
:1056700011440F31C9B219E000254FF0FF36C3E7DE
:1056800080253E46C0E704F12600FFF729FC0028EC
:10569000C1D1002EC2D04FF0000A5CE04FF0010BE8
:1056A000CCE75FD20F31101A0844C1B204F11400E4
:1056B00089F8001010F80B0000F01F0008281CBF2C
:1056C000013189F8001099F800100098B94288BF9C
:1056D0005846009088BF0F4609F101091033BBF10D
:1056E000000FDBD04FF000094D4605AB5B5DBB42C0
:1056F00020D10199404604F047F802908246404686
:10570000FFF7EEFB00283AD106908346B4F9660114
:1057100007AA06A9FFF7C9F840BBBBF1000F04D0E8
:10572000029B5B4528BF5B469A46D1453CBF5FFA6A
:105730008AF9009508F11008B5B1009B002B06DB33
:1057400004EB031303F1160ABAF1000F03D104EBC3
:10575000061606F1160A2046FFF734FD50460FB034
:10576000BDE8F08F014485E70125BEE7414607A863
:1057700004F00AF8584588BF9DF82CB0C6E74FF0F2
:10578000400BCDE738B5054600242046FFF7F9FC6D
:10579000044660B100222946FFF7DCFB002806DA48
:1057A000012229462046FFF7D5FB0028EDDB2046E5
:1057B00038BD2DE9F34105466A4690F865010E466D
:1057C00004F022FA04462846FFF7F5FC002C1DDD04
:1057D000A3B26A466E212846FFF761FB10F1860FDF
:1057E000044601D0002814DB05F1360800274FF0ED
:1057F000FF343146404603F0B1FF70B12846FFF751
:10580000E1FC3C46204602B0BDE8F08114F1860F71
:10581000EAD02846FFF7D6FCF4E7621C05D14046E3
:10582000FFF752FB002818BF3C460137032F08F151
:105830001008DED1631C05D12846FFF7C3FC6FF0CA
:105840000B04DFE705EB04133146363306F1100293
:1058500051F8040B43F8040B9142F9D1D9E72DE933
:10586000FF478A46044600B109B9FBF799F990F859
:1058700065016A4604F0C8F9051E02DA15F1860FC3
:105880002FD12046FFF797FC002704F13608B946D0
:105890004FF0FF36002D13DD4046FFF715FB78B9BA
:1058A00094F8650102AA414604F0AEF9854207D199
:1058B0002A46694602A80AF043F908B909F1010924
:1058C0004046514603F04AFF002818BF3E460137C4
:1058D000032F08F11008DDD1002E05DA2046FFF76E
:1058E00071FC04B0BDE8F08715F1860F02D0B9F164
:1058F000000FBAD0B9F1010F05D1ABB26A466F21E2
:105900002046FFF7CCFA04EB0610102200213630B7
:1059100009F0A2F8E2E700002DE9F04F2DED028B2F
:105920000E468BB0044600B109B9FBF739F99FED7B
:10593000288B4B7B8DF815304FF08079CB89CDF8D3
:1059400010904FF0FF0A8DED028B8DF814A0ADF88A
:105950001630FFF730FC04F1160504F1140804F1C9
:10596000360B01273146284603F0F8FEC0B100216E
:1059700088F800101022284609F06EF810355D45B1
:1059800008F10108EED11FB102A92046FFF767FF19
:105990002046FFF717FC0BB0BDEC028BBDE8F08F83
:1059A0008DED068BCDF820908DF824A06A7B8DF8C4
:1059B0002520EA89019002A906A8ADF8262003F067
:1059C000CDFE019B002818BF1F46D7E7AFF300802C
:1059D000FF0200000000000070B50E460546FFF70C
:1059E000EAFB327833891B2A11D8062A11D9073AE3
:1059F000142A0ED8DFE802F01F0D293B0D474E0D8B
:105A00000D0D550D0D0D0D0D0D0D0D0D6F00412AD8
:105A100052D0A8687268036831789C693389A047BE
:105A2000041E2BDD3378052B67D8012B26D9284699
:105A3000FFF76EFA22E0012B01D0FBF7B1F8736893
:105A40001B7885F86431012418E0102BF5D1728899
:105A5000716802F0E00343F01003120A2846FFF7D2
:105A600005FD041E09DA14F1860F07D1D1E7102BCA
:105A7000E3D171682846FFF74FFF10242846FFF74F
:105A8000A1FB204670BD102BD7D171682846FFF7C7
:105A900090FEE6E7102BD0D171682846FFF7DFFEB5
:105AA000EBE77288022AB4D1022BC6D17268128841
:105AB000A5F8A0201C46E1E7012BBED17268D5F8FD
:105AC000A4301278012A0CBF43F4807323F480734E
:105AD000C5F8A430B7E77268D5F8A410107801288B
