:1000000000020020FD1000009910000055100000B3
:10001000A9100000B9100000C91000000000000085
:100020000000000000000000000000003910000087
:10003000D910000000000000ED0F0000E9100000E2
:1000400063A500004DB30000E9AD0000F11400000D
:100050000D15000063A5000063A5000063A5000066
:1000600063A50000D1AB0000D7AB000063A5000082
:1000700063A5000063A5000063A5000063A5000060
:1000800063A50000EDA8000063A5000063A50000C3
:1000900063A5000063A5000063A5000063A5000040
:1000A00063A5000063A50000DDAB0000E3AB00002A
:1000B00063A5000063A50000000000000000000030
:1000C00063A5000063A5000063A5000029150000DA
:1000D00063A5000063A5000063A5000063A5000000
:1000E00063A5000063A5000063A5000000000000F8
:1000F0000000000063A5000000000000451500009E
:100100004269013201D00BF084BC83685B681847F8
:100110002DE9F0472DED048B7648774DE8B00CF0D3
:10012000FFF8002004F03BFF48B974497448754F4C
:100130000BF016FB10B374480CF0F2F820E0082323
:100140004FF40171B0F966010022CDE9003140ABF6
:10015000032104F03FFD0128E7DD00F5D0730DEB2E
:100160000304284614F8A21C01F076FB14F8A11C25
:10017000A81C01F071FB00232B71D6E701233B7013
:10018000624B9FED638A1E683046FFF7B9FF97F810
:1001900000900446B9F1000F00F0A780584820AA4B
:1001A0000AA90BF059FA002840F09880BDF9803078
:1001B0009FED587A07EE903ABDF82830F8EEE77ACE
:1001C000C7EE878A07EE903AF8EEE77A87EE879ACD
:1001D0003046FFF795FF504B504ACDE90053A0EB56
:1001E00004082346A02140A80DF00CF90446B9F1FB
:1001F000000F18D040AB03EB0009C0F1A00A19EEC4
:10020000100A0BF0FFFECDE9020118EE900A0BF088
:10021000F9FE434ACDE90001514648460DF0F2F897
:1002200004449F2C54DC3F4B009340A84346C4F148
:10023000A00120443C4A0DF0E5F80444631E9E2BC7
:1002400046D840A80CF06CF84FF00C088022374BD1
:10025000CDF804800DEB020100930AA8022301F0FF
:10026000EBFD0A9A137823F0300343F01003137068
:10027000414632220AA809F068FE01210AA809F0C5
:1002800073FEB0F1000823DBBDF834309C421FD868
:10029000224640A90B980CF05DFD0021122205A812
:1002A0000CF0DAF904230493214941F2336305A8E1
:1002B000ADF8263009F0F6F950B100230122CDE95E
:1002C0000132009304AA08EB040120A801F0F4FD18
:1002D00047F2305130460BF003FD55E7B0EE489A37
:1002E000F0EE488A4FF0000972E7B0EE489AF0EE5F
:1002F000488A6DE738E400000002002094EC00001A
:10030000C4040020C004002061E40000FCED0000F3
:10031000000000000000C8425DE4000093E400001B
:10032000C5E4000002E50000E5E4000007E5000088
:1003300014E5000070B5064E064CA41BA408002569
:10034000AC4200D170BD56F8253098470135F7E72B
:1003500058EE00007CEE000008B503212A200AF0C8
:1003600003F903212F200AF0FFF8054B4FF48062B8
:10037000C3F80C254FF40042C3F80C2508BD00BF9C
:100380000003005070B50144044618468C4200D169
:1003900070BD14F8013B0825584046B24300002EBA
:1003A000D8B2B8BF5040013DF7D1EFE72DE9F04793
:1003B00004460E461746EFF3108872B60568C5B9B5
:1003C000DFF88890051DD4E90331A2689A1A8A42A1
:1003D00022DC1D4A12883280581C6269E0600B40A2
:1003E00096E8030002EBC30383E8030088F3108858
:1003F00010E055F80C390360D1E900012B6983E85E
:10040000030028460C2100F0D3FA687988F310889D
:1004100000F00EFB012714E08FB1D9F800A00921EC
:10042000504600F0C5FA5146284600F085FB88F397
:10043000108800F061FBEFF3108872B6C3E788F311
:1004400010883846BDE8F087A0050020140500207C
:1004500070B50B4604461046EFF3108672B6D4E929
:10046000022191421DD0501CA0602069616965681D
:10047000024001EBC20292E8030083E803001DB9C9
:1004800086F31088012070BD55F80C39636028464A
:100490000C2100F08DFA687986F3108800F0C8FA14
:1004A000F0E778B1094A156809212B61284600F068
:1004B0007FFA2946204600F03FFB86F3108800F0C3
:1004C0001BFBDFE786F31088DDE700BF1405002083
:1004D000F8B50446EFF3108672B6334F3B685A6A9C
:1004E000002A5BD0D3E90620904257D0501C986177
:1004F000186A024039B9596929B9511C03D186F3E8
:1005000010881046F8BD002A4CDB596A01EBC20185
:1005100003C984E803005D699DB9002A2CDA04212F
:10052000184600F045FA86F31088204B4FF08052B1
:100530005A60BFF36F8F3B681B79042B1ED100F00C
:1005400015FC55F80C195961002A0DDBD3E9072079
:1005500099695C6A511A8842A9BF511C4FF0FF3259
:100560000240D96104EBC2042B6993E8030084E8DC
:1005700003002B79062B03D186F310880122C0E7F4
:10058000002328462B610C2100F012FA687986F3CB
:1005900010880E28F2D800F04BFAEFE74FF0FF3248
:1005A0000029A8D01C61B6E71405002000ED00E08A
:1005B0000346D0E9072010B59C69141BA04201DA5C
:1005C000002010BD541C0240DC61F9D4586A00EBD5
:1005D000C20203C982E803001A896FEA42426FEA45
:1005E00052421A81184600F05BFB0120E9E7000047
:1005F00008B50E4B53F82130A3B11A79042A0BD158
:1006000003C81A6982E8030018460C2100F0D0F9EB
:10061000074B0120186008BD01461846BDE8084098
:10062000FFF7C6BF4FF0FF30F5E700BF1C05002005
:10063000100500202DE9F0411D46294B53F82140BB
:10064000284B1B880380064690462CB985F31088FA
:100650004FF0FF30BDE8F081234B1F682379042B56
:1006600034D001462046FFF7A3FF78B185F3108808
:100670003B79062B02D01D4B1B682BB11C4B4FF056
:1006800080525A60BFF36F8F0120E3E7B8F1000F8B
:1006900002D185F31088DDE73B793E61062B14BF5C
:1006A00005210621384600F083F904F1140039468B
:1006B00000F042FA23896FEA43436FEA53432381F0
:1006C000204600F0EDFA85F31088D7E7D0E9000165
:1006D000236983E803000C21204600F069F9F2E762
:1006E0001C050020A0050020140500201005002096
:1006F00000ED00E010B50146EFF3108472B6054B33
:100700001B880380044B1868FFF752FF84F310889E
:1007100010BD00BFA0050020140500202123038088
:10072000FFF766BFEFF30583DBB20BB1FFF7F6BF50
:10073000064B1B881BB2994201D1FFF7DBBFEFF3D9
:10074000108372B60122FFF775BF00BFA00500201D
:1007500010B4EFF3058212F0FF0203D05DF8044BF2
:10076000FFF7DCBF074B1B881BB2994203D15DF832
:10077000044BFFF7BFBFEFF3108372B65DF8044B75
:10078000FFF758BFA0050020104B1B881BB29A42F0
:100790002DE9F04106460C46154601D100F0E6FA77
:1007A000EFF3108872B60A4B1F680621384600F036
:1007B000FFF896E803003C61434684E80300012209
:1007C00029462046BDE8F041FFF734BFA0050020D0
:1007D0001405002038B5EFF3108572B60F4BB0F951
:1007E000002053F822400CB900F0C0FA2379062B00
:1007F00004D085F310884FF0FF3038BD03C923695A
:1008000083E8030020460C2100F0D2F8607985F3DC
:10081000108800F00DF90120EFE700BF1C05002053
:100820000021FFF755BE0121FFF752BE08B5064B68
:100830004A1E1B681140586201D000F097FAC3E9C4
:1008400006111A6208BD00BF1405002070B50446E9
:100850000846EFF3108672B6236833B94FF0FF33C2
:10086000236086F31088012070BD11B986F31088CB
:10087000FAE70F4B1D680DB900F078FA03212846FE
:1008800000F096F8236801330DD105F10C032360C5
:100890000023EB6086F31088064B4FF080525A60BD
:1008A000BFF36F8FDFE72946204600F045F9F1E7F7
:1008B0001405002000ED00E038B50446EFF3108584
:1008C00072B6006810B985F3108838BD431C02D198
:1008D00000232360F7E750F80C3923600C2100F067
:1008E00067F8236813B94FF0FF33236085F310884E
:1008F000034B4FF080525A60BFF36F8FE5E700BFA4
:1009000000ED00E008B503790B2B04BF0C23037145
:10091000836A1A68934208D0B0F9061003480CF0B5
:10092000F7FD03490D2000F059FA08BD1CE5000051
:100930004BE5000070B5184C184E2368356843BB72
:1009400015B12846FFF7DEFF00F07EFB2368002B81
:10095000FAD00020124B00221A602368114AB3FA21
:1009600083F352F823301C680C3C0B23AC422371F8
:100970000DD008B1FFF7C6FF0B4BA16AB4F90620F2
:100980001A801F31094A3460022000F0BFFA204665
:1009900070BD2846DEE700BFCC040020140500200F
:1009A00010050020D0040020A00500200800061635
:1009B0000A2930B503791AD90A2B14D842791A4B6F
:1009C00053F8225000F10C047DB12D68C56053F836
:1009D00022502C6043F82240144C4FF00043D34087
:1009E000226813432360017130BDC460F2E70A2B13
:1009F000F9D945790C4A52F825303BB11C68A3421D
:100A00000BBF0023246842F825301C60437952F85C
:100A10002320002AE7D1054C4FF00042DA4023683A
:100A200023EA0203DEE700BFD0040020CC0400204C
:100A30000B4B1B685A791B790A2B01D990420DD2B6
:100A4000EFF30583DBB21BB1064B01221A6070473E
:100A5000054B4FF080525A60BFF36F8F704700BF55
:100A6000140500201005002000ED00E008B5EFF3AC
:100A7000108372B6084B094A1B88094C1BB200212F
:100A800042F82310074A20681368013B1360FFF700
:100A90008FFF216000F094FAA00500201C050020C3
:100AA0001405002018050020431E9BB21F2B05D8FB
:100AB000034B53F8200010B1C06A70470020704704
:100AC0001C05002010B5EFF30583DBB27BB9EFF313
:100AD000108472B6064B02211868FFF769FF84F391
:100AE0001088044B4FF080525A60BFF36F8F10BDD7
:100AF0001405002000ED00E0EFF3108072B60B4B00
:100B00001B681A790A2A07D95A79094B53F8221017
:100B100011B1096843F8221080F31088054B4FF09B
:100B200080525A60BFF36F8F704700BF14050020DA
:100B3000D004002000ED00E038B50B790A2B01D974
:100B400000F014F94C7901F10C020346006818B169
:100B500010F8075CA542F8D9C8601A6038BD0000DB
:100B60000F2A2DE9F84F05468A469046994632D815
:100B700010F003031DBFC3F10402043B5B180B46D6
:100B8000A3F1340318BFAD1823F0030319F0080FC5
:100B900005EB030416D02D60EFF3108B72B6284AD4
:100BA0000126114652F8047FC7B10136212EF9D132
:100BB0008BF310886FF08A063EE012600432A24286
:100BC000FBD3E9E72A46FAE702212046FFF7F0FEC9
:100BD0008BF3108830E06FF015062DE036B22A4610
:100BE00041F82640DDE90A01E68000F0B5F90C9BEA
:100BF000144AE3624FF0FF33C4E9083713682060FA
:100C0000013319F0010FC4E90377C4E90577A56240
:100C1000C4F830A084F805802771E7611360D3D150
:100C20000C212046FFF7C4FE19F0040FD0D18BF33E
:100C300010884046FFF7FCFE3046BDE8F88F00BF45
:100C40001C0500201805002010B50346EFF31084A2
:100C500072B6028902EA010022EA01021A8184F3D3
:100C6000108810BD0C4A034610B51068EFF31084CD
:100C700072B6028913420CD103610721FFF798FE77
:100C800084F31088054B4FF080525A60BFF36F8F8A
:100C900010BD84F31088FBE71405002000ED00E090
:100CA00010B50379048A072B03D0082B0CD000243D
:100CB00008E003891C4005D00C21FFF779FE054BA5
:100CC00001221A60204610BD03899C43EFD1012404
:100CD000F2E700BF1005002038B5054B1D6804463B
:100CE000FFF7C0FF21462846BDE83840FFF7ACBFFC
:100CF0001405002010B5EFF3108472B60389027951
:100D00001943072A038A018104D0082A13D084F3E7
:100D100010880FE01942FAD00C21FFF749FE074B6B
:100D200001221A6084F31088054B4FF080525A60FC
:100D3000BFF36F8F10BD8B43E9D1EDE710050020A5
:100D400000ED00E008B5EFF30583DBB243B9EFF344
:100D500010832BB904480BF0E3FAFFF7B3FEFCE76E
:100D60000149032000F03AF85AE5000008B5714641
:100D700002480CF0CDFBFFF7E5FF00BF6CE500007B
:100D800008B5FFF7D7FA03480BF0CAFAFFF7C0F926
:100D9000002008BD75E500001FB5EFF3108372B6A3
:100DA000074B029300230193064B00930722042371
:100DB0004FF4C0610448FFF7D3FE00F001F900BF13
:100DC0009EE50000810D0000A205002008B50AF094
:100DD000DFFBBDE808400AF036BD704708B50B4B95
:100DE0001A680C4652B901221A60FFF7F6FF08484C
:100DF00021460CF08DFB07480BF092FAEFF31083BD
:100E000072B600F093F809F029FD00BFA40B002092
:100E1000A3E50000BFE5000070B50D4600210446C3
:100E2000FFF714FD0D4E70B9BFF35B8FE288BFF37F
:100E30005B8F338812B21BB29A4204D06DB9012184
:100E40002046FFF703FD3388BFF35B8FE380BFF3DA
:100E50005B8FA3880133A380012070BDA005002013
:100E60000021FFF7D9BF000008B50F4BBFF35B8F20
:100E7000C188BFF35B8F1B8809B21BB2994201D0B6
:100E8000FFF774FF8388002BFAD0013B9BB283806D
:100E900043B9BFF35B8FC380BFF35B8FBDE80840EE
:100EA000FFF70ABD08BD00BFA00500200C4B0D4A8E
:100EB00010B540219A600C4CE02283F82220D977AB
:100EC0000022A0180132302A80F80013F9D11A69E3
:100ED00042F010021A615A6942F400725A6110BD60
:100EE00000ED00E00000000000E100E0064BD3F858
:100EF000942042F00502C3F894205A6A42F48032EA
:100F00005A620020704700BF00ED00E0064B21F060
:100F10001F0142F00102C3F89800C3F89C100020A2
:100F2000C3F8A020704700BF00ED00E008B5EFF364
:100F30000581C1F3080119B1054810390CF0E8FA30
:100F4000044BD3F8F030DB0700D500BE08BD00BF6E
:100F5000CCE5000000ED00E01A4422F0030210B5D9
:100F60004FF0773442F8044C540758BF4FF08834A0
:100F7000A2F104035CBF42F8084CA2F108034FF051
:100F8000807243E902020D4A43F80C2C0020032230
:100F900043E9052043F8201C01220224194643E9B5
:100FA00007246FF0020241F8242D0B2241F8042D92
:100FB000013A032AFAD1A3F1440010BD6D0A0000E2
:100FC0000023E1EE103AEFF3148323F0040383F3DC
:100FD0001488BFF36F8FEFF3108362B6024B4FF0AC
:100FE00080525A60BFF36F8F00ED00E0114910B5D9
:100FF0000C6872B6FFF79EFC62B6A04208BF10BD37
:101000002146BDE8104049B1EFF309821EF0100FF0
:1010100008BF22ED108A22E9F04F0A600068B0E8AC
:10102000F04F1EF0100F08BFB0EC108A80F3098853
:101030007047000014050020024B4FF080525A60A8
:10104000704700BF00ED00E030BF62B6BFF36F8FA6
:1010500072B670470D4B0E4A0E496846904203D84F
:10106000984201D9002102E009468D460121042061
:101070007246024202D1EFF3088001E0EFF30980EB
:101080002DE9F00F6B4600F08FF800BF58010020EB
:10109000000004200002002008B502490620FFF7E6
:1010A0009DFE00BFDBE5000008B502490520FFF703
:1010B00095FE00BFE7E5000008B502490820FFF7EC
:1010C0008DFE00BFFAE5000008B502490920FFF7D0
:1010D00085FE00BF0CE6000008B502490A20FFF7B4
:1010E0007DFE00BF20E6000008B502490B20FFF797
:1010F00075FE00BF32E6000070477047204AD2F804
:10110000883043F4700310B5C2F88830FFF7F4FF5D
:101110006A461C4B1C491C4693422DD31B4B1C4852
:10112000DA1C121AC11E22F00302994288BF002263
:1011300018490BF00FFE184B1848DA1C121AC11E82
:1011400022F00302994288BF002200210BF084FAAA
:1011500024B1134A13490120FFF7D8FEFFF7C6FE5A
:10116000FFF7CBFF00F020F9FFF7F6F80BF068F877
:10117000BDE81040FFF710BE43F8041BCCE700BFEA
:1011800000ED00E000000020FEE7FEE7BC040020C8
:10119000000200200CEF0000BC430020C00400202F
:1011A000080006161F0000202DE9F04F9A46564B06
:1011B0008FB093469A6B03925A6B0492D3F82880AF
:1011C000DA6A05921A6BDB6B0793504B06921A682A
:1011D0004F4B9A4204460E4602D04E480BF0A0F800
:1011E000002E62D04C480BF09BF84C4B4C481988B1
:1011F00009B20CF08DF900252F464A480BF090F803
:10120000414649480CF084F9059948480CF080F9AA
:10121000069947480CF07CF9079946480CF078F994
:1012200018F4004F03D0039943480CF071F918F0FB
:10123000800F03D0049941480CF06AF940480BF044
:101240006FF8404859460CF063F9002E29D11BF085
:10125000080F53D0314B1E8836B23046FFF724FCBE
:101260003146024638480CF053F938480BF058F82C
:10127000394637480CF04CF96946364BC91A03D544
:10128000354849420CF044F920468268C368016938
:101290008C4641698E46AD46514691E8F00F416853
:1012A00000682E490720FFF799FDD4E90230D4E900
:1012B0000679D4E9001208902069099060690A90C3
:1012C00019F4007F26480B91CDE90C230CBF04F1E3
:1012D000200504F124050BF023F8089B0B990093DB
:1012E0002048DDE90C230CF013F9DDE90912CDF8F3
:1012F00000903B461C480CF00BF97EE7217F1B4811
:1013000010390CF005F9B0E700ED00E00000002016
:10131000FEE7FEE740E6000056E60000A0050020DC
:1013200085E600002FE7000038E7000048E70000EE
:1013300058E7000068E7000078E7000088E7000051
:1013400098E700009DE70000AFE70000EEE700002F
:101350001FE800005801002047E8000074E8000082
:1013600099E60000B4E60000F1E60000C8E70000DE
:101370004FF0704393F8E02F062A12D1D3F8E40F10
:1013800010F00F000DD1D3F8E82F02F0F002302A50
:1013900008D1D3F8EC3F13F0F00F0CBF0120002070
:1013A000704700207047000008B5FFF7E1FF30B13B
:1013B000134AD2F8FC3023F08073C2F8FC30FFF7F8
:1013C000D7FF20B14FF080430322C3F8A025FFF7D9
:1013D000CFFF30B14FF080430022C3F80C21C3F897
:1013E000102100F0BDF8074B0122C3F84025FFF79C
:1013F0005DFDFFF7EBFCBDE808400AF0BFB800BF99
:1014000000ED00E000E00140044B1B682BB1044BF1
:101410004FF080525A60BFF36F8F70471005002065
:1014200000ED00E008B50C4B98420CD0B0F1402F15
:101430000BD003F50033984209D003F5404398429E
:1014400007D0FFF793FC002008BD0120FCE7022035
:10145000FAE70320F8E700BF0030004038B50D463A
:101460001446FFF7DFFF0A4B43F82050094B43F8BF
:101470002040094B1B56002B08DB0122590903F0C1
:101480001F0302FA03F3054A42F8213038BD00BFBA
:10149000C80B0020B80B00209CEC000000E100E02D
:1014A000FFF7DCBF70B50E461546FFF7BBFF0446DD
:1014B0000648012100EB8400FFF7C8F9044B43F80C
:1014C0002460044B43F8245070BD00BFA80B0020DB
:1014D000C80B0020B80B002008B5FFF7A3FF034B93
:1014E00003EB8000BDE80840FFF7E6B9A80B002039
:1014F00008B5044A044B10681B689847BDE80840CB
:10150000FFF782BFB80B0020C80B002008B5044AC3
:10151000044B50685B689847BDE80840FFF774BF0C
:10152000B80B0020C80B002008B5044A044B906893
:101530009B689847BDE80840FFF766BFB80B0020DE
:10154000C80B002008B5044A044BD068DB689847F4
:10155000BDE80840FFF758BFB80B0020C80B0020BB
:1015600070470000EFF3108172B6094A1368013327
:10157000012B136009D14FF080420020C2F8000116
:101580001360D2F80031002BFBD081F31088704734
:10159000DC0B0020094A08B513680BB9FFF7E6FB1E
:1015A000EFF3108172B61368013B13601BB94FF063
:1015B000804301225A6081F3108808BDDC0B0020B3
:1015C000084A107868B94FF080430121C3F8181514
:1015D000C3F804019960D3F804110029FBD001235A
:1015E00013707047D80B002008F0C9B9D0E9023059
:1015F0001847000070B50E4615460021102204461B
:101600000BF02AF8024BE560C4E9013670BD00BF5B
:10161000ED1500000346006838B10268904219BF1A
:1016200013680360002119601046704708B500B1C7
:1016300009B9FFF79BFB4B68002BFAD0EFF3108240
:1016400072B60B6833B903686BB11B680B60036833
:1016500019600160406882F3108830B1BDE808402D
:101660000121FFF747BB0960F3E708BD10B5EFF3B1
:10167000108472B6FFF7CEFF84F3108808B1002300
:10168000036010BD2DE9F0410D46044600B109B9D3
:10169000FFF76CFBEFF3108872B6002726467368DD
:1016A000002BF5D03046FFF7B5FF50B90137BD42EA
:1016B00006F10806F3D188F310880120FFF70CFB30
:1016C000E8E788F3108800220260BDE8F081D0E9E5
:1016D0000501FFF7ABBF000001600349C0E9052326
:1016E000C0E90310704700BFCF1600000A4619B9C1
:1016F000D0E90501FFF79ABF011D00680AF0DFB9C4
:101700000146006810B104310AF0C0B9704700000A
:1017100038B58569044685B10A4B186843690133B9
:101720000CD00AF076F923696A68C11A8A4226BF8A
:101730009B181B1A00236B60206138BD83685B68AF
:101740009847F0E7FCED00008369084A10B50446AD
:1017500010682BB15A6821460AF0B1F9206110BD1A
:101760002146BDE810400AF091B900BFFCED000031
:101770008369002210B504465A60A06930B14368FD
:1017800023B90368A36163699847F6E72046BDE87B
:101790001040FFF7D9BF000070B505460C46EFF3C7
:1017A000108672B6FFF7B4FF05F118000368BBB9E5
:1017B00023600460AB69A34206D10F4B62681868CE
:1017C00029460AF07CF9286186F310880B4B1B68C8
:1017D0002BB10B4B4FF080525A60BFF36F8F70BD2F
:1017E00061685A68914203D3891A61601846DDE73F
:1017F000521A23605A60DCE7FCED0000100500205F
:1018000000ED00E070B504460D46EFF3108672B6A9
:10181000FFF77EFFA36904F118022BB92046FFF7FA
:1018200093FF86F3108870BD9D4202D01A461B6854
:10183000F3E72B681360002BF0D05A6869680A44FC
:101840005A60EBE7034B4161C0E90230002383613A
:10185000704700BF7117000038B1054B0A0901F04D
:101860000F019A5C5B5C027043700220704700BFFE
:10187000A0EC000088B1E9B1002340EA0102D207E0
:101880000DD5C2070FD5CA070FD5814222BF0A4620
:1018900001461046421A0AD199400846704740084E
:1018A00049080133E9E74008EBE74A0801460846E2
:1018B0001146E8E70146F0E72DE9F84306460D46F4
:1018C00014460AB9FFF752FA11462846FFF7D2FF2D
:1018D000A042F7D8A84239D8B5FBF0F1B4FBF0F23A
:1018E0000025B1FA81F44FF0004EC4F120002EFA29
:1018F00004FEC4F15F0C2B462C462F46DB1847EB49
:10190000070811EA0E0F18BF43F00103934278F164
:10191000000947464FEA44044FEA5E0E0FD39B1A74
:1019200068F1000744F00104002C0BDA3B4300D0BF
:101930000134C0F1200333713460BDE8F883002C1A
:10194000F2D1013801356545D8D1EFE700200446D2
:10195000EFE700000D4A10B5D2F83C4100230360C8
:101960001CB1D2F84441A14207D0D2F860315BB13A
:10197000D2F86831994207D101235B4203F0240376
:1019800003F59E731A44026010BD00BF08020020D8
:10199000F8B5054616460C4669B108B9FFF7E6F9F1
:1019A00003688B42FAD8426803EB02129142F5D2E7
:1019B000CC1A241101346B68A34201D800200AE03C
:1019C0002868314600EB0410270108F07AF8002857
:1019D000F0D128683844F8BDF0B593B015462F23F0
:1019E000009306460C46402302AA0B21284608F025
:1019F0006BF900281BDD2B685B7803F01F03013BAC
:101A000001259D400023ADB223600227216802AA70
:101A10003046FFF7BDFF206010B9384613B0F0BD67
:101A200083881D424FF00107F0D00027F5E7022719
:101A3000F3E7000070B5164CA36805460E4683B167
:101A4000E36801330BD104F110035B88B34208D182
:101A50001048294609F0DAFE18B1002314E0236982
:101A6000F3E7236F0BB9002070BD636F013314BF20
:101A7000A36F094B5B88B342F5D10848294609F0AA
:101A8000C5FE0028EFD068230833E018ECE700BF5C
:101A90000802002024020020800200208C02002086
:101AA0001FB514461A460378012B0AD10023CDE94D
:101AB00001314068069B039401A906F0C5FE04B0FD
:101AC00010BD4FF0FF30FAE70A4B10B50446186816
:101AD000436901330AD009F09CFF20F07F42626520
:101AE00020460621BDE8104008F02FBA83685B68E5
:101AF0009847F2E7FCED00001FB54268002A034654
:101B000011DB82687AB11068516801AC03C4906837
:101B10000021117001AA044603CA4FF0FF329860F9
:101B2000D9601C615A6004B010BD30B50368013B38
:101B3000012B97B004461CD8C56A042303609DB1ED
:101B4000502200210DEB03000AF086FD4FF0FF3319
:101B500015936368013314BFA36804F1080300936D
:101B6000002269462046A8472046FFF7C5FF00230C
:101B7000236017B030BD43685A1C012A13B50446D0
:101B800005D8204602B0BDE81040FFF7CEBF013BAC
:101B9000436040F6B831C3F104034FF4FA60994052
:101BA000984009F037FD014604F13400FFF79EFD2F
:101BB0002368022B0BD000230093D4E9021204F116
:101BC000140304F16000FFF76BFF0028D9DD02B0B9
:101BD00010BDF8B504682568002306460F4603606B
:101BE0002DB1204609F012FE4FF0FF3538B9A36938
:101BF00043B118343946204609F008FE00B134607C
:101C00002846F8BD0125FBE7014B0360FFF7E1BF64
:101C1000E402002010B586B01222002101A80AF0CB
:101C20001BFD0423009341F23363ADF8163000230B
:101C30000E481A46694606F0FFFC002810DB0C4BE4
:101C40000C4C1A6809480023C4E9003221460A4AAC
:101C500009F0C2FD01212046FFF714FD034610B92B
:101C6000002006B010BD5B689847F3E7E00B00204A
:101C700014050020280D0020252100002DE9F8433F
:101C8000184C06460F46154604F1D009A368FBB16F
:101C9000E368013314BF216904F1100104F108085D
:101CA0000B7803F00F03AB4212D12A4604313846B9
:101CB0000BF0F0FB60B9314604F11C0009F0A6FD01
:101CC00058B9E369042B0BD194F82030FF2B04D0D2
:101CD00068344C45DAD14FF000084046BDE8F8833F
:101CE000FFF744F8080200202DE9F74F994600233A
:101CF000CDE9003305461446036011B16846FFF78D
:101D000083FF2CB1214B0193214601A8FFF761FF0E
:101D1000DFF87C80DDE900AB00244FF0FF3647465A
:101D2000D8F83C312BB9264608F12408BCB9012467
:101D3000F6E7534502D0BAF1000FF5D1D8F840319B
:101D40005B4502D0BBF1000FEED1B9F1000F0AD113
:101D5000644204F0240404F59E743C442C60304634
:101D600003B0BDE8F08FD9F80010D8F854210B78F3
:101D700003F00F039A42D7D1002AD5D0043108F5D9
:101D8000A4700BF087FB0028CED1E1E714030020FC
:101D9000080200207FB51B4EB6F9004074BB1A4BF9
:101DA0001A481B4DCDE901431A4B009306222346E6
:101DB0004FF48B61FEF7D4FE30802846D0222146B6
:101DC00040F8084B0AF048FC3022214605F1DC00BF
:101DD0000AF042FC4822214605F59E700AF03CFCC0
:101DE0008022214605F5C2700AF036FC09F0EEFBB0
:101DF000C5F8D800B6F9000004B070BD6FF010004F
:101E0000FAE700BF8811002087E80000300D0020AD
:101E100008020020151C0000064BBFF35B8F53E83F
:101E2000000F421C43E800210029F8D1BFF35B8F6B
:101E300080B27047E00200202DE9FF47DDE90C6920
:101E400005460F4690461C4626B133782F2B01D00D
:101E5000FEF78CFF2F60FFF7DFFF824634B309F0F7
:101E6000B5FBCDE9004AADF80C00022303AA01211D
:101E7000286807F05FFF4246044603463946284675
:101E800007F0BDFF002C0CDD5EB1B9F1000F08D0EA
:101E90002F23009332464B460B21284608F025F8A5
:101EA000044604EAE47004B0BDE8F087CDE90040E0
:101EB000234622462146DBE72DE9F04F8FB0057817
:101EC00003930DF1140B89460021189B0591804660
:101ED000CBF80410C5F3011592460AB9FEF746FF88
:101EE0009DF86820012A4ED801228DF814206F4AEF
:101EF000069213B9002D40F0CF806D4E189301214A
:101F00003046FEF7A3FCB768189B3FB1326F22B191
:101F10003046FEF7D1FC002637E00127682202FB9D
:101F200007627C42536304F06804199B93630221A7
:101F3000916004F11C02534632440AF1180C1868EF
:101F40005968164603C6083363453246F7D19BE805
:101F50000300574B682607FB06621A4482E8030019
:101F600045B1012D00F08580682202FB0732002573
:101F7000956027E07E43B9F1800F1E4409D91846C9
:101F8000B560FEF799FC6FF0150630460FB0BDE85E
:101F9000F08F93F884213561002AE5D103F5C270F2
:101FA0004A46414630610AF0D5FE042240F6B83177
:101FB0004FF4FA60F260C6F8149009F02BFB01228E
:101FC0000546B2603A48FEF777FC394B682202FBBF
:101FD0000737BA68002A9ED008341C4401238DF8C4
:101FE0001430324B0693ACB104F13406002D56D0B8
:101FF00004F150072F4922463846FFF7FBFA2E49D5
:102000002E4A096830463B46FFF766FB29463046B4
:10201000FFF76CFB07AE1C22002130460AF01CFBC8
:10202000039B6BB1374603F1180C186859683A46A0
:1020300003C2083363451746F7D108238DF83430BF
:10204000009653464A4641465846FFF729FD061E6C
:102050009BDC4CB12046FFF74FFD1DB104F134006D
:10206000FFF74EFB0023236016F1800F7FF453AF80
:102070008BE706FB07364FF0FF32F260D8F800001E
:10208000D8F8041004F110021A4403C2D8F808006A
:10209000106041F2883595E71D461C469EE71C22DC
:1020A000294630460AF0D8FAB4E700BFE00B00201A
:1020B00008020020771B0000FCED0000280D002026
:1020C000F7B50E46002719461546134600973246C7
:1020D000044607F04AFE00280DDD636DE7810644E3
:1020E0002D1A6660A58113B1002003B0F0BD204613
:1020F000FFF7EAFCF8E74FF0FF30F6E710B50B46C4
:10210000802207490446FFF7DBFF014620B920463D
:10211000BDE8104007F028BF4FF0FF3010BD00BFF2
:10212000A80C00202DE9F047CA06B8B081464AD570
:10213000002514AF1C22294638460395A84C0AF006
:102140008BFA01238DF868302E460EAB0093019771
:10215000002303AA02A9484606F0DAFAB0F1000803
:1021600031DB0FD008EB0503802B88BFC5F1800859
:1021700004EB05000299424688BF012645440AF057
:10218000E9FDE2E7BC46BCE80F001BAC0FC4082326
:102190009CE803008DF88430149B042B84E8030032
:1021A00014D19DF854308E49CDF824901BACFF2BF0
:1021B00008BF44462A46012322A88DF8203007F0A4
:1021C000E1FC002804DA38B0BDE8F087FEF7CEFD68
:1021D000229A137803F03003302B56D151880EA881
:1021E000FFF728FC054628B13430FFF789FA284666
:1021F000FFF79BFC229B0EA906A8B3F80280FFF70D
:1022000003FD069D002D40D07648D0F83C1198FA89
:1022100098F2002392B2079329B1A94203D1B0F8F2
:102220005011914209D0D0F8601169B1A9420BD187
:10223000B0F87431934207D101235B4203F02403C9
:1022400003F59E7303440793DDF81C80B8F1000F7B
:102250001BD04FF000094B46D8F80420C8F8009076
:1022600049460AA8FFF740FD0A9B1BB9D8F804307D
:10227000C3F8009000231A46C8F80490294607A81E
:10228000FFF732FD079B03B92B6022994A784FEA8A
:102290005218B8F1020F20D01AD8B8F1000F92D11D
:1022A0000B78002A6ED113F0300FC3F301154ED115
:1022B0000321229A137823F0300343EA011323F019
:1022C0000F030021137051700EAB009404226BE1D8
:1022D000A8F10403012B3FF676AF11F8042B0EA8EA
:1022E00002F00F02FFF7CAFC229B0546002800F00F
:1022F00062811A7812F0300FC2F3011300F0598195
:10230000013B012B3FF65FAF4FF0FF37AB6C1BB1CA
:1023100005F13400FFF7F4F9002E0CBF0323062368
:102320002B60EB6A379E1BB10EAA22A9284698475C
:102330002846FFF7E1FB013602D0B8F1020F01D0C9
:1023400000232B6001373FF43EAF0221B1E7022D9D
:102350007FF439AF49880EA8FFF76CFB04460028CC
:102360003FF431AF436801333FF42DAFC36A0560DA
:10237000002B7FF428AF3430FFF7C2F92046FFF777
:10238000D4FB20E79B063FF51EAF26B18D2122A886
:10239000FFF7B4FE7CE0DFF84C80CDE90466CDE9C0
:1023A0000666D8F804504FF0020955B9B9F1010F8B
:1023B0003CD0B9F1020F3BD0B9F1000F17D0A021EA
:1023C000E5E76B690A9622AA0AA9284698470228D7
:1023D00001D12D69E9E7012806D12D698146E4E79D
:1023E000A80C0020080200200028E8D10A9D2946F8
:1023F00007A8FFF7AFFADDF8DC90B9F1000F40F065
:102400009F8022AB4A460EA906A8FFF76DFCDDE9C6
:10241000063A0646BAF1000F3ED05BB19A4515D098
:10242000CDF818904FF0FF3337930FE08521AEE7DA
:102430008421ACE79AF81C30012B2FD1DAF8001078
:102440000EA809F0E3F948B3CDF818A0069B8BB1AC
:10245000229F9D603A78DDE9080102F00F0203F146
:102460001C069A6186E8030022B1391D03F10C00B5
:102470000AF070FC0EABCDE90B3401230A950D93E5
:10248000AD6852490AAB802222A8A847002896DBF3
:1024900000283FF498AE84E0002BD7D1379B01335E
:1024A000D4D0002EBEDBBAF1000FBBD10EA904A818
:1024B000FFF7AAFB049B33B90028A1BF182303FB35
:1024C0000080DC300490424B0593214605A8FFF7BD
:1024D00080FB059B3BB90028A1BF182303FB0083A9
:1024E00003F586730593049A002A9BD0DDF814C087
:1024F000BCF1000F96D00DF1380996464B4603CB40
:10250000BB42CEF80000CEF8041099460EF1080E3A
:10251000F4D1A646674604F11809734603CB4B4530
:10252000386079609E4607F10807F6D1242373438B
:1025300003F59E7141444344C3E94F2C069185E75E
:10254000B9F1010F27D122AB00220EA906A8FFF78F
:10255000CBFB069FDFB100233B601A460EA90AA8F9
:10256000FFF7C2FB0A9E36B90EA904A8FFF74CFB81
:10257000049B03B11E60002319467A680AA8FFF77E
:10258000B3FB0A9B0BB97A68136000237B604FF0A2
:10259000FF3337936EE7B9F1FF3F3FF46BAF4FF076
:1025A000FF3000940EAB0246084908A8FFF778FAFE
:1025B00009E60227AAE61B7813F0300F3FF478AE45
:1025C000379B01337FF474AEFDE500BFA80C0020FB
:1025D00014030020282A2DE9FF4105460F4601D0AB
:1025E000FEF7C4FB164B01925C680123ADF80C307A
:1025F00000261CB9304604B0BDE8F081E36823B181
:10260000002362680293934201D32469F1E72068B2
:10261000D4F80C8000EB031001AB75B1BA1BA919FB
:10262000C0470028F1DDBDF80C3023F00103ADF800
:102630000C30029B06440133E3E72A462946EFE7C4
:1026400008020020F8B504461E464523FFF738FD72
:1026500028220C21204607F078FC0121204607F0B3
:1026600083FC054630466768A48907F092FC28225F
:10267000C3B221463846FFF7ADFF2844F8BDF8B590
:10268000048906460F46154600200DB1B54218D103
:1026900032897168002306F0F0FE04F13A03034426
:1026A000B3F5803F24BF013080B2796820443A30CE
:1026B00000232022083180B206F0DFFEC04380B242
:1026C000F8BD23462A89696806F0D7FEAB682D68F5
:1026D00023449CB2D9E72DE9F8430E4681460321F5
:1026E000304603F09DFD044608B9FEF73FFB02218A
:1026F00003F096FD07460028F7D0A368032B05D802
:1027000030460021BDE8F84303F092BD0146324651
:102710002046D4F80480FFF7B2FF0028F0D198F8E3
:102720000050892D0FD8842D11D8802D16D098F8FF
:102730000010334640F20122032002F077FA00280D
:10274000DED0BDE8F8836335EDB2012DEFD8A36884
:1027500079684246484601F081FCE8E723897968B8
:102760004246484600F048F8E1E738B50D461446C1
:1027700000211A46032303F09DFE28B1436800227E
:102780001D705C709A70DA7038BD10B5044660B187
:1027900090F91030032B0BD10268FFF770FF50B196
:1027A000636840BA5880002010BD6FF00D00FBE751
:1027B0006FF04C00F8E76FF00100F5E72DE9F0410C
:1027C000DDF81880154600220E461F46014608F126
:1027D00008031046FFF7C9FF044650B1406876BAB7
:1027E0006DBA8680C58027B14246394608300AF066
:1027F000B1FA2046BDE8F08173B506460C46002AC2
:102800003ED0072B3CD99188D088083B40BA49BAC2
:10281000009389B202F1080382B28120FFF7CEFF54
:10282000054668B3237EFF2B04F1080214BF04F1B0
:102830001801002100F055FB044610B90146284656
:1028400009E000231A461946184603F007FA054620
:1028500030B90146204602B0BDE8704003F0E8BC44
:1028600043680EB1B6F966615E8006492C602B465E
:1028700040F20222022002F0D9F901460028DED0FF
:1028800002B070BD0000FFFF002103F0D1BC0000CA
:1028900008B5044910220AF0FDFDB0FA80F04009A5
:1028A00008BD00BF26ED000010B50A490822044605
:1028B0000AF0F0FD48B12378FF2B08D1607800F0D2
:1028C0000F00831E5842584110BD0120FCE7002034
:1028D000FAE700BF16ED000070B51E46CBB200212E
:1028E00015460246084603F0B9F9044620B92846C1
:1028F000FFF7CAFF204670BD43681E710560F9E707
:1029000038B50B680C46054608B9FEF72FFA4A6839
:10291000B0F86611518000224BB9B5F8A03093424F
:1029200009D220467A21BDE8384003F081BC99687D
:102930001B680A44F0E7284602F026FB60B10B4909
:10294000234640F20222012002F070F968B92046C5
:10295000BDE83840FFF798BFB5F9660140F20222A2
:10296000214602F058F90028F1DD38BD0000FFFFD4
:102970002DE9F8430E46D1E9001405460A46002326
:102980002ABB5BBAA380A379FF2B02D119BB3B23DF
:10299000A371E37913B94DBB4023E37104F1080738
:1029A0003E49102238460AF075FD04F118098046A8
:1029B00078BB4846FFF76CFF0246D0B11022414673
:1029C000384609F049FE0123E37534464FE090682C
:1029D00012680344D4E70B7C023BDBB2022BD6D84F
:1029E0002F4AD35CA371FF2BD3D1D0E795F8643184
:1029F000D3E74946284602F0F7FC03460028E4D016
:102A000000F1100253F8041B47F8041B9342F9D15C
:102A1000DBE7284602F0DDFA4846FFF739FF98B1B8
:102A20000024284602F0DCFA002CCED003213046E8
:102A300003F0F6FB28B143681B7803F0FD03852BF8
:102A4000C3D06FF07C0022E03946284602F0B8FC83
:102A50000028E5DB2844047D04F01F04103C18BF67
:102A60000124DEE703F042FD98B12060044694F9AA
:102A70001030022B02D120680028F3D131462046C5
:102A800003F0BDFB002807DA831C08BF0020BDE867
:102A9000F8836FF00B00FAE70020F8E736ED00004E
:102AA000C0EC000080B590B01022002105A809F00C
:102AB000D3FDAD4B0693AD4BAD481B88ADF8203030
:102AC0000821FDF7B3FE05A9022003F03FFBA94F43
:102AD00040F20523ADF80E3001A8FDF7A4FEBDF8C5
:102AE0000620B2F5017F2CD840F202239A4200F270
:102AF000B48140F201218A4239D09A42ECD1029E3F
:102B000096F91030013340F0EF8074688CB3B4F95B
:102B1000020002F053FA0546304694F8048003F0B0
:102B2000E5FC08F03F08014600283DD003F0AAFB71
:102B3000064696F91030022B00F0DA801621304656
:102B40004DE0A2F59F43403B9BB2152BC4D88A4968
:102B5000012098400140002940F08781152B00F0AA
:102B60008981142BB8D1029801F024F9B4E7029EB0
:102B70000EB9FEF7FBF84FF0FF31304603F050FB83
:102B8000054638B14368002BF3D0B3F9020002F0D8
:102B900015FA054673683BB1B268272A04D91B7839
:102BA00003F0F003602B01D030460EE0304603F016
:102BB0009DFC04460028F7D00222282103F0B8FC2F
:102BC00000232374034618B92046FFF75DFE83E710
:102BD000D0F8048098F8072022B97421204603F029
:102BE00027FB79E7B8F8041098F806608AB249BA6A
:102BF00089B20AB93B2EE7D19C42A2685AD08A42D8
:102C000057D9204603F0FCFC08F118084046FFF7AE
:102C10003FFE70B94046FFF747FE08B1002D58D17E
:102C2000404602F0BDFC0546B0FA80F0400900289D
:102C3000CAD1292E51D03A2E51D0A6F111025342B9
:102C400053419B0023743146022003F0C0FA002850
:102C500001DC3A2E45D10121204603F0A1FB4FF0C3
:102C60000108414994F91000234640F2012201F085
:102C7000DDFF10B92046FFF707FEB8F1000F10D0B6
:102C80003A2E03D10121204603F08AFB234640F26D
:102C900001223146022001F0C9FF10B92046FFF79A
:102CA000F3FD3A2E7FF418AF21462846FFF713FDB7
:102CB00012E7234600209A68104493F91020022A54
:102CC00002D01B68002BF6D1283888429CD21621EE
:102CD00084E7404602F064FCA6E70223B2E7032340
:102CE000B0E74FF00008BCE74FF00008454620E78A
:102CF00070681022394618300AF0CCFB00283FF4E7
:102D00001DAF304603F0F2FB044600283FF44CAF01
:102D10004668337EFF2B54D185BB02F042F9002870
:102D20003FF452AF411E204603F03AFB48F0400802
:102D3000284602F034F9054600283FF4CDAE20467F
:102D400003F0D4FB064600283FF43EAF0146284678
:102D5000FFF70EFE002827DAB4423FF435AF3046C5
:102D6000FFF792FD30E700BF0000FFFFA005002045
:102D70008C11002036ED0000EFFB060001462846CE
:102D8000FFF7F6FD0028FFF61FAF002148F04003D3
:102D900022460846FFF7A0FD014600283FF49CAEFE
:102DA0002846FFF7ADFD97E6002108464346324628
:102DB000FFF792FD01460028BAD02846FFF7A0FD94
:102DC000B6E71836304602F0EBFB8542814606D066
:102DD0003046FFF769FD002818BF4FF00009304664
:102DE000FFF756FD10B9B9F1000F17D0214648463C
:102DF000FFF7BEFD0028FFF6E7AE204603F05AFAC3
:102E000000287FF4E1AE1D49234640F20122022052
:102E100001F00CFF00287FF45FAED5E609AB224637
:102E20002946304601F038F80028FFF655AEBDF8C7
:102E30003C00C0F3041002F0C1F8054600283FF43E
:102E400098AE2146FFF794FD0028FFF6BDAE9DF831
:102E50003E10434622460DA89CE76FF0850303A968
:102E600001A80493FDF7B6FC36E60298114601F07E
:102E7000B3FB31E6029800F0C7FF2DE60000FFFF2C
:102E80001FB50A4CB4F900305BB9094A0948CDE9CD
:102E90000132094A00924FF470710422FDF760FE7E
:102EA0002080B4F9000004B010BD00BF8A110020DA
:102EB0009FE80000CC110020A52A000008B50221DF
:102EC00003F0AEF960B143680BB9FDF74FFF8268BC
:102ED000272AFAD91A7802F0F002602AF5D11846AA
:102EE00008BDF8B50C46174602232822002103F03E
:102EF000E1FA064608B3456805F10800FCB1214631
:102F000004F1100351F8042B40F8042B9942F9D135
:102F100005F11800C7B1394607F1100351F8042B29
:102F200040F8042B9942F9D1602200232A70FF2235
:102F30006B70AB70EB70AA71EB713046F8BD10226C
:102F4000214609F089FBE3E71022394609F084FBAA
:102F5000012385F82730E7E7F8B5044615460E4605
:102F600009B90020F8BDD1F8A470FA04F9D51949BF
:102F700008220AF08FFA38B12378FF2BF1D1637859
:102F800003F00F03022BECD1FB0701D4FDF7EEFE9B
:102F900096F8650105F1100204F1080106F08EFCB7
:102FA00010F0FF00DDD0A8762B4604F1100254F893
:102FB000041B43F8041B9442F9D1B6F866311B0197
:102FC00003F4F87343F4806343F006032B8301207A
:102FD000C8E700BF16ED00002DE9F843054602F0F2
:102FE000DFFA0446002859D001F0F3FFB4F9661166
:102FF000002000F065FB002843D00368B4F9661197
:103000009A8EC2F30412914201D0FDF7AFFE043351
:1030100018462A46214600F0FCF82946204602F0D0
:10302000CFF90028F1DB21180B7D03F01F02102AD5
:1030300031D003F00702013A012A27D80133D4F82E
:1030400098800B75050105F17806154B1548B3F905
:10305000009026443146FEF7D5FB05F116076019AE
:103060000023C0E91E38274444F6CF73A0F882300D
:10307000C0F88470A0F8809031460A48FEF78CFBB7
:1030800004E084F89C00204601F060FA2046BDE888
:10309000F84301F0A5BF4EF66028D3E7BDE8F883FA
:1030A0008A1100208C1500202DE9F3470D461F469C
:1030B000044608B9FDF75AFED0F8A430D90403D469
:1030C000042002B0BDE8F08779780229F8D112789F
:1030D000882AF5D1DB07F3D590F8C0206B4600F1C4
:1030E000B80102F02DFD0828EAD1DDE90002B96837
:1030F000FB689A4208BF8842E2D1BB78012B41D0DD
:10310000022B45D0CBBB05F118012046FE8802F00A
:1031100057F900281FFA86F8D2DBB8F5807F2ED049
:1031200076BAB6B24EF660235E43A6F56A46603EB6
:1031300022180501137D254823F01F0343F01003D7
:1031400005F178081375A044214B4146B3F900A05E
:1031500005F11609FEF756FB60190023C0E91E367B
:10316000A14444F6CF73A0F88230C0F88490A0F850
:1031700080A041461548FEF70FFBB878A1E747F25B
:103180003056D5E705F11801204602F0D5FAF4E7EC
:10319000B4F9661105F1080000F092FA064600281D
:1031A00088D000F055FA002000F074FA28B984F8AD
:1031B0009C00204601F0CAF9DFE73368002B3FF49A
:1031C00079AF05F11800FFF707FFD6E78C1500204F
:1031D0008A11002013B58A784878412A34BF022327
:1031E0000323984212D1CC88C87864BAC0F3001384
:1031F000A4B200930831234600F00F0003F028FC2E
:103200004EF6602303FB04F002B010BD4FF0FF3018
:10321000FAE7F0B5074685B015461E460C4609B9D3
:10322000FDF7A4FDB1F96611002000F049FA45B39D
:10323000D4F8A430DA0424D518B30068B4F96621B0
:10324000838EC3F304139A421BD13146043006F037
:1032500057F9B0B1D4F8A430DB0710D594F8C020EA
:1032600002AB04F1B801204602F06AFC082806D13E
:10327000002302AA0F21184605F049F810B905B03D
:10328000F0BD0020009033462A462146384601F022
:1032900073FBF4E72DE9F04117469846054608B957
:1032A000FDF764FD01F10806B0F96611304600F043
:1032B000AFF8044628B190F8363013F0010F08BF7C
:1032C0000024D5F8A430DA07EAD595F8650141461F
:1032D00006F00AFB00281ADB74B9B5F9661103225F
:1032E000304600F0E5F8044688B13B78872B02BFF2
:1032F000838E23F00803838694F83630DB0706D5E7
:103300003B78862B05D1A38E43F00803A386BDE846
:10331000F081872BFBD0A38E23F00803F6E730F96A
:10332000081FFDF7FBB9000008B5044910220AF098
:10333000B1F8B0FA80F0400908BD00BF36ED0000DA
:10334000054A106838B10368984219BF1A680260CC
:1033500000211160184670477C17002090F8361045
:1033600011B9382209F078B9704770B50446104693
:103370000E461546FFF7F2FF4CB123462A1D04F115
:10338000100153F8040B42F8040B8B42F9D11F2EA5
:1033900001D9FDF7EBFCAB8E23F4F87343EA061179
:1033A000A98670BD01490248FEF74CBA1F330000E0
:1033B0008C1500200148FDF753BD00BFA815002063
:1033C0000148FDF751BD00BFA815002070B50F4C96
:1033D000A38EC3F30413994205460E460FD150B98C
:1033E000201DFFF7A1FF50B12846084A3146FFF7DC
:1033F000BCFF064870BD211D06F082F8F3E794F883
:103400003630002BF0D00020F4E700BF4417002036
:1034100008B50B46014638B9FDF7A8FC0A4806F086
:103420006FF878B109480EE0084A92F8360048B1C2
:10343000928E12F4F87FC2F30410EFD0002BEDD07F
:103440008342EBD0002008BD48170020441700201D
:1034500010B590F8363023F0010300F1240180F814
:10346000363004461048FEF7CDF910490A6822B1FB
:1034700013689C4206D1FFF763FF2046BDE8104069
:10348000FFF76CBF13461B681868844202D09A424B
:10349000F9D1F2E7002BF0D022681A600A68944252
:1034A00008BF0B60E9E700BF8C1500207C170020E7
:1034B0002DE9F8438846074608B9FDF757FC02F0A6
:1034C00007052B1F022BF8D9FFF780FF002839D101
:1034D000FFF736FF814660B3284E044694F8363035
:1034E000012B29D8A38E03F4C0632BBB2046FFF722
:1034F000AFFF384622464146FFF737FFA38E2B43E6
:10350000A386012384F8363020463368B3B11B68A4
:10351000236033681C60346060B9FFF711FF814598
:103520000446DBD133685BB11B6803603368186005
:1035300034600020BDE8F8830020E6E72460EAE775
:103540002060F5E790F83630DA0708D4828E22F052
:103550000702154343F00103858680F8363003687F
:10356000002BE7D1054B1A682AB1126802601A686D
:1035700010601860DEE70060FBE700BF7C170020EA
:1035800070B50C46054600B109B9FDF7EFFB0A46D8
:10359000031D00F1140153F8040B42F8040B8B4295
:1035A000F9D1A88E2083C0F3041001F007FD104963
:1035B00006460822204609F06DFF38B12378FF2B1C
:1035C000E3D1637803F00F03022BDED1002EDCD0B1
:1035D000D6F8A430DB0705F10C0104F11002D4D5B4
:1035E00096F8650106F06AF90028A8BFA07670BDBC
:1035F00016ED0000F8B5154E346807460D4694B137
:10360000A38EC3F3041399420BD1211D05F078FF5B
:1036100038B194F8363043F0080384F836300B485C
:10362000F8BD0020FCE7FFF7D1FE0246306000281D
:10363000F7D029463846FFF798FE326892F83630C0
:1036400043F0080382F83630E9E700BFB0150020E8
:10365000036810B504468BB1011D0C48FEF7D2F883
:10366000206890F8363023F0080380F83630FFF7F2
:1036700075FE14220021204608F0EEFF044B1A6864
:10368000A24204BF00221A6010BD00BF8C150020AA
:103690008017002028B11430074A904203D300203D
:1036A00070470648F8E703681BB193F83630002BE3
:1036B000F6D11430F1E700BFC4150020B01500208A
:1036C00010B520B10D4B1C682CB900200FE000296B
:1036D000F8D1FDF74BFB21B1A38EC3F3041399423C
:1036E000F3D128B994F836301B07F2D5034810BD42
:1036F000211D05F005FF0028E7D0F3E7B0150020F5
:1037000010B5124C2168B1B10B689B8E03F0070312
:10371000013B012B0DD80020FFF7BCFF68B908461C
:10372000FFF7B8FF01B110B90020FFF7B3FF206029
:103730000146084610BD0846EEE703689B8E03F07D
:103740000703013B012BF2D8E6E700BF80170020FA
:1037500038B50C46054610B1036803B109B9FDF749
:1037600005FB10220021204608F076FF114A12685E
:103770000023AA4284F8203008D12B689B8E03F0E6
:103780000703013B012B94BF0023012384F8213060
:103790002B6804F110011A1D143352F8040B41F880
:1037A000040B9A42F9D12B689B8EC3F304136384F4
:1037B00038BD00BF801700202DE9F84F0546894627
:1037C0001F4690463AB11046FFF7AEFD044610B9C9
:1037D0007B1E7F2B01D9FDF7C9FADFF8E4B08246E2
:1037E0009BF82420DBF80060DAB9002C08BF5C46A7
:1037F0000AF1010ABAF1080F0BF1300BF0D174B1E4
:103800002368002B45D149462846FFF7DFFD0146D6
:10381000206000283DD13022204608F01DFF002402
:103820002BE09BF825209742E2D141460BF10400A2
:1038300005F07CFE8742DBD8002ECCD0B28EC2F3DE
:1038400004129145D4D104363046FFF76DFDB8B16E
:103850003DB105F1100255F8041B46F8041B9542D2
:10386000F9D1302202FB0AF2154B995891F8362013
:1038700042F0400281F836205C462046BDE8F88FD1
:10388000002DB5D03146284605F03AFE0028AFD0CD
:10389000DFE7226849462846FFF767FD2046FFB26A
:1038A00050F8042B92F8363043F0400382F836305B
:1038B00041463A4605F059FE84F82570DDE700BF21
:1038C000C415002010B590F824300446FBB90068F8
:1038D000D0B920463022BDE81040002108F0BCBE1F
:1038E0003033013A04D09C42FAD019688842F7D1AB
:1038F000074A9342EDD390F8363023F0400380F826
:103900003630FFF72BFDE4E7024B0922E9E710BD53
:1039100044170020C415002028B13030064B9842CF
:1039200003D3002070470548F8E790F82420002AC8
:10393000F8D13030F3E700BF44170020C415002051
:1039400038B50B4610B1026802B109B9FDF70EFA9D
:10395000021D00F1140452F8045B41F8045BA2421A
:10396000F9D190F8252083F82020002183F8211038
:103970000268948EC4F304145C8490F82400042834
:1039800003F1100004D1BDE83840102208F064BEF5
:10399000131D143253F8041B40F8041B9342F9D151
:1039A00038BD00002DE9F8431646074600B10AB9B4
:1039B000FDF7DCF9184D0024A04605F5C07995F80F
:1039C00024305BB13946281D05F0B0FD404505D9CE
:1039D00095F8253083429CBF80462C4630354D45B6
:1039E000EDD134B194F82430042B0FD1E38CDB07F4
:1039F0000CD4FFF785FE18B944B96FF0710003E0ED
:103A00003146FFF7A5FE0020BDE8F8833146204689
:103A1000FFF796FFF7E700BFC415002010B5044676
:103A200000F114010648FDF7EDFE94F8243023F070
:103A3000040384F824302046BDE81040FFF742BF5D
:103A40008C1500202DE9F843044600F114011748B5
:103A5000FDF7D8FE2368988EC0F3041001F0AEFA8B
:103A60000546D8B100F1160604F10409494630466E
:103A700094F8257005F05AFD05F12608874249465D
:103A8000404694BF94F82570002605F04FFD87420C
:103A900009D91EB13146284601F04EFE2046BDE848
:103AA000F843FFF7BBBF4646F4E700BF8C15002084
:103AB0002DE9F8431F4613460A4601460020089E9A
:103AC000FFF77AFE044600283DD090F82430B74234
:103AD00043F0040380F8243001D2FDF747F907EAE8
:103AE0000605681C36D01D4B1868436901332DD07C
:103AF00007F08FFF711C05461CD0194B1948B3F90C
:103B0000009004F114084146FDF77CFE0023C4E94F
:103B1000053644F6CC731348E3832462A4F81C9062
:103B20004146FDF739FEB21C04D07319013308BFBA
:103B300001362E44FB1C0FD87B19013308BF013717
:103B40003D44C4E90A562046BDE8F88383685B68B3
:103B50009847CFE72E46F4E73D46F2E7FCED00003C
:103B60008A1100208C15002010B50A4B9B69024673
:103B7000002013B94FF0FF3010BD5C6820445C8911
:103B80008C4204D1002AF7D0DC689442F4D01B6840
:103B9000EFE700BF8C150020F0B5044685B00E4657
:103BA000174600211022684608F056FDD4F8A430CC
:103BB000D90406D4B4F96611234809F0A9FC05B06C
:103BC000F0BDDA07FBD594F8C02002AB04F1B801D0
:103BD000204602F033F80028F1DB3A4631466846C9
:103BE00005F0C3FC6946204601F0EAFB051E29DA10
:103BF00007233A466946204601F046FB051EDEDBF8
:103C00000127D4F8A430DB04D9D510490822304666
:103C100009F040FC38B13378FF2B0BD1737803F0F7
:103C20000F03022B06D16219137D23F01F0343F00B
:103C300010031375002FC2D004EB05101630FFF7E8
:103C4000CBF9BCE70027DCE7A4E8000016ED000094
:103C500010B50A490822044609F01CFC48B1237833
:103C6000FF2B08D1607800F00F00831E58425841A6
:103C700010BD0120FCE70020FAE700BF16ED0000B0
:103C8000002102F0D5BA08B5FFF7C2FB28B190F8C1
:103C9000363013F0010F08BF002008BDF8B5044608
:103CA000174606981A460D46A9B191F865310A2BB8
:103CB00011D1134604F1100154F8040B43F8040B1E
:103CC0008C42F9D1B5F866311B011383002393763A
:103CD00001263046F8BD78B929462046FFF73CF961
:103CE00006460028F4D1D5F8A41011F4805107D06D
:103CF0003846FFF7C5FFECE71146FFF741FCE7E761
:103D00000DB1B5F9661102222046FFF7D1FB00285C
:103D1000EED0002FDDD07621384602F089FAD8E7C0
:103D200038B505685DB195F836301B0707D5FFF744
:103D30008FFC00242046FFF7EFFD044600B938BD94
:103D400023689D42F6D1FFF7BDFDF3E72DE9F84367
:103D5000DFF834801F460B4B144605460E4640469E
:103D60001146B3F90090FDF74DFD0023C4E900377B
:103D70006681E560A4F8089021464046BDE8F84316
:103D8000FDF70ABD8A1100208C15002038B5084CBB
:103D9000FFF710FBA16929B10D682046FDF732FD40
:103DA0002946F8E7FFF7FEFABDE83840FFF708BB01
:103DB0008C15002038B5044608B9FCF7D7FF00255C
:103DC00001F007F90E49A4F89C50204601F0FFFBD2
:103DD000402220460B49FFF7DFFE4FF47A71284658
:103DE00007F018FC04F16802034644F6C37120464C
:103DF000FFF7ACFF2046BDE8384001F0F1B800BF46
:103E0000F6EC000016ED000038B5044608B9FCF7E2
:103E1000ADFF01F0DEF804F11605104804F1680169
:103E2000FDF7F0FC2846FFF713FF18B1294620469E
:103E300001F082FC04F126052846FFF709FF18B1BE
:103E40002946204601F078FC2046054901F015FC82
:103E50002046BDE8384001F0C3B800BF8C150020F3
:103E6000F6EC000010B5044608B9FCF77FFF01F03E
:103E7000B0F84FF47A73C4F8983094F89E3043F059
:103E80000103204684F89E3001F078FE2046BDE80C
:103E9000104001F0A5B800002DE9F0470C468CB0A9
:103EA000054608461746994601F093F8FFF782FA4F
:103EB000002C3ED0B4F966112846FFF7E4FE064612
:103EC000002838D0B0F83480C8F304182846FFF72B
:103ED000BFFE00285FD1B8F1000F5CD0204601F092
:103EE0007FF8404601F06AF80446FFF769FA204679
:103EF00001F06FF8FFF75EFA002C4ED0B4F96611AE
:103F00002846FFF7C0FE064600964B463A46214635
:103F10002846FFF7C3FE00280CBF6FF07506002689
:103F2000FFF74EFA204601F05BF830460CB0BDE8D2
:103F3000F0872146C0E72846FFF78AFEB0460028F2
:103F4000C4D1B2465046FFF7E7FC824678B9B8F1D3
:103F5000000F2BD098F824305A0727D5B8F8263010
:103F6000DB0723D5D8F80030B3F83480ACE70AF18A
:103F70000401284605F0DAFA9AF825309842E1D390
:103F8000B8F1000F05D098F825209A4238BFD046E6
:103F9000D8E7D046D6E7002CB6D11FB176213846F7
:103FA00002F046F96FF075060024B9E703AA394616
:103FB0002846FFF7F7FC061E35DB2749102207A825
:103FC00009F068FA78B976BB2846FFF741FE50B38E
:103FD00007AA05F1100C28686968134603C3083561
:103FE00065451A46F7D1BDF82E3024BBBDF92E0029
:103FF00000F0E4FF0446FFF7E3F9204600F0E9FF94
:10400000FFF7D8F924BB214607A8FFF73CFE4B4633
:1040100000903A46214607A8FFF740FE002808BF57
:104020006FF075067CE71FB17221384602F000F987
:104030006FF0710674E7B4F966219A4208D0204601
:1040400000F0CEFFB4F96621BDF82E309A42CDD1F2
:10405000B4F96611D8E700BF36ED00002DE9F04F46
:104060000F4689B015469846044608B9FCF77EFE0F
:1040700000F0AFFFFFF79EF92B78872B00F05481FB
:10408000882B00F01D82862B40F0AB8107F10809D8
:104090004846FFF7DDFD002800F0A381FB79FF2BE8
:1040A00040F09F816B78002B40F09B81B8F10F0F9F
:1040B00040F29781D4F8A430DA0407D4EB885BBAD5
:1040C0009BB242F22832934200F28B81A8F1100B8E
:1040D00005F1100632465B46002B59D1B5F8068033
:1040E000B4F966111FFA88F34846002B5CD0FFF73D
:1040F00081FA8146002800F0748198FA98F84FF40C
:104100007A731FFA88F803FB08F84346021D44F649
:10411000CD71FFF71BFE2B790BB184F86431EB688E
:1041200013B11BBAC4F89830B9F1000F13D0D4F80A
:10413000A430DB040FD5237D13F0EF0F03D004F17F
:104140001600FEF749FF637D13F0EF0F03D004F173
:104150002600FEF741FFBBF1000F2FD1B9F1000F90
:1041600000F03F8104F16805A2482946FDF74AFBAB
:10417000D4F8A430DE0440F134814FEA980303EB15
:1041800043032A4644F6C3712046FFF7DFFD28E1CA
:104190009845C0F026815178002900F02281A3EBD8
:1041A000C10302EBC10297E7FFF78AFA08B1FFF7F4
:1041B000B7FD4FF0FF384FF00009ACE73378052B1F
:1041C0001BD009D8012B11D0032B24D07378ABEB73
:1041D000C30B06EBC306BEE7222BF7D131462846B8
:1041E000FEF7F8FF804528BF8046EFE733462A46B2
:1041F00039462046FFF74EF8E8E77378012BE5D102
:104200002B78862BE2D173681BBAB3F5A06FDDD390
:10421000A4F8A030DAE773680493B3680593737861
:10422000042B05D04FF0FF33984528BF9846CDE7C3
:104230002B78862BF6D106F1100318460293FFF770
:1042400007FD0028EED1049B059A1BBA92FA82FA68
:104250005345E7D3D4F8A410F278C80401D5110669
:10426000E0D4500606D5B278029903932046FFF7B2
:1042700093FC039BF2783F2AD4D9B27803927268F8
:10428000E2B9924613E09AF8243059070FD59AF80C
:104290002530039A93420AD102990AF1040005F0ED
:1042A00045F9039B984202D35046FFF7CBFB50469B
:1042B000FFF732FB82460028E5D1B3E7049A0132CA
:1042C00007D04D4A93429ABF4FF47A7253436FF02E
:1042D0000103059A013208D0474A92459ABF4FF42C
:1042E0007A7202FB0AFA6FF0010ACDF800A0DDE94C
:1042F0000212B4F966010493FFF7DAFB002891D0AB
:1043000096F90320F178049B002ABEBFC28C42F0CC
:104310000102C2844A0642BFC28C42F00202C28439
:10432000534528BF53467FE7FB79FF2B59D16B7864
:10433000002B56D1B8F1170F53D92B7AFF2B50D041
:1043400007F108092D491022484609F0A3F838B9A9
:104350002B490D2207F1180009F09CF8002840D1E4
:1043600005F1080B5946204601F02AF8031E029376
:1043700037DBA8F1180605F1180A5246334673B91F
:104380001E4903931022484609F084F8039B78B92C
:1043900000934A462146584600F04AFB21E09845E2
:1043A0001FD35178E9B1A3EBC10302EBC102E6E7E9
:1043B000D4F8A430D80705D4B4F9661103224846CE
:1043C000FFF776F8F6B9029B23441B7D990670D55A
:1043D000B4F966115846FFF756FC054618BBFFF7BF
:1043E0004FFCFEF7EDFF204609B0BDE8F04F00F0AE
:1043F000F7BD00BF8C1500203789410036ED000065
:1044000006ED00009AF80030012B05D153462A46EC
:1044100039462046FEF73EFF9AF80130A6EBC30668
:104420000AEBC30ACEE73B7EFF2B1FD194F8C07086
:1044300004F1B8013A4606A808F08CFCB7B1324640
:10444000394606A800F08DFA06460028C7D040215C
:104450003246584600F024FA074648B14A46002141
:10446000FEF73FFD804628B93846B8E76021EFE700
:104470003046B4E74368FF22DA7100231A46194632
:10448000184601F0EBFB064608B94046A7E743682B
:10449000B4F866215A804FF47A71C0F80080002089
:1044A00007F0B8F805F12402034644F6C27130461D
:1044B0006BE63B7E0096A3F1FF025342534168E74F
:1044C000FB79FF2B8DD16B78002B8AD1B8F1170FB8
:1044D00087D92B7AFF2B84D03B7EFF2B03D12B79FE
:1044E0005B063FF57EAFA8F1180905F118063246C4
:1044F0004B46F3B9B4F9661105F10800FFF7C3FBA9
:10450000804600283FF46DAFB9F1000F3FF469AF6A
:104510003378212B07D1CDE9006833462A46394646
:104520002046FEF7C1FD7378A9EBC30906EBC3066D
:10453000EAE79845FFF455AF517800293FF451AFB1
:10454000A3EBC10302EBC102D3E700BF38B50446B9
:1045500000F03FFD44F6C3712046FFF705FBD4F899
:10456000A430DA0423D594F89C30022B42F2107563
:104570000AD9033B4FF47A6202FA03F31D444EF664
:1045800060239D4228BF1D46A8420BD911492046F1
:1045900000F0D2FA94F89C30092B0BD9D4F8A4304F
:1045A000DB040DD42046BDE8384000F019BD4FF4BF
:1045B0007A65E9E70133DBB2022B84F89C30EDD851
:1045C0002B4604F1680244F6C3712046FFF7BEFB98
:1045D000E8E700BFE6EC0000F8B50D460446FEF73C
:1045E000E9FEA5F59F4142390D2914D8DFE801F015
:1045F000071713131313131313131B69136D354983
:10460000234640F20222022000F010FB18B90921D3
:10461000204601F00DFEBDE8F840FEF7D1BE204671
:10462000FFF794FFF7E72368988EC0F3041000F0BB
:10463000C5FC05460028EED0274B186843690133B6
:104640000FD007F0E6F90646284600F0C2FCA36A40
:10465000B3420AD82046FFF7F5F9284600F0C0FC1F
:10466000D9E783685B689847EDE7E36AB342F4D81B
:10467000271D394605F1160004F058FF94F825303F
:1046800083429FBF2B7D23F01F0343F008032B754C
:10469000394605F1260004F049FF94F8253083429D
:1046A0009FBF6B7D23F01F0343F008036B75A36A64
:1046B00004F114029B1B44F6CC712046FFF746FB25
:1046C000CBE72046FFF72CFBA5E72046FEF784FC4E
:1046D000A1E700BF0000FFFFFCED00002DE9F04363
:1046E00087B00C46054616460021102202A8DDF8C8
:1046F00038901F4607F0B0FF0CB9FCF737FB802E4F
:10470000B04628BF4FF080085FFA88F2214602A821
:1047100004F02BFF2449102202A808F0BBFE002859
:104720003FD022490822204608F0B4FE002838D0A5
:104730002378FF2B35D0B94533D8FEF73BFE214611
:10474000CDF800903B4642462846FFF7B1F90446B3
:1047500030B9FEF735FE6FF00B0007B0BDE8F0830F
:1047600028B200F02BFC054618B9FEF729FE002000
:10477000F3E700F02EFCD5F8A430DA045EBFE38C3A
:1047800043F00103E38495F89E30DB0705D57F2EC7
:104790009EBFE38C43F00203E384284600F020FC34
:1047A000E3E76FF01500D8E736ED000016ED0000E6
:1047B0002DE9F0410C6807460E461546FEF7FAFD56
:1047C0002046FFF7A9F8044630B3D4F80080B8F1CA
:1047D000000FF5D094F824305B07F1D52FB1B8F86D
:1047E0003430C3F304139F42EAD194F825302B747C
:1047F00010220021284607F02FFF94F82520211DC4
:10480000284604F0B2FEB8F83430C3F304136B82C8
:10481000A36A6B61E36AAB61FEF7D2FD201E3460D0
:1048200018BF0120BDE8F08138B504461846FEF7F0
:1048300058FB054668B14368FF22DA7100231A4627
:104840001946184601F00AFA28B92946284601F007
:1048500019FD002038BD43680CB1B4F966415C8095
:104860000560F7E710B50446084614B12378FF2B1E
:1048700001D1FCF77BFA182300228721FDF775FF91
:1048800068B14368216800221A715A719A71DA710D
:104890006268DA609960A168E2685A61196110BDC6
:1048A00038B504460D46104614B12378FF2B01D1CC
:1048B000FCF75CFA182300228821FDF756FF78B137
:1048C0004368002225F01F051D71DA719A715A7133
:1048D00021686268DA609960A168E2685A611961CA
:1048E00038BD08B5002208238521FDF73EFF28B119
:1048F000436800221A715A719A71DA7108BD10B5B5
:10490000002304461046CA1D02F0F802194601F0C1
:10491000D1FD20B1426814708368DB08537010BD6C
:1049200070B506460D4618460231FFF7E8FF04460B
:1049300058B1436882680233023A0021184607F0F2
:104940008BFE2A46314608F005FA204670BD10B5A8
:1049500000B109B9FCF70AFABDE810400123FFF7DE
:10496000DFBF10B500B109B9FCF700FABDE810408F
:104970000223FFF7D5BF00002DE9F7430A9D0C463F
:1049800016469846074610B10378FF2B01D1FCF775
:10499000EDF90029FBD0B8F1000FF8D0084600F07F
:1049A00018FB36B932463946204600F01DFD064652
:1049B000B8B11D491022304608F06CFD88B194F85A
:1049C000C09004F1B8014A46684608F0C3F9B9F14D
:1049D000000F06D02A4649466846FFF7B8FFE8B1FF
:1049E000054638462946FFF73DFF0746B0B1034666
:1049F000424631462046FFF717FF054668B1034699
:104A00000A4940F20222022000F010F930B120469B
:104A100000F0E6FA03B0BDE8F0833D4600212846E9
:104A200001F006FCF3E700BF36ED00000000FFFFD9
:104A30002DE9F04387B00D460E9E14469946074671
:104A400010B10378FF2B01D1FCF790F90029FBD0BE
:104A5000002AF9D0084600F0BCFA3946284600F092
:104A6000AFFCB0F100085CDB30491022204608F0B2
:104A700011FD30BB2E4B02AC03F1100C18685968C5
:104A8000224603C2083363451446F7D1002495F843
:104A9000C09005F1B8014A46684608F05BF9B9F1E3
:104AA000000F3BD0324649466846FFF75AFFC0B375
:104AB000A84498F814309B0601D444F0200406461C
:104AC0000FE0224602AB04F1100C106851681C463E
:104AD00003C4083262452346F7D14024B9F1000FE0
:104AE000D5D1214632463846FFF7DAFE0446C0B13A
:104AF000034602AA00212846FFF796FE064678B133
:104B000003460C4940F20222022000F08FF840B127
:104B1000284600F065FA07B0BDE8F0833046CEE7DE
:104B200026460021304601F083FBF1E736ED000018
:104B3000F6EC00000000FFFF2DE9F3410E460546AC
:104B400008B9FCF713F9214B002908BF1E4600F0F5
:104B500040FA00223146284600F046FC8046A0B1CB
:104B600095F8C04005F1B8012246684608F0F2F811
:104B700064B1214600226846FFF7E9FE044628B9E1
:104B80000021204601F054FB17E004462046FFF7C1
:104B9000A8FE07460028F3D0034632464146284681
:104BA000FFF742FE044670B10346094940F2022273
:104BB000022000F03BF80028E2D0284602B0BDE811
:104BC000F04100F00DBA3C46DAE700BFE6EC000029
:104BD0000000FFFF00B589B006930A9BADF81C30BA
:104BE000BDF82C308DF81410ADF81620ADF8063055
:104BF000024605AB03A901A80293FBF7C5FDBDF86A
:104C00000E2040F205239A4201D0FCF7AFF8049839
:104C100009B05DF804FB07B5019101466846ADF89F
:104C20000220FBF795FD03B05DF804FB2DE9F3418D
:104C30000446884617461D4601F052FA4146204672
:104C400001F0C5FA064648B14146204601F0BAFADD
:104C5000711E0446284601F0A3FB2CB901F05AFA54
:104C6000304602B0BDE8F081237A012B0FD0022B31
:104C700016D003BBB4F90C003A462946FFF7CBFF28
:104C8000002813DC0521284601F0D2FA0EE0E06886
:104C9000ADF80270002269460195FBF787FBEFE74C
:104CA000E3682946D3E900823846C047204601F030
:104CB000A0FA0446D1E78C21E5E71FB50024039450
:104CC000ADF80C30436801941B698DF80410029212
:104CD00001A9984704B010BD50F8A80C03681B69DF
:104CE0001847000008B50449102208F0D3FBB0FAB9
:104CF00080F0400908BD00BF36ED000010B50A493C
:104D00000822044608F0C6FB48B12378FF2B08D1DF
:104D1000607800F00F00831E5842584110BD0120FA
:104D2000FCE70020FAE700BF16ED000070B58568CB
:104D3000044600F0E9FE2B6801465E6904F1B80202
:104D400008232846B04710F1860F08D0D4F8A430C5
:104D5000002843F00103C4F8A43006DC70BD94F8C9
:104D6000C030002BFAD0FCF701F884F8C000F5E75A
:104D7000F8B5044608460E461546FFF7B3FF98B946
:104D80005DB104F1360503270024314605EB04101C
:104D900004F0B6FB28B12046F8BD04F11605022741
:104DA000F2E70134BC42F0D14FF0FF30F4E7037872
:104DB000FF2B10B5044603D1407800F00F0010BD62
:104DC000FFF79CFF60B9208840BA20F03F00000444
:104DD000000C4FF6C06398420CBF05200E20EEE792
:104DE0000220ECE770B504460D4616467AB908B9BC
:104DF000FBF7BCFFD0F8C8304BB100F031F82946C2
:104E0000204601F0D5F830B3134807F089FA0121A4
:104E1000284601F0C5FA636829465B682046984732
:104E2000103016D12946204666B101F0FDF806463D
:104E30008EB10A4807F074FA0C212846BDE870408C
:104E400001F0F6B901F0B4F80646204601F0CEF8BC
:104E5000EEE70021F1E770BD23E900005BE9000007
:104E600010B5044608B9FBF781FFD0F8C8307BB114
:104E70001A685968C0F8C82000221A605A6039B10F
:104E80000122FFF7AFFF2046BDE8104001F0AEB8A9
:104E900010BD000037B5846841B904F1B00104F1D8
:104EA000A80003B0BDE83040FCF7C0BB02390729B9
:104EB0000ED8DFE801F0110D2C2C2C2C040F174B11
:104EC000CDE90034164B6846B3F90010FBF72AFC15
:104ED00003B030BD134BF3E7636820469B689847E7
:104EE00005462046FFF7BCFF002DF1D00E4995F98D
:104EF00010002B4640F20122FFF798FE01460028E1
:104F0000E6D1284603B0BDE8304001F091B9204613
:104F100003B0BDE83040FFF7A3BF00BF0000D44F8F
:104F20008A1100200000D54F0000FFFFF0B589B0C6
:104F30001E4687680023C0E90333109B43600C467C
:104F400015460FB1FBF712FF0F9B8360CDE90507F4
:104F5000012106A8FBF77AFC0E9B029305AB019397
:104F6000084B009332463B4629462046FBF7F8FDA6
:104F70000028E7DD012106A8FBF768FC079809B0C7
:104F8000F0BD00BFF14F000090F865310B2B9DBFC5
:104F90004FF43760D84000F001000020704705F062
:104FA00093BA10B500242046FFF7F9FF08B9204650
:104FB00010BD4368002BF7D00134F5E710B5044667
:104FC0000020FFF7ECFF18B1B0F96631A342F8D129
:104FD00010BD20B1436813B10C30FBF741BF7047DF
:104FE00020B1436813B10C30FBF73EBF704700009F
:104FF0002DE9FF410468DFF808810546002640F2EC
:1050000005232046CDE90066ADF80230FFF7E1FF49
:10501000B8F80030A4F86631364BC4F8B430364BDB
:105020001B68C4F8AC30102104F1E400C4F8A86097
:10503000FBF7FCFB636820461B689847A860281DA7
:10504000FBF73AFCAA68B24204F1A80748DB204605
:10505000FFF7C6FF41F233263846FCF707FB05464B
:1050600048B902A8FBF7DCFB002809DC48F2010084
:10507000FBF732FEF0E76B68002BEDD09847EBE7CB
:10508000BDF80A30B3F5017F27D00FD840F20222D5
:10509000934211D040F20322934213D063685B69BC
:1050A000002BD9D002A920469847D5E7B342F5D1C5
:1050B0002046FFF7D5FECFE703992A462046FFF7A3
:1050C00091FEC9E763681B690399204698476946C2
:1050D000019002A8FBF77EFBBEE76368DB68F3E79D
:1050E000B8F80010054809B208F012FA304604B0CA
:1050F000BDE8F081D94C0000140500208FE90000C4
:10510000A00500202DE9F8430E460546FFF761FF94
:1051100033783489112B0CD8062B0FD9073B0A2B77
:105120000CD8DFE803F01F89260B50690B0B0B0B23
:105130009A00402B0BD0412B00F09B80A86872682E
:10514000036831785C693389A047044635E0012C57
:1051500001D0FBF70BFE2846FFF716FF73681870A7
:1051600001242AE0012CF4D1736895F864211A70A7
:10517000F6E70F2CEDD92C7D73688CB105F1160282
:10518000194605F1260052F8044B41F8044B8242BF
:10519000F9D13289102A03F110034FF010040CD911
:1051A0006A7D52B105F1260205F1360152F8040B71
:1051B00043F8040B8A42F9D110342846FFF710FF58
:1051C0002046BDE8F883002CC3D0726805F11303B4
:1051D00005F1150000243189A142EEDD834203D19F
:1051E00014F1860FAAD0E8E713F8011F0029F2D0C6
:1051F00002F8011B0134EEE70F2CAAD9D6F804807F
:1052000005F1360705F1660900243389A342D4DD90
:10521000B945D2D03846FFF765FD07F1100348B90C
:10522000424657F8041B42F8041B9F42F9D1103440
:1052300008F110081F46E8E7072C8AD9D5F8A42002
:105240007368D2077FF57AAF95F8C02005F1B801F1
:10525000284600F0F3FC0446C2E77388022B7FF473
:105260006DAF022C7FF475AF7368B5F8A0201A807B
:10527000A3E7012C7FF46DAFD5F8A4307268C3F3B7
:10528000002313706CE700002DE9F0470D468AB04B
:1052900091461F46044600B109B9FBF767FD0B783C
:1052A000FF2BFAD00846FFF71DFD0028F5D1414934
:1052B0001022284608F0EEF80028EED009F1FF335E
:1052C0007F2BEAD82046FFF784FE07F01F03072B49
:1052D00008BF07F0F807294604F1160008BF47F099
:1052E000010704F00DF9B8B9267D2946003E04F106
:1052F000260018BF012604F003F97642804688B9DB
:1053000096B1637D002B4AD02046FFF769FE6FF00F
:105310000B000AB0BDE8F08700262046FFF760FECC
:105320003046F6E70126F8E70646D4F8A430DB0459
:105330000BD4282229462048B4F966A104F0C4F908
:10534000514602461D4808F0E3F8A11904EB061384
:105350000F752A46163305F1100052F8047B43F806
:10536000047B8242F9D10B7D03F01F03102BD4D1B3
:1053700000230293B4F9660103AA02A9FFF718FA01
:10538000074670B9B8F1000FC7D14FF0FF33009353
:10539000B4F966014A462946FFF7A0F9BDE70126A0
:1053A000C3E7294603A804F0C1F8484528BFB8461A
:1053B000E0E700BF26ED000085170020AFE9000000
:1053C00038B50D46044600B109B9FBF7CFFCFFF72D
:1053D00000FE294600222046FFF7CAFC054620466B
:1053E000FFF7FEFD284638BD2DE9F04F8FB0174678
:1053F0000191044600B109B9FBF7B8FCFFF7E9FDDC
:10540000257D002D47D06A0744D1002F46D004F1F6
:105410001600FFF773FC00280BBF002580254FF016
:10542000FF360026637D002B41D05B073FD1002F64
:1054300037D145F04005764200270198ADF8147049
:10544000FFF7B5FC04F116084FF0FF3102460DF1ED
:10545000140943460091BB468BF00701012000FA76
:1054600001F1294246D00199039218469A460293C7
:1054700004F046F8002875D1029B1846FFF797FC08
:10548000039A99F80010029B824218D111440F31FF
:10549000C9B219E000254FF0FF36C3E780253E462C
:1054A000C0E704F12600FFF729FC0028C1D1002E37
:1054B000C2D04FF0000A5CE04FF0010BCCE75FD2A6
:1054C0000F31101A0844C1B204F1140089F8001019
:1054D00010F80B0000F01F0008281CBF013189F8EC
:1054E000001099F800100098B94288BF5846009003
:1054F00088BF0F4609F101091033BBF1000FDBD063
:105500004FF000094D4605AB5B5DBB4220D10199D0
:10551000404604F00BF8029082464046FFF7EEFB4F
:1055200000283AD106908346B4F9660107AA06A975
:10553000FFF73EF940BBBBF1000F04D0029B5B4577
:1055400028BF5B469A46D1453CBF5FFA8AF9009571
:1055500008F11008B5B1009B002B06DB04EB031328
:1055600003F1160ABAF1000F03D104EB061606F197
:10557000160A2046FFF734FD50460FB0BDE8F08F05
:10558000014485E70125BEE7414607A803F0CEFFA9
:10559000584588BF9DF82CB0C6E74FF0400BCDE7CB
:1055A00038B5054600242046FFF7F9FC044660B1F3
:1055B00000222946FFF7DCFB002806DA01222946F3
:1055C0002046FFF7D5FB0028EDDB204638BD2DE94E
:1055D000F34105466A4690F865010E4604F09AF9D3
:1055E00004462846FFF7F5FC002C1DDDA3B26A46F1
:1055F0006E212846FFF761FB10F1860F044601D0AB
:10560000002814DB05F1360800274FF0FF3431463F
:10561000404603F075FF70B12846FFF7E1FC3C46B9
:10562000204602B0BDE8F08114F1860FEAD028468A
:10563000FFF7D6FCF4E7621C05D14046FFF752FBAA
:10564000002818BF3C460137032F08F11008DED1AF
:10565000631C05D12846FFF7C3FC6FF00B04DFE79E
:1056600005EB04133146363306F1100251F8040BF2
:1056700043F8040B9142F9D1D9E72DE9FF478A4657
:10568000044600B109B9FBF771FB90F865016A4661
:1056900004F040F9051E02DA15F1860F2FD12046DD
:1056A000FFF797FC002704F13608B9464FF0FF36A4
:1056B000002D13DD4046FFF715FB78B994F865011E
:1056C00002AA414604F026F9854207D12A466946D6
:1056D00002A807F0DFFE08B909F10109404651466A
:1056E00003F00EFF002818BF3E460137032F08F1D4
:1056F0001008DDD1002E05DA2046FFF771FC04B05A
:10570000BDE8F08715F1860F02D0B9F1000FBAD0CD
:10571000B9F1010F05D1ABB26A466F212046FFF700
:10572000CCFA04EB061010220021363006F094FF6C
:10573000E2E70000000000002DE9F04F2DED028BA4
:105740000E468BB0044600B109B9FBF70FFB9FED85
:10575000288B4B7B8DF815304FF08079CB89CDF8B5
:1057600010904FF0FF0A8DED028B8DF814A0ADF86C
:105770001630FFF72EFC04F1160504F1140804F1AD
:10578000360B01273146284603F0BAFEC0B100218E
:1057900088F800101022284606F05EFF10355D459F
:1057A00008F10108EED11FB102A92046FFF765FFFD
:1057B0002046FFF715FC0BB0BDEC028BBDE8F08F67
:1057C0008DED068BCDF820908DF824A06A7B8DF8A6
:1057D0002520EA89019002A906A8ADF8262003F049
:1057E0008FFE019B002818BF1F46D7E7AFF300804C
:1057F000FF0200000000000070B50E460546FFF7EE
:10580000E8FB327833891B2A11D8062A11D9073AC6
:10581000142A0ED8DFE802F01F0D293B0D474E0D6C
:105820000D0D550D0D0D0D0D0D0D0D0D6F00412ABA
:1058300052D0A8687268036831789C693389A047A0
:10584000041E2BDD3378052B67D8012B26D928467B
:10585000FFF76CFA22E0012B01D0FBF787FA73689F
:105860001B7885F86431012418E0102BF5D172887B
:10587000716802F0E00343F01003120A2846FFF7B4
:1058800003FD041E09DA14F1860F07D1D1E7102BAE
:10589000E3D171682846FFF74FFF10242846FFF731
:1058A0009FFB204670BD102BD7D171682846FFF7AB
:1058B0008EFEE6E7102BD0D171682846FFF7DDFE9B
:1058C000EBE77288022AB4D1022BC6D17268128823
:1058D000A5F8A0201C46E1E7012BBED17268D5F8DF
:1058E000A4301278012A0CBF43F4807323F4807330
:1058F000C5F8A430B7E77268D5F8A410107801286D
:10590000A8680CBF41F4803121F48031C5F8A4109F
:1059100001688C691B21A047A5E7572BBED12846FB
:1059200000F051F9BAE7000070B5744B8568C5E91D
:1059300001302B6886B0DB6804462846984700286B
:10594000C0F28A80204604F0ADFD01238DF81030AE
:105950002A681E215669284604AAB047012803D1A7
:105960009DF81030012B02D0654806F0D9FCA068E4
:1059700003680DF106025D6928210223A847022869
:1059800001D0FBF7F3F9BDF8063084F86531204605
:1059900000F019F92046FFF7C9F90023CDE90433D7
:1059A0004FF480730022ADF804300023CDE90223C8
:1059B00094F86521D31E082BE3D8DFE803F00551E6
:1059C0000579935189930500D4F8A430D907D8D527
:1059D00094F8C030062BD4D1052AB4F8A03006D0F4
:1059E0000B2A40F2DC5239D1934203D9C9E7B3F50F
:1059F000A06FC6D1D4F8A430D90720D594F8C02020
:105A000002AB04F1B801204600F018F98630B8D096
:105A1000D4F8A430DA07B4D594F8650101A903F0ED
:105A200063FF8630ADD0D4F8A430DB07A9D594F855
:105A3000650104AA02A903F041FF8630A1D0314DCF
:105A400001232B70402384F864312046FEF70AFAC4
:105A50002B78002B95D0002006B070BD9342C8E78C
:105A6000D4F8A430DB078CD594F8C030022B01D0D9
:105A7000082B86D1B4F8A030B3F5A06F81D1A0680F
:105A800003680DF103025D6919210123A8478630DF
:105A90003FF477AF94F86531042BABD1A06803686D
:105AA00004AA5D6903210823A8478630A2D168E7CC
:105AB000D4F8A430DE077FF564AF94F8C030012B32
:105AC0007FF45FAFB4F8A0204FF6FF739A42EDE782
:105AD000D4F8A430DD077FF554AF94F8C030033B11
