:020000040000FA
:2000000000040020810A000015070000610A00001F0700002907000033070000000000001A
:20002000000000000000000000000000A50A00003D07000000000000470700005107000027
:200040005B070000650700006F07000079070000830700008D07000097070000A107000078
:20006000AB070000B5070000BF070000C9070000D3070000DD070000E7070000F1070000D8
:20008000FB070000050800000F08000019080000230800002D080000370800004108000031
:2000A0004B080000550800005F08000069080000730800007D080000870800009108000090
:2000C0009B080000A5080000AF080000B9080000C3080000CD080000D7080000E1080000F0
:2000E000EB080000F5080000FF08000009090000130900001D09000027090000310900004B
:200100003B0900001FB500F003F88DE80F001FBD00F0ACBC40F6FC7108684FF01022401C44
:2001200008D00868401C09D00868401C04D0086800F037BA9069F5E79069F9E7704770B5C7
:200140000B46010B184400F6FF70040B4FF080500022090303692403406943431D1B1046E5
:2001600000F048FA29462046BDE8704000F042BAF0B54FF6FF734FF4B4751A466E1E11E092
:20018000A94201D3344600E00C46091B30F8027B641E3B441A44F9D19CB204EB134394B229
:2001A00004EB12420029EBD198B200EB134002EB124140EA0140F0BDF34992B00446D1E9B5
:2001C0000001CDE91001FF224021684600F0F4FB94E80F008DE80F00684610A902E004C824
:2001E00041F8042D8842FAD110216846FFF7C0FF1090AA208DF8440000F099F9FFF78AFF38
:2002000040F6FC7420684FF01025401C0FD0206810226946803000F078F92068401C08D0CB
:200220002068082210A900F070F900F061F9A869EEE7A869F5E74FF080500369406940F683
:20024000FC71434308684FF01022401C06D0086800F58050834203D2092070479069F7E712
:200260000868401C04D00868401C03D0002070479069F9E70420704770B504460068C34DCD
:20028000072876D2DFE800F033041929631E2500D4E9026564682946304600F062F92A4681
:2002A0002146304600F031F9AA002146304600F057FB002800D0032070BD00F009FC4FF4FE
:2002C000805007E0201D00F040F90028F4D100F0FFFB60682860002070BD241D94E80700C9
:2002E000920000F03DFB0028F6D00E2070BDFFF7A2FF0028FAD1D4E901034FF0805100EBB5
:20030000830208694D69684382420ED840F6F87005684FF010226D1C09D0056805EB830519
:200320000B6949694B439D4203D9092070BD5569F4E70168491C03D00068401C02D003E045
:200340005069FAE70F2070BD2046FFF735FFFFF772FF0028F7D1201D00F0F7F80028F2D1B9
:2003600060680028F0D100F0E2F8FFF7D3FE00F0BFF8072070BD10B50C46182802D00120F6
:20038000086010BD2068FFF777FF206010BD4168054609B1012700E0002740F6F8742068E0
:2003A0004FF01026401C2BD02068AA68920000F0D7FA38B3A86881002068401C27D02068A5
:2003C000FFF7BDFED7B12068401C22D026684FF08050AC686D68016942695143A9420DD90E
:2003E000016940694143A14208D92146304600F0B8F822462946304600F087F800F078F809
:200400007069D2E700F093F8FFF784FEF6E77069D6E77669DBE740F6FC7420684FF01026A0
:20042000401C23D02068401C0CD02068401C1FD02568206805F18005401C1BD027683879C3
:20044000AA2819D040F6F8700168491C42D00168491C45D00168491C3ED001680968491C65
:200460003ED00168491C39D000683EE0B069DAE7B569DEE7B769E2E710212846FFF778FE60
:200480003968814222D12068401C05D0D4F8001001F18002C03107E0B169F9E730B108CA77
:2004A00051F8040D984201D1012000E000208A42F4D158B1286810B1042803D0FEE72846D8
:2004C000FFF765FF3149686808600EE0FFF722FE00F00EF87169BBE77169BFE7706904E05D
:2004E0004FF480500168491C01D000F0CBFAFEE7BFF34F8F26480168264A01F4E06111434F
:200500000160BFF34F8F00BFFDE72DE9F04117460D460646002406E03046296800F054F8B7
:20052000641C2D1D361DBC42F6D3BDE8F08140F6FC700168491C04D0D0F800004FF48051A1
:20054000FDE54FF010208069F8E74FF080510A69496900684A43824201D8102070470020B4
:20056000704770B50C4605464FF4806608E0284600F017F8B44205D3A4F5806405F580556A
:20058000002CF4D170BD0000F40A0000000000200CED00E00400FA05144801680029FCD089
:2005A0007047134A0221116010490B68002BFCD00F4B1B1D186008680028FCD000201060D2
:2005C00008680028FCD07047094B10B501221A60064A1468002CFCD0016010680028FCD0B9
:2005E0000020186010680028FCD010BD00E4014004E5014070B50C46054600F073F810B9F5
:2006000000F07EF828B121462846BDE8704000F007B821462846BDE8704000F037B80000B9
:200620007FB5002200920192029203920A0B000B6946012302440AE0440900F01F0651F848
:20064000245003FA06F6354341F82450401C8242F2D80D490868009A10430860081D016875
:20066000019A1143016000F03DF800280AD0064910310868029A10430860091D0868039A79
:20068000104308607FBD00000006004030B50F4C002200BF04EB0213D3F800582DB9D3F824
:2006A000045815B9D3F808581DB1521C082AF1D330BD082AFCD204EB0212C2F80008C3F846
:2006C00004180220C3F8080830BD000000E001404FF08050D0F83001082801D00020704723
:2006E000012070474FF08050D0F83011062905D0D0F83001401C01D0002070470120704731
:200700004FF08050D0F830010A2801D0002070470120704708208F490968095808471020CE
:200720008C4909680958084714208A49096809580847182087490968095808473020854954
:20074000096809580847382082490968095808473C20804909680958084740207D49096857
:200760000958084744207B49096809580847482078490968095808474C2076490968095839
:200780000847502073490968095808475420714909680958084758206E490968095808471E
:2007A0005C206C4909680958084760206949096809580847642067490968095808476820B7
:2007C00064490968095808476C20624909680958084770205F4909680958084774205D4960
:2007E00009680958084778205A490968095808477C2058490968095808478020554909686F
:200800000958084784205349096809580847882050490968095808478C204E490968095850
:20082000084790204B49096809580847942049490968095808479820464909680958084735
:200840009C204449096809580847A0204149096809580847A4203F49096809580847A8208E
:200860003C49096809580847AC203A49096809580847B0203749096809580847B42035499F
:20088000096809580847B8203249096809580847BC203049096809580847C0202D49096886
:2008A00009580847C4202B49096809580847C8202849096809580847CC2026490968095868
:2008C0000847D0202349096809580847D4202149096809580847D8201E490968095808474D
:2008E000DC201C49096809580847E0201949096809580847E4201749096809580847E82066
:200900001449096809580847EC201249096809580847F0200F49096809580847F4200D49DE
:20092000096809580847F8200A49096809580847FC2008490968095808475FF480700549EB
:20094000096809580847000003480449024A034B7047000000000020000B0000000B000057
:2009600040EA010310B59B070FD1042A0DD310C808C9121F9C42F8D020BA19BA884201D923
:20098000012010BD4FF0FF3010BD1AB1D30703D0521C07E0002010BD10F8013B11F8014BDB
:2009A0001B1B07D110F8013B11F8014B1B1B01D1921EF1D1184610BD02F0FF0343EA0322A5
:2009C00042EA024200F005B87047704770474FF000020429C0F0128010F0030C00F01B808B
:2009E000CCF1040CBCF1020F18BF00F8012BA8BF20F8022BA1EB0C0100F00DB85FEAC17CF1
:200A000024BF00F8012B00F8012B48BF00F8012B70474FF0000200B513469446964620396B
:200A200022BFA0E80C50A0E80C50B1F12001BFF4F7AF090728BFA0E80C5048BF0CC05DF8EE
:200A400004EB890028BF40F8042B08BF704748BF20F8022B11F0804F18BF00F8012B704784
:200A6000014B1B68DB6818470000002009480A497047FFF7FBFFFFF745FB00BD20BFFDE7E4
:200A8000064B1847064A1060016881F30888406800470000000B0000000B00001704000059
:200AA000000000201EF0040F0CBFEFF30881EFF30981886902380078182803D100E00000BC
:200AC000074A1047074A12682C3212681047000000B5054B1B68054A9B58984700BD00000E
:200AE0007703000000000020F00A000004000000001000000000000000FFFFFF0090D003EE
:02000004000EEC
:2000000000000420F9020E0021030E0023030E0025030E0027030E0029030E0000000000A5
:200020000000000000000000000000002B030E002D030E00000000002F030E0031030E00C4
:2000400035380E0033030E0033030E0033030E0033030E0033030E0033030E0033030E0049
:2000600033030E0033030E0033030E0033030E0033030E0033030E0033030E0033030E0060
:20008000D1540E00F92B0E0033030E0033030E0033030E0033030E0033030E0033030E0063
:2000A00033030E0033030E0033030E0033030E0033030E0033030E000000000000000000A8
:2000C00033030E0033030E0033030E0033030E0099510E0033030E0033030E0061470E00DA
:2000E00033030E0033030E00AD860E00000000000000000033030E000000000033030E00AF
:200100000000000000000000000000000000000000000000000000000000000000000000DF
:200120000000000000000000000000000000000000000000000000000000000000000000BF
:2001400000000000000000000000000000000000000000000000000000000000000000009F
:2001600000000000000000000000000000000000000000000000000000000000000000007F
:2001800000000000000000000000000000000000000000000000000000000000000000005F
:2001A00000000000000000000000000000000000000000000000000000000000000000003F
:2001C00000000000000000000000000000000000000000000000000000000000000000001F
:2001E0000000000000000000000000000000000000000000000000000000000000000000FF
:200200000348044B834202D0034B03B118477047FC000020FC0000200000000005480649C1
:200220000B1AD90F01EBA301491002D0034B03B118477047FC000020FC00002000000000A6
:2002400010B5064C237843B9FFF7DAFF044B13B10448AFF300800123237010BD10010020EB
:2002600000000000A09E0E0008B5044B1BB104490448AFF30080BDE80840CFE700000000FC
:2002800014010020A09E0E00A3F5803A704700BF154B002B08BF114B9D46FFF7F5FF002179
:2002A0008B460F461148124A121A08F0ADFB0C4B002B00D098470B4B002B00D09847002016
:2002C000002104000D000B4808F002FA08F030FA2000290004F054FD08F000FA00000800FB
:2002E00000000000000000000000042010010020A042002005870E000649074A074B9B1A66
:2003000003DD043BC858D050FBDC00F055F9FFF7BFFF0000D09E0E000800002010010020E0
:20032000FEE7FEE7FEE7FEE7FEE7FEE7FEE7FEE7FEE7FEE70020704710B504461A4802F091
:2003400079FE1A4B18481C6002F08BFE48B3184B002140F603020330C3E90212586019707C
:20036000144B154959601549C3E90212144A1A61144A5A6103F062F8852800D090B90020C4
:2003800003F0BAF870B902F073FA0F4800F0DCFE40B90E4800F07AFF20B9BDE8104000F099
:2003A0003FBF032010BD00BFB49E0E00B4010020581A0020401A0020DD030E00D1030E007F
:2003C000E8190020AC9E0E00E4980E00C0980E00011F014802F067BEB49E0E0013B5074CB9
:2003E0000A4601AB0146204602F09AFF019A0448214601F0B3FE02B010BD00BFCF19002093
:20040000C0980E0001F0A0B8083810B5062820D8DFE800F008141B1F1F1F0400BDE81040BE
:2004200000F018BF03F0C6FE08B900F011FF094B1B6873B10120BDE81040184700F01CFF02
:20044000044B1B682BB10220F5E7BDE8104000F003BF10BDB401002003780BB901F074B84B
:20046000014A042100F0EABA05040E00F8B5E9B9134E144C144F3178124802F085FF05462A
:2004800060B93846D4E9011206F082FE0F4802F0E8FD18B10330C4E9010525700C48012296
:2004A000314601F07DFE0028E5D0F8BD0229FCD1BDE8F84002490648012201F071BE00BF57
:2004C000001A0020581A0020401A0020B49E0E00C0980E00074B1B5C1F2B86BF064903F076
:2004E0001F034FF0A041012202FA03F3C1F80C35704700BFF0980E000003005008B500206F
:20050000FFF7E8FFBDE808400120FFF7E3BF00000A4B185C1F288ABF094B4FF0A04300F099
:200520001F00D3F804250121814021EA02000A40C3F80805C3F80C25704700BFF0980E00AE
:2005400000030050C20710B5044607D5074B0322C3F83C27C3F82827FFF7D0FFA30742BF85
:20056000024B0C22C3F8342710BD00BF000300504FF08053D3F83001A0F10803584258412E
:20058000704700004FF08053D3F83021082A06D1D3F83431052B02D8024AD05C70470020E4
:2005A000704700BFF8980E00024AD2F80034002BFBD0704700E0014010B5FFF7D9FF40B18B
:2005C0004FF080430022C3F80C21C3F81021C3F83825FFF7CDFF002846D04FF08052654B4A
:2005E000D2F80414C3F82015D2F80814C3F82415D2F80C14C3F82815D2F81014C3F82C1583
:20060000D2F81414C3F83015D2F81814C3F83415D2F81C14C3F84015D2F82014C3F84415D2
:20062000D2F82414C3F84815D2F82814C3F84C15D2F82C14C3F85015D2F83014C3F8541522
:20064000D2F83414C3F86015D2F83814C3F86415D2F83C14C3F86815D2F84014C3F86C1562
:20066000D2F84424C3F87025FFF78CFF18B1424B424AC3F88C26FFF785FF18B1404BFB223D
:20068000C3F81825FFF77EFF70B14FF080414FF08053D1F8E42ED3F8583222F00F0203F076
:2006A0000F031343C1F8E43EFFF76CFF20B1354B4FF40072C3F84026FFF75AFF48B14FF0E8
:2006C0008043D3F80024D20744BF6FF00102C3F800242D4AD2F8883043F47003C2F8883036
:2006E000BFF34F8FBFF36F8F4FF08053D3F83021082A0ED1D3F83431052B02D8234AD35CA5
:200700003BB14FF01023D3F808224FF08043C3F858254FF01023D3F80022002A03DBD3F81A
:200720000432002B22DA1A4901234FF01020C1F804351224FFF738FFC0F80042FFF734FFEE
:20074000C0F80442FFF730FF0023C1F80435FFF72BFFBFF34F8F0C490E4BCA6802F4E06299
:200760001343CB60BFF34F8F00BFFDE70A4B0B4A1A6010BD00C00040005000404881030078
:2007800000F000400090024000ED00E0F2980E0000E001400400FA050C0000200090D0033F
:2007A00038B52022044608300D4608F017F82022A91804F1280008F011F8002038BD0000F8
:2007C0002DE9F743DFF86C809946184B036004460E4640460121174602F0F4FB0546BFF3E0
:2007E0005F8FF8B900F0E6F80A9ACDF800903B4606F10801204606F0FDFD044600F0E8F8A2
:20080000BFF35F8FC8F8005044B1094948F2165248F242538C4214BF14461C46204603B0FA
:20082000BDE8F08348F20454F8E700BFDD55AABB8408F000343E00200E4B984214D00AD8D2
:20084000B8B10D4948F2165248F20153884214BF104618467047094B984208D0084948F210
:20086000165248F20353F1E748F20350704748F2025070470102F0000002F0000202F00048
:200880000F02F00008B5083006F01EFEBDE80840FFF7D2BF13681F2B2DE9F34106460F462C
:2008A000144620D9DFF84C800121404602F08AFB0546BFF35F8FC8B900F07CF8394606F1DD
:2008C000080006F06DFE019000F082F8BFF35F8F0198C8F80050FFF7AFFF08B92023236040
:2008E00002B0BDE8F08148F21450F9E748F20450F6E700BF343E00202DE9F04105460E4610
:2009000019480121144602F05DFBBFF35F8F38BB00F050F8DFF854800835B4F5805F274608
:2009200028BF4FF4805731463A46404607F056FF3A464146284606F0E1FDE41B3E4468B902
:20094000002CEAD100F044F8BFF35F8F064B00221A602046BDE8F041FFF76EBF0446F1E776
:2009600048F20450BDE8F081343E0020681A0020024B0020C3F80005704700BF00A002500A
:2009800038B50A4B00251D60BFF35F8F084C0123C4F8003506F034FEC4F8005520B1052833
:2009A00048F2035018BF032038BD00BF343E002000A00250044B0122C3F80025034B4FF495
:2009C00080625A60704700BF00A0025000E100E0064B0022C3F80025054B4FF48062C3F8CF
:2009E0008420BFF34F8FBFF36F8F704700A0025000E100E04B1C30B5DB00044612F0030033
:200A00009BB20DD1074D2A601A44074B1A60074B1870074B1870074B1C80074B198030BD29
:200A20000720FCE7702A00206C2A0020682A0020782A0020742A0020762A00202DE9F047FD
:200A4000DFF8B480B8F800308B4206460D46174645D3002001F084FF234B244A244819785D
:200A600000881478E3B2844238BF0133C9B234BFDBB2002399422CD014781178CBB288428B
:200A800086BF0133DBB200231370002001F06AFF4FF6FF739C4224D0DFF86090D9F80020EF
:200AA0004FEAC40A42F8347002EBC403A6B19DB1104BB8F800001B682A4604FB0030314654
:200AC00007F08CFED9F80030534400209D80BDE8F0874FF6FF74D8E700209880F7E70920EE
:200AE000F5E70420F3E700BF782A0020682A0020762A00206C2A0020742A0020702A0020FB
:200B000070B5104C104D22782B789A4200D170BD0E480F4A2378126806880E4802EBC30187
:200B2000006852F83320898803FB060090470A4922780988D3B2914286BF0133DBB20023C5
:200B40002370E0E7782A0020682A0020742A0020702A00206C2A0020762A002010B5D0E95B
:200B60000243D1E90202A04272EB03032CBF0120002010BD08B50A4802F027F8094AD2E906
:200B80000031C018084BD3E9002341F10001904271EB030303D210F1807041F1000108BDF5
:200BA00010000020802A0020F82A002037B505460C460A4801A902F090F960B105704460CF
:200BC00001A9064802F0B3F918B1054802F002F8002003B030BD0420FBE700BFE42A0020CA
:200BE0001000002070B5234B1E78044616B90026304670BD0028FAD0FFF7BCFFD4E9022335
:200C0000904299412FD3002001F0AAFE23692BB94FF0FF324FF0FF33C4E90223002001F039
:200C2000A1FED4E905309847002001F099FE25696DB1D4E90212B2F1FF3F08BFB1F1FF3F97
:200C40000FD0691842F10002C4E902123546002001F088FE002DCAD00748214602F03AFB88
:200C6000C6E70025F3E7B3F1FF3F08BFB2F1FF3FBDD0F1E7882A002028990E0013B5114B14
:200C800011491868019008231048582202F012F9044698B90E4A0F4801A901F08FFE044633
:200CA00060B90C48012101F071FF01230A4A0948194601F0CDFE094B01221A70204602B047
:200CC00010BD00BF24990E008C2A0020E42A0020A90D0E0010000020FFFF7F00882A002076
:200CE00030B56AB103684FF0FF344FF0FF355A614A1E5142C3E9024551411961002030BDE2
:200D00000720FCE7F8B50446002017460D4601F027FED4E90223B3F1FF3F08BFB2F1FF3F80
:200D200015D1FFF727FF281841F10001C4E902010126002001F016FE5EB12369A76103B1EB
:200D4000256121460020BDE8F840FFF72FBF0026EFE73046F8BD38B50446002001F000FE58
:200D6000D4E90223B3F1FF3F08BFB2F1FF3F1FBF4FF0FF324FF0FF33C4E90223012508BF89
:200D80000025002001F0EEFD2DB121460120BDE83840FFF70BBF284638BD0000014801F052
:200DA00014BF00BF100000202DE9F743064601F0F6FE40B1624AD2E9003113F1807341F13E
:200DC0000001C2E900310021304601F0F8FE38B15C4C236823B12068FFF704FF00232360A1
:200DE0000121304601F0EBFE20B1FFF7C3FE564BC3E900015548534C01A902F0A8F84FF0F4
:200E0000FF384FF0FF39A0B9DFF844814D4D404602F076FA002800F08580D0E90223B3F10E
:200E2000FF3F08BFB2F1FF3F32D1404602F062FAEDE70378012B20D0022B08D1444D284685
:200E400002F058FA002877D0C0E90289F7E75BB94168D1E90223B3F1FF3F08BFB2F1FF3FA7
:200E600002D03B4802F036FA01A9384802F09AF801A9364802F06BF8C5E741682368994215
:200E800002D100232360EFE7314802F03CFAEBE7296891B12968D1E9020182428B412FD2DE
:200EA0002B68D3E90223B3F1FF3F08BFB2F1FF3F03D02968404602F00DFA404602F01AFAC5
:200EC000D0E902490746FFF755FE201A69EB0109012879F1000318DBB0F5350F13D3FFF792
:200EE0005DFF1C4A02441C484FF49603002101F0D3FD90B92B6813B9304601F0A1FD2F608C
:200F000003B0BDE8F0832246EDE71348002101F04BFE3846FFF766FE01E00D28F9D000233A
:200F20002B6074E7074B1B68002BE9D1304603B0BDE8F04301F088BD084B01221A7093E760
:200F4000802A0020002B0020F82A0020E42A002028990E00FFFFB40010000020882A002089
:200F600043681B6818470000024B5B6803B11847704700BF042B0020020600F00F034CBFE7
:200F800002480348DB001844704700BF102B0020582B002008B5FFF7EFFF016009B14B68A2
:200FA0001968416008BD00000378052B0BD1074AD2F88434D2F88024D2B222B9044ADBB248
:200FC000052B08BF1046034B1B681847007002404C990E00042B0020012805D0022805D0A3
:200FE00030B90448FFF7E0BF0348FBE70348F9E7704700BF48990E0044990E0040990E0098
:20100000FFF7D2BF0148FFF7CFBF00BF50990E00024B0146D3E90002104700BF582B0020BB
:2010200038B5831EDBB2062B98BF1A4A1A4D98BFD25C2B78A3F10203DBB288BF0022062B5A
:201040009ABF1449CB5C00239342044603D0B2B1124802F013FA022C14D0A4F108004242AF
:2010600042412B78022B0FD0A3F108014B424B41934202D052B103F0E3F82C7038BD02F08D
:2010800027FAE8E70122ECE70123F1E703F0CEF8F3E700BF34990E00A92B00201800002015
:2010A0002DE9F04F87B000260546884691461F4602966B6800225C682946012302A8A047B4
:2010C000044638B98DF8060004908246564503D8052028E00136ECE76B680DF10602D3F89D
:2010E00004B02946012304A8D8476B680DF10702D3F804B02946012304A8D8479DF807305B
:2011000043459DF8063013D14C450FD1109A13603B7087F801806A68023B54682946BA1C4F
:2011200004A8A047002007B0BDE8F08F0134E4B26A68023BD2F804B02946002204A8D8476D
:201140009DF806309A44C1E72DE9F74305462B4803F08CF8044600284CD1294B1870294BBA
:201160001860294B014618604822284807F04CFC27484822214607F047FC264B95B9264A02
:201180001D72C3E90025002002F0B6F918B1852801D003F0F1FD214F002697F8089007F151
:2011A000090814E095E8070083E807000028EAD1194A1A60E7E7A37823443946985CFFF7BB
:2011C000E9FE01356378EAB29342F4D80136F4B2A14504D904EB440444440025F2E70B234F
:2011E0000E488DF8043001A9FFF7BAFE044608B102F012FF204603B0BDE8F08301100E0032
:20120000A92B0020A02B0020A42B0020102B0020582B0020042B002049150E006C990E0034
:2012200010B502F0BFFF10B90823184610BD02F0C1FF04460028F7D1044802F078F9034636
:201240000028F2D003F098FD2346EEE73C990E0002F0ECBE03F012BB4FF08043D3F8382476
:20126000920702D50348FFF79FBED3F83824D107F4D4704755990E0007B5822301A88DF857
:201280000430FFF791FE03B05DF804FB2DE9F74300F1090190F80890054600270E46FBB2B0
:2012A0004B452AD291F801800024E3B298450AD98B780A190134D05CFFF75EFE0368002BB0
:2012C000F3D0112028E001370331E8E7A27823442946985CFFF75EFE01376278FBB29A4206
:2012E000F4D808F101082B7A5FFA88F4A34216D904EB440434440027EFE74FF00008F2E706
:2013000013681A68002AFBD11D6001A90B2328468DF80430FFF724FE03B0BDE8F083014B2F
:20132000EFE700BFA02B0020024B1878003818BF01207047A82B0020030710B5044604D485
:2013400003F0ACF8204603F05FFB2046BDE8104003F006BB03F0D2BA014B1868704700BF73
:20136000A02B0020F0B50A4B0246186878B1057A0023861DDCB2A54201D80368F5E7013389
:2013800003EB4307F75D9742F4D101B10C70F0BDA02B00201146FFF7E3BD08B500F00F03B1
:2013A000082B07D8FFF7E8FD006818B1BDE80840FFF7D6BD102008BD38B5054B05461C6898
:2013C00004B938BD29462046FFF7CAFD2368F6E7A02B002038B5074B05461C680CB906207D
:2013E00038BD29462046FFF7BBFD0628F8D12368F3E700BFA02B002013B50446019102F0D9
:201400007BFF50B1064B1B78022B06D10199204602B0BDE8104002F07FBF082002B010BDEB
:20142000A92B002013B50446019102F065FF50B1064B1B78022B06D10199204602B0BDE87E
:20144000104002F0DDBF082002B010BDA92B0020F8B543689B6805460C46164613B92EB114
:20146000072002E098470628F9D0F8BD2B7AA34213D9093504EB44042C446778F3B29F4218
:2014800001D80020F1E762789A4208D9A219A378D05CFFF751FF0136F0E77378FFDE0023A3
:2014A0001B78FBE770B54368DB6805460C4603B198472B7AA34213D9093504EB44042C4419
:2014C00000256678EBB29E4200D870BD62789A4209D96219A378D05C03F010FA0135F1E722
:2014E00000235B78FFDE00231B78FBE743681B6903B118471846704770B5084B1C6804B971
:2015000070BD267A0025E9B28E4201D82368F5E700222046FFF79CFF0135F4E7A02B002019
:2015200070B5084B1C6804B970BD267A0025E9B28E4201D82368F5E72046FFF7B3FF013511
:20154000F5E700BFA02B002038B503780F2B044610D9A3F1800283F08003052B00D938BD26
:20156000052AFCD8DFE812F067002C00490073007E00E0000F2BF2D801A252F823F000BF2F
:2015800087160E00B7160E0017170E00DB160E00F9160E0029170E003B170E005F150E003D
:2015A00065170E0069170E006D170E005F150E005F150E005F150E005F150E0033170E0021
:2015C0006B48FFF725FD6A48FFF7F6FE0D20FFF7CBFCFFF7A5FF00F0D4FE664B1B6853B91E
:2015E000654B187A00F0010002F0B8FD0120BDE83840FFF715BD0120F4E7FFF791FF03F096
:201600001BF90020FFF70CFD5C48FFF7D5FE5B48FFF7FEFC0E20FFF7A7FC594B1B78023B5C
:20162000DBB2062B9BD8574AD35C002B97D0BDE8384001F04DBF524B1B78062B05D003F0D4
:20164000FD03052B8BD10220D1E70820CFE74C4B1B78032B83D103F02BF900283FF47FAFFA
:201660000420C4E7464B1B78032B05D103F020F910B10420FFF7D4FC02F0A6FD00283FF4CC
:201680006EAF0620B3E73E4B1B78032B01D0082B02D13D48FFF758FF0020FFF765FC354B83
:2016A0001D68002D3FF45BAF28462146FFF758FC2B685D68F5E7FFF733FF00F059FE022057
:2016C000FFF7AEFC0120FFF74FFC2046FFF7A0FC2046BDE83840FFF76FBE294B1B78082B30
:2016E00006D10220FFF79CFC02F0B4FD0320EAE70520FFF795FCF9E70320FFF735FC23488B
:20170000FFF786FC2148FFF757FE1D4B1B78062B99D107206BE70320FFF782FC0220FFF7DF
:2017200023FC2046FFF748FE2046BDE83840FFF76FBC0F20FFF718FCCAE78078FFF71CFC54
:20174000214643680068984700283FF408AFA07802073FF404AF03073FF501AFBDE838400C
:2017600002F08EBE0820E5E70920E3E70A20E1E754990E00A42B0020042B002053990E001F
:20178000A92B002034990E0052990E0051990E00C36903B11847704703680022C3E91E221A
:2017A000C3E920221A845A62DA6203F134025A67704710B5044658B90868037B202B09D1D0
:2017C00000F10E010722183007F008F8204610BD0320FCE70620FAE74360CA699A420DD3CF
:2017E0008A690260C8691A448A610A6FC01A1A44C86100380A6718BF0120704701F12802CC
:2018000002608B6700207047F0B504680D7A002C00F08780A4F213347C2C00F222837C2C1E
:2018200000F21F83DFE814F085008F009D00A900B500C100CD00D9001D031D031D031D0353
:201840001D031D03EF00FB001D031D031D031D031801240132011D031D031D034501510175
:201860007F011D031D031D031D03670173017F011D031D031D031D031D031D038B011D03A0
:201880001D031D031D039F01AB01B701C301CF011D031D03DB01E701F301FF010B021D032B
:2018A0001D031C022802340240021D031D034C025802640270027C021D031D031D031D038A
:2018C0001D031D031D031D031D031D031D031D031D031D031D031D031D031D031D039B028B
:2018E000A7021D031D031D03C0021D031D031D031D03DD021D031D031D031D03DD021D033F
:201900001D031D031D031D031D03E902F5021D031D031D031D0313031D031D031D031D032F
:2019200013030824047123B940F2133303600120F0BD0AB1047914700B24012B04710ED8F9
:201940004FF44573F2E700240AB10679165501340E7D06719C4205D340F21533E6E7012491
:20196000F2E700240AB106791655013402269C42067103D340F21633D8E700240AB10679A5
:201980001655013402269C42067103D340F21733CCE700240AB106791655013402269C4221
:2019A000067103D34FF44673C0E700240AB10679165501344E7E06719C4203D340F21933C4
:2019C000B4E700240AB106791655013400269C42067103D340F21A33A8E700240AB10679B1
:2019E00016559D4E0027013437709B4E3678AE4202D340F29A3399E70926A342067103D84D
:201A000040F2213392E700240AB106791655013404269C42067103D340F2223386E700245C
:201A20000AB1067916558C4E0F7A3678DFF82CC2B74204F1010440F2188201F1090706EB79
:201A4000460607EB060E9C42BE5DCCF800E0067103D340F2273369E700240AB106791655A5
:201A6000013400269C42067103D34FF44A735DE700240AB106791655784E3668013476784C
:201A800006719C4203D340F229334FE700240AB106791655714E0F7D36683678B74204F109
:201AA00001041ED102269C42067103D340F22D333CE700240AB106791655013402269C4226
:201AC000067103D340F22E3330E700240AB10679165501344E7E06719C4225D340F22F3364
:201AE00024E78F7DB74223D10A269C42067103D34FF44D731AE700240AB106791655013485
:201B000000269C42067103D340F235330EE700240AB106791655013400269C42067103D396
:201B200040F2363302E700240AB10679165501340026A342067103D840F23D33F6E6002424
:201B40000AB106791655454E0F7D36683678B74204F1010440F0E98005269C42067103D393
:201B600040F24233E2E600240AB106791655013424269C42067103D340F24333D6E60024FB
:201B80000AB106791655013400269C42067103D34FF45173CAE600240AB106791655013465
:201BA00010269C42067103D340F24533BEE600240AB106791655013401269C42067103D326
:201BC00040F24633B2E600240AB106791655013405269C42067103D340F24933A6E6002410
:201BE0000AB106791655013424269C42067103D340F24A339AE600240AB106791655013469
:201C000001269C42067103D340F24B338EE600240AB106791655013403269C42067103D3FC
:201C20004FF4537382E600240AB10679165501348E7D06719C4203D340F24D3376E60024CD
:201C40000AB106791655013404269C42067108D34FF454736AE600BFAB2B0020B02B002046
:201C600000240AB106791655013424269C42067103D340F2513359E600240AB10679165533
:201C8000013402269C42067103D340F252334DE600240AB106791655013402269C42067157
:201CA00003D340F2533341E600240AB106791655013405269C42067103D340F2563335E645
:201CC00000240AB106791655013424269C42067103D340F2573329E600240AB106791655FD
:201CE000013406269C42067103D34FF456731DE600240AB10679165501340E7D06719C426B
:201D000003D340F2593311E600240AB10679165501348E7D06719C4203D340F25A3305E65A
:201D200000240AB1067916550134534E36687778524E3770524E00273770514E37784F4ED7
:201D40003678B74204D34F4F3E7801363E704CE60726A342067103D840F26E33E6E5002474
:201D60000AB106791655013405269C42067103D340F26F33DAE500240AB1067916553E4E4B
:201D80003F4F36683F7896F801C0BC4504F1010470D996F802C03E449C4216F80C6006712C
:201DA00003D340F27333C1E500240AB106791655314E0F7D36683678B74204F1010406D1E5
:201DC00003269C4206710DD34FF45E73AEE58F7DB7420BD102269C42067103D340F27D33E8
:201DE000A4E500240AB10679165501344026A342067103D84FF4617398E500240AB10679CD
:201E00001655013400269C42067103D340F285338CE500240AB106791655174E0F7D36681E
:201E20003678B74204F1010407D10E6A9C42367806710DD340F28A3378E58F7DB7420BD1A1
:201E400000269C42067103D340F28F336EE500240AB1067916550134094F3E7801363E70F9
:201E60006BE700230360184662E50023CCF800301B78FFDE0023FBE7B02B0020AA2B002069
:201E8000AC2B0020AB2B0020037A012B08D9427B012A00F10C0306D9827B13445878704729
:201EA00000235B78FFDE00231B78FBE72DE9F0470B7888B005460E460E2B1AD8DFE813F01B
:201EC00060003D016000600019000F00A800190019003A01190060006000600060004A780C
:201EE000D1094FEA521335D013F0030303D0012B21D006241BE002F01F02012AF9D1B47813
:201F0000062CF6D105A8039300F0AAFC03AB0093F2783179034607462846FFF7C1F80528BA
:201F200005D0039A3946701C00F046FA0446204608B0BDE8F087B378212BDAD1B6F8072079
:201F4000072AD6D10168701C183108B0BDE8F04700F032BA012BCCD1B3780768202B11D06C
:201F6000222BC6D1B6F80730002BC2D13A8CB6F803303B8402F0010203F001018A4222D1CB
:201F80000024D4E7B6F80720072AB2D13B73B6F80730DBB27B7300200E37CDE905730790A1
:201FA00000F0DEFC05A90020FFF726FA044630B9684B03A9CDE9033500F0ECF904460020B4
:201FC00000F0D0FCB3E78CB2C1F10301C9B2FFF7DFFB002CD4D12B7A012B40F2B4806B7B7E
:201FE00005F10C02002B00F0B080AB7BD05C02F079FB2846FFF748FF02F074FB07F134039F
:20200000C7E91E44C7E920447C62FC627B678EE7037A002B00F09B80837A00F10901002B31
:2020200000F09380C27AB3788A5C9A42A8D01B06F77809D527B1032F14BF0324002476E709
:202040000121FFF7A5FB9BE707F0FD03012B97D0002F76D10668FFF717FF3F4B059306F1B3
:202060000C030693B46A8146C4B9F36FB467C6E91F43F36A63B1D6E90B0106F1240383E803
:202080000300F46205A94846FFF7CCF9044600E0746200212846FFF77BFB48E7D6F884A0D4
:2020A000706A544528BF544606F134082246414606F094FBF36F2344C6E91F73AAEB0403DF
:2020C000B367F36A444474672BB306F1240406F12C0898E8030084E80300B36F706AF762B7
:2020E0001BB9736A002BCDD116E0B26A716F9A4214D806F073FBB36AB26FC6F88030D21AB0
:20210000B267726F1A44726700212846FFF740FBF36A002BDDD173620024BAE71A4606F0A8
:202120005DFBB26FB36AF2679B1AB362736A13447362D6E70321FFF72BFB2846FFF72CFB55
:202140001EE70324F3E66378FFDE1B78FCE75B78FAE700BFB3170E00D9170E001FB50368C4
:202160001B8CDC0714D5037A012B13D9437B00F10C0493B1837BE05C9306CDE901120CBFED
:202180000123002301A90393FFF736F904B010BD0820FBE700235B78FFDE1B78FCE70000BF
:2021A0002DE9F3410468238CDB0780460F46164646D5002000F0D4FB656A002D38D1A16F52
:2021C000B14213D3616F3246384606F007FBA36FC4F880609B1BA367636F334463670020C7
:2021E00000F0C0FB284602B0BDE8F081C4E909764046FFF749FE134B009304F10C030646CE
:20220000019369B10A463846616F06F0E7FAA36FA26AD21AA262626AC4E91E531A44626281
:2022200069463046FFF7FEF8051E08BF9225D6E7E36A1BB9C4E90B769225D0E71125CEE787
:202240000825CFE7D9170E00002070472DE9F04F2DED028B85B04B68019280460C466BB913
:202260000B681B681B684BB98D683DB9C0E90055284605B0BDEC028BBDE8F08F02F0FCF895
:20228000019BE7689F4228BF1F4604F110034FF0000A08EE103A8146564601254FB3A368FF
:2022A0006168BB429B4628BFBB4629B35A4609EB060006F093FA00236360A268E368A2EBCE
:2022C0000B02A3EB0B03A260E360A7EB0B075E440ABBBAF1000F03D0226812681268226078
:2022E000DBB12368DBB963601EB1019BB34288BF0025C8E90096BBE7002BDED021684B68A6
:2023000018EE100AD3F804A009EB06025B46D0474FF0010AD1E7002BC0D10025BEE70023CF
:20232000029321684B680022D3F804B002A80123D84708B92061B1E7A3680133A360F0E74B
:20234000084B1A7882420CD0052818BF064A187018BF137805481CBF23F002031370FFF701
:20236000F3B87047C02B0020DC2B00207C990E0008B50020FEF7E0FFBDE808408020FEF773
:20238000DBBF08B50020FEF7E5FFBDE808408020FEF7E0BF38B505460C4602F0FFF8A8426F
:2023A00003BFD4E90001034BC3E90001102008BF002038BDE02B00207FB5C38893421E46B3
:2023C00028BF164693420D46144620D9802001F08DFFB4FBF0F202FB1044B4FA84F46409AD
:2023E00000200394CDE9015600F0BAFA01A98020FFF702F8044620B906498020FFF7CAFF6A
:202400000446002000F0AEFA204604B070BD0024E6E700BFB0990E002DE9F04F0B780E2B5B
:2024200089B00D4613D8A3B1013B0D2B11D8DFE813F012001A00160010002A00F601100027
:202440001000100010001A00E001E401F401852B13D00624DDE10320FFF772FFF9E7A948A1
:2024600000F0E2FD08B90024D3E1A74B0122DA65BFF36F8FBFF34F8FF5E7A44B1B78032BD4
:20248000E7D10420E8E70523A14D8DF814300DF1150002F013F800232B609DF8153003F027
:2024A0001F07032F00F25E81DFE817F00400F60053013E0013F0600FC3F3411834D1DB092F
:2024C0009DF8161000F0A280062916D0082900F08F8049BB8F4C0222204606F095FA237861
:2024E00043F0010222708C4A1278920744BF43F003032370022287490EE09DF81830022B60
:2025000016D0032B64D0012B0ED1BDF81B30002B00F06C81814912220DF11500FFF74CFF0E
:202520000446062C40F0268105A8FEF753FF0EE1BDF81B60002E00F05981092E28BF0926F0
:20254000FEF70AFF4FF00909044654BB714C74493246204606F042F92771A4F80290FEF78F
:20256000E3FE18B1E37943F02003E371FEF7F4FE6C4BC3E900049E60BDF81B20DA60002015
:2025800000F0EEF968498020FEF74CFF044620B966498020FFF7FEFE0446002000F0E2F93A
:2025A000BFE7CDF80C804FF0000A63680022D3F804B02146012303A8D84730B9237A1F4431
:2025C0002368D1441C68FFB2BFE70AF1010AECE7BDF81B30002B00F00981BDF819109DF88F
:2025E000170000F08DF9014600289DD0027893E7464A1278052A03D1464A137001227AE7CA
:20260000042A91D1434B83F80080F7E703290FD009292BD0012987D1BDF81730012B83D18D
:20262000FEF782FE60B13C4A137823F002030FE0BDF81730012B7FF477AFFEF775FE18B902
:202640000F2401F0A1FFE4E0334A137843F0020313702B68002B00F0C98001F09FFF04465F
:2026600000287FF400AF01F04FFFD2E0274B1B78043B012B01D90824E3E79DF817302BB91F
:20268000FEF74EFF0420FFF75BFEE2E7012B57D1FEF732FF0520F6E79DF8190003A9FEF7F1
:2026A00061FE064608B91024CBE79DF80C1005AAFEF770FE062804465CD19DF8152012F094
:2026C000600FBED1114B9DF80C1018789DF81630D2092DD07BB10A2BB3D10528CBD1304688
:2026E0000192FEF703FF0B49019A08700DF11500FFF762FE2BE00528BDD106490B800222BC
:20270000F4E700BFE82B002000700240C02B0020E02B0020EC2B0020DC2B00209C990E0063
:202720007D990E00C42B0020B8990E00B0990E000B2B86D105289ED1BDF81730FF2B01D987
:2027400007247EE79DF817203046FEF781FE044610E09DF81900030706D19DF8153013F08D
:20276000600F0BD006246CE705A9FEF716FE06280446F2D0002C3FF46CAF62E79DF8162013
:20278000344B9DF819401B78012A1DD0032A0CD0002AE7D1052B02D027077FF46CAF204612
:2027A00001F07AFE2C490880A9E72607DAD4BDF81720002AD6D12007D4D0052B7FF45BAF13
:2027C000204601F05DFE44E72107CBD4BDF81720002AC7D12207C5D0052B7FF44CAF2046E5
:2027E00001F05CFE204602F00FF932E701F0C2FE39E60020FFF7A4FD35E64FF08043D3F8A6
:20280000384414F0010401D00220F3E70120FFF797FD204609B0BDE8F08F0120EAE7C87846
:2028200003283FF416AE0D4E33688BB10022716832609847044600287FF403AF336823B1D2
:20284000AB78002B7FF40FAE0DE701F093FEE0E70E24F6E6C02B0020EC2B0020E02B002042
:2028600008B1402303600148704700BFEC2B002070B54FF0805286B0D2F8A830D2F8A42047
:2028800000926FEA83436FEA93430B4A0B4E9BB20D2102A806F04AF902AD002402A806F0D9
:2028A0008FF9844201D306B070BD15F8013B06F8013B0134F2E700BFC0990E00383E0020C6
:2028C00010B50E4B53F8204023780BB9A01C10BD0020FFF7C5FF013C00235A1CA15C39B9A8
:2028E000DBB201335B00DBB243F440730380EEE7D3B220F813101346EFE700BF189A0E007F
:20290000034608B9FFF7DCBF012807D0022805D0032803D0042801D0052809D1054800EBE3
:202920004303587820B1044B53F82030002BE9D100207047309A0E00189A0E0072B6024AFE
:2029400013680133136070472C2C0020034A1368013B136003B962B6704700BF2C2C0020ED
:20296000FFF7ECBFFFF7F2BF30B53AB11368DB430A4D0144814204D1D84330BD4FF0FF33F9
:20298000F6E710F8012B5340082213F0010418BF2C46013A84EA5303F7D1EBE72083B8ED37
:2029A000435882B03BB10023435043580193019B012002B070471846FBE7000010B51C4CE6
:2029C000437944F823201B4C04EBC3031B796BBB03680A88C3F8082590F904308A78002B17
:2029E0004FEA4212ADBF03F1604303F00F03124903F56143B9BFD2B2CA54D2B283F800230F
:202A000090F90430002B08DB0122590903F01F0302FA03F3094A42F82130437904EBC30211
:202A2000012144F833001171002010BD0820FCE7382C0020302C002014ED00E000E100E0E9
:202A4000036801221A607047036801225A607047F7B504684FF480358D40C4F80853046858
:202A6000C4F8485301F15004A4000668A4B20027375134590194019C046801F5A87122F056
:202A80007F4244F821200268C2F8445313B10368C3F8045303B0F0BD2DE9F34799464FF42A
:202AA0008038036808FA01F8C3F848830368C3F8088322F07F4502680E46D2F8041502EB5D
:202AC000860206F15007D2F84035C2F84015BF000268BFB24FF0000A42F807A05B1AD2596E
:202AE000009223F07F43012B009A04460BD1264B4FF4806043F001039847236843F807A06C
:202B0000DB590193019B2368D3F80475C3F84483EB1B23F07F43012B06F5A876236819D16B
:202B2000013543F82650184B4FF4806043F0010398472368D3F804359F4209D12368C3F882
:202B4000448323680020C3F8048302B0BDE8F0870D20FAE743F826502068D0F804156A1A47
:202B6000013AC9F1FF1322F07F4203F57F439342EED3002AE2D1013540F826502368D3F814
:202B800004359942D9E700BF409A0E0002680223C2F8443311B10268C2F8043370470068BE
:202BA0004FF48271FFF7FCBE4FF4803303FA01F10368C3F848130368C3F808137047503150
:202BC0008900006889B2FFF7EBBE0368D3F804057047000090F90430002B09DB5A090121E3
:202BE00003F01F0301FA03F34032024941F82230704700BF00E100E0024B034A1B681068BB
:202C0000184700BF382C0020302C002038B51749174B0A68002A25DC5C789A88D87BB4B19C
:202C20005C7B251A954207DC00225A705A699C8002B105320A6001E002449A8019790D487D
:202C400000F031F980B1BDE8384002F095B89C7B2518954204DB01225A709C801A69E7E769
:202C6000121AEAE7FF3AE5E738BD00BF902C00203C2C00206C2C002038B543780546002B64
:202C80003DD082789A423AD2C378002B37D0C368002B34D01B4C54220021204605F0B4FE73
:202CA0001422294604F10C0005F098FDEA78AB781344A3804FF480732380EB68A360237B18
:202CC00084F82030EB68A3622B696362FF2384F821300D4A0D4BE36204F1200104F1300059
:202CE00000F08AF860B90123A370A978EB78194404F13000C9B2BDE8384000F0D4B80720D1
:202D000038BD00BF3C2C00200D2C0E00489A0E000146014800F0A4B86C2C0020014800F073
:202D2000B3B800BF6C2C0020014B1861704700BF3C2C0020014B5861704700BF3C2C0020EB
:202D40000178036AC26821B1C3F80C25002343707047C3F80825F9E710B5037D0446002B96
:202D60003FD183697BB9E278A378934213D12178236AE26861B1C3F8082501236370A37879
:202D8000053323611BE098472379022BEBD010BDC3F80C25F1E71AB92046FFF7D1FFEEE7B4
:202DA0002078236AE168C8B1C3F80815A37813FB02F31B1201210533617023612175237928
:202DC000022BE4D1E369216918682246FDF79AFF0028DCD0BDE8104001F0CEBFC3F80C15A3
:202DE000E4E7FFF7ADFF002382780375C378D31A53431B12C4E7000070B582610B788D68BB
:202E000003708B68144AC0E902334B6803624B7883700446C868E0610021FDF761FF40B919
:202E20000E4E032135B92046FFF78AFF01232371284670BDEB070BD51F288BBF00F01F0377
:202E4000034632464FF0A04203F5E07342F8231001306D08E6E700BF592D0E0000030050BF
:202E6000022370B50371C1600D46FFF769FF81688669044629430025816005758561FFF7D8
:202E80006BFFA661284670BD38B5C36904461868FDF761FF05462046FFF752FF0DB901230D
:202EA0002371284638BD83788B4226BFC17000200720704710B561B1B2FBF3F403FB14249E
:202EC000A4B244B9C0E9001484608281C381204610BD0E20FCE70920FAE737B550E8013F05
:202EE0009DB2C48925448489A54228BF2D1B0489A54202BFBFF32F8F002207E0C5EA030545
:202F000040E80154002CE9D14FF001028DF803200193019A0A609DF8031001F0FF0321B15E
:202F2000006810FA82F003B030BD1846FBE70A884B889A4209D150E8012FC2EA024240E832
:202F40000123002BF7D1012070470020704737B550E8023F1FFAA3F5C488A54202BFBFF3EF
:202F60002F8F00220DE0C48925448489A54228BF2D1BC3EA054540E80254002CE8D14FF012
:202F800001028DF803200193019A0A609DF8031001F0FF0321B1006800EB124003B030BD3B
:202FA0001846FBE70A884B889A4209D150E8022FC2EA224240E80223002BF7D10120704725
:202FC0000020704710B5034653E8000F0A4643E8002494F0000FF7D110BD10B5034653E8B2
:202FE000000F40EA010243E8002494F0000FF6D110BD10B5034653E8000F00EA010243E8AF
:20300000002494F0000FF6D110BD10B5034653E8002F02EA010043E8000494F0000FF6D177
:2030200010BD0121FFF7D9BF0021FFF7E2BF0021FFF7EBBF10B590B1D0E9012301689B1A99
:20304000DBB20A60013BDBB2FF2B026802D10020107110BD11684C1C14600B70F2E70E2004
:20306000F7E738B504460020FFF77AFC2268616813688B4215D9591E116013F8013C228A4A
:20308000E56802FB03552268A36811685B1A1179DBB2994200D213710020FFF763FC2846E0
:2030A00038BD0025F8E738B5054600200C46FFF757FC2A681368591C1160E968641A298AAF
:2030C000B4FBF1F41C70BDE838400020FFF74ABC0B4610B4114628B123B103601B685DF843
:2030E000044B18470E205DF8044B70472DE9F04108B302B3D0F800E0BEF1000F1ED0FBB1E2
:203100004568D5F80480B3FBF8F508FB1535BDB942EA010C1CF0030F14D1C568A94211D31B
:203120004D1EEC180569AC420CD8DEF80C40A446BDE8F04160470E20BDE8F0810820FBE709
:203140000920F9E71020F7E7F0B5D8B1D0F800C0BCF1000F18D0CAB14568D5F800E00EF12A
:20316000FF350D4214D1C568A94211D34D1E0EFB02540569AC420BD8DCF81040A446BDE82F
:20318000F04060470E20F0BD0820FCE70920FAE71020F8E770B550B90E4D0F4C0026641BD0
:2031A0001423B4FBF3F4B44208D1002010E00368002BF1D0BDE87040DB6918472B6813B9B5
:2031C00001361435EFE7DB69284698470028F7D070BD00BFFC00002010010020014B4360F1
:2031E000002070474C9A0E000846704700207047024B1868003818BF01207047942C002094
:2032000008B50248FFF713FF002008BD942C002008B510461A4605F0E1FA002008BD0000B2
:203220002DE9F041804686B011480F4616461D46FFF7F7FE0446C8B9AA083146384600F091
:20324000B9F90B48FFF7F3FED8F8083053B101228DF800200C9A0592CDE90147CDE9036555
:2032600068469847204606B0BDE8F0811124F9E7942C00202DE9F043814687B014480E46A3
:2032800015469846FFF7CDFE0446F0B90746BD4215D10F48FFF7CBFED9F808305BB10222C0
:2032A0008DF800200022CDE90126CDE90325CDF8148068469847204607B0BDE8F08306EB80
:2032C000073000F049F90137E1E71124F3E700BF942C002070B5446806460D46206818B116
:2032E000B3682946984718B923682B60256070BD2468F3E74368186808B102681A607047E7
:203300004368186870474368186800B97047884203D102681A600120704703460068F4E74A
:20332000F0B578B371B36BB300241C608E18DB274FF0DC0C4FF0DD0E1A688E4202F1010498
:2033400000EB020504D11C60C0232B700020F0BD0D78C02D05D0DB2D0CD01C600C788454DC
:2033600006E01C6087541A68541C1C6000F802C00131E1E71C6085541A68541C1C6000F833
:2033800002E0F5E70E20E2E710B580B3D0E902239A422ED00378012B0FD0022B21D053B918
:2033A000C02928D0DB2902D10123037003E04368541C84609954112006E0DC2905D0DD29F8
:2033C0000AD0022303700B2010BD511C43688160C02199540023E8E7511C81604368DB21D5
:2033E000F7E7C029E7D1002303708360E3E70E20EAE70420E8E71846E6E7000038B5074CAE
:20340000051E04F1080318BF1C4623682BB11A6822605B6828469847F7E738BDA02C002016
:2034200020B9054B01225A70FFF7E8BF012802D1014A9070F8E77047982C002038B50C4CD3
:2034400023789BB90B486360A3602361E36000F0E7F8054600F0F0F801232370064BD3F8D8
:2034600000340BB10123A370284638BD8525F5E7982C002021340E000000014038B5134C68
:203480006378054603F0FF0073B115B16B68002098470020FFF764FA636801336360002002
:2034A000BDE83840FFF75EBAFFF75AFA25B1A26813463BB92A60A5606368002BECD100F038
:2034C000D1F8E9E79D42F7D01B68F2E7982C002038B5084C0020FFF743FA6368013B63600F
:2034E000656815B900F0CAF86570BDE838400020FFF738BA982C002010B5074C23784BB9EA
:20350000064B002808BF184600F008F908B90123237010BD8520FCE7AC2C0020789A0E0037
:2035200008B500F02AF9BDE8084000F02DB907B50190FFF7F5FF019800F012F900F016F92E
:20354000002003B05DF804FB024AD2F80034002BFBD0704700E001400A4908B50223C1F83E
:203560000435BFF36F8FBFF34F8FC1F80805FFF7EBFF0023C1F80435BFF36F8FBFF34F8FD7
:2035800008BD00BF00E0014010B5094C0123C4F80435BFF36F8FBFF34F8F0160FFF7D4FFE9
:2035A0000023C4F80435BFF36F8FBFF34F8F10BD00E0014070B50E4E01231546C6F80435CE
:2035C000BFF36F8FBFF34F8F0024AC4207D10023C6F80435BFF36F8FBFF34F8F70BD51F8F1
:2035E000243040F82430FFF7AFFF0134EDE700BF00E0014010B5034653E8000F00EA010219
:2036000043E8002494F0000FF6D110BD00F18040002382B0036003680193019B02B07047C7
:20362000044A137923B90121106091801846704785207047B02C0020084B1A68D20704D43E
:20364000C02283F8002301221A604FF080420123C2F81835024A1370704700BF00E100E01B
:20366000453E002008B54FF48070FFF7CFFF4FF080430122C3F804231A6008BD4FF08042AC
:20368000012108B54FF48070C2F80813FFF7BEFF5160D2F80C3403F00113B3F1011FF8D042
:2036A000014B00225A7108BDB02C002010B54FF08041D1F8003163B14FF48070FFF7A6FF6F
:2036C00001220D4BC1F80823587910B95A711B6898474FF08042D2F8043163B14FF482707B
:2036E000FFF794FF0223C2F80833034BBDE810401B680120184710BDB02C002000F1804364
:2037000082B01A68002A14BF0120002004D000221A601B680193019B02B070470E4A137848
:20372000C3B903784FF08041C3F34003C1F88035037803F00103C1F87835084B1968C907AF
:2037400004D4C02183F8001301211960012313700020704785207047463E002000E100E048
:20376000014B02681A607047C02C00204FF080434FF46072C3F8042370474FF080434FF461
:203780006072C3F808237047014B00221A607047C02C002010B54FF08043D3F804436207CD
:2037A00007D54FF48470FFF7A9FF10B11E4B1B689847A30608D54FF48A70FFF79FFF18B1AC
:2037C0001A4B00201B689847600608D54FF48C70FFF794FF18B1154B01201B689847210624
:2037E00008D54FF48E70FFF789FF18B1104B00201B689847E20508D54FF49070FFF77EFF0D
:2038000018B10B4B01201B689847A3050AD54FF49270FFF773FF28B1054BBDE810401B6831
:203820000220184710BD00BFB82C0020BC2C0020C02C002008B5FFF7ADFFBDE80840FFF721
:2038400035BF0000020713D400F00F0310F0800F084A0BBF03F5887303F5847302EB830382
:2038600052F8230008BF5868431E584258417047002070470070024010F0080F074B06D041
:20388000D3F8C00410F4803F18BF0020704700F00F0000F5947053F820007047007002405C
:2038A0004FF08053D3F83001A0F1080358425841704700004FF08053D3F83021082A06D13D
:2038C000D3F83431052B04D8034AD05C7047002070470120704700BF799A0E0030B54C6854
:2038E0009C4209D2002545600968016093420CD1201E18BF012030BD43600D6805600868B1
:20390000E41A18444C600860F0E70020F3E74B689A4228BF1A460B68C0E9003248680B6821
:20392000801A48601A4400380A6018BF012070474B689A4228BF1A4662B10B68C0E900325F
:203940004B689B1A4B600B68101E13440B6018BF012070471346F1E7054B10F0800FA3F19E
:20396000900208BF134600F00F0003EB00107047602D002010F0800F14BF0023102300F08C
:203980000F0018447047000008B5FFF789FF18B1034B0022C3F81C2C024B00221A7008BDD0
:2039A00000700240C52C002007B5094A00231370084AADF8053013708DF8073001238DF87B
:2039C0000430054B01A81B68984703B05DF804FBC42C0020F42D0020F02D0020704700000C
:2039E000F8B54B680B4F934228BF13460C461D4606461A460968384604F0F0FEC6E90075A2
:203A000060682268401B60602A440038226018BF0120F8BDF82D0020F8B54B68934228BF03
:203A2000134606460D461C468BB10A4F09681A46384604F0D3FE376074606B681B1B6B6044
:203A40002B68201E23442B6018BF0120F8BD0360F2E700BFF82D002008B50020FEF780FF65
:203A60000A4BD3F8001C032261B949F27531C3F8001CC3F8142DC3F8001CBDE80840002033
:203A8000FEF770BFC3F8142DF7E700BF00E0064008B50020FEF764FF0A4BD3F8001C61B9B8
:203AA00049F27532C3F8002CC3F8141DC3F8002CBDE808400020FEF755BF0022C3F8142D36
:203AC000F6E700BF00E0064008B50146FFF75CFF0846FFF741FF827B032A0AD10846FFF702
:203AE00049FF01218140BDE808400448C943FFF781BD0368002BF1D008BD00BFC82C002033
:203B00008720FFF7E1BF8620FFF7DEBF8520FFF7DBBF8420FFF7D8BF8320FFF7D5BF8220FA
:203B2000FFF7D2BF8120FFF7CFBF000008B5FFF72BFF084B93F89E20032A06D1BDE808406F
:203B400005486FF00101FFF755BDD3F89030002BF4D008BDD02C0020C82C002073B50122F5
:203B600002FA01F51E491F4E0B6810F0800F43EA050304460B6027D000F00F021A4B33F80B
:203B8000123003F1804303F51C331A684AB100221A60BFF36F8FBFF34F8F802811D0FFF70D
:203BA00093FF316829400AD106238DF804308DF806408DF807100D4B01A81B68984702B038
:203BC00070BDFFF7B3FFECE733681D42F7D106238DF804308DF806008DF80720EBE700BFD1
:203BE000CC2C0020C82C0020889A0E00F02D002008B5054B1A781046FFF7BCFEBDE808409A
:203C000001461046FFF7AABFF42D0020FFF78EBF07B500238DF804300B4BD3F82025ADF881
:203C20000620D3F8C034094A002B13680CBF4FF480714FF001210B431360054B01A81B6809
:203C4000984703B05DF804FB00700240CC2C0020F02D002007B5FFF797FE0D4B93F88E209F
:203C6000032A11D0D3F8803073B90A486FF08071FFF7C0FC06238DF804300823ADF8063053
:203C8000054B01A81B68984703B05DF804FB00BFD02C0020C82C0020F02D002007B5FFF7E4
:203CA00073FE114B93F81E21032A07D10F486FF4807103B05DF804EBFFF79CBCD3F810316C
:203CC00073B90A486FF48071FFF794FC06238DF804308823ADF80630054B01A81B689847C9
:203CE00003B05DF804FB00BFD02C0020C82C0020F02D00202DE9F04F5D4E337885B0002B86
:203D00006DD15C4C5C4B19682368194067D011F0012367D093FAA3F1002966D0B1FA81F181
:203D20000F2964D9A1F110085FFA88F84046FFF713FE4FF0010B4FFA88FA0BFA01F1BAF146
:203D4000000F81466FEA010B54DA03688289416802A8984708B9C9F80000FFF7A1FD18B173
:203D6000464B8222C3F81C2C01232168039A3370D9F8083001EA0B011344BAF1000F21608C
:203D8000C9F8083008F0080002993C4B08F00F085EDA002854D0C3F8A016C3F8A426042358
:203DA00003EB880303F1804303F51C3301221A60BFF36F8FBFF34F8F314B324A2F4913EA42
:203DC0002A0338BF134633F8183003F1804303F51C331A681AB9D1F80021002AF9D005B00E
:203DE000BDE8F08F91FAA1F196E720219AE741F080089BE74046FFF73FFDB9F80C20D9F8A2
:203E00000410D9F800500346074602A8A847029A002A9FD0039A97429CD9022789F80E70F6
:203E200059461548FFF7E6FB06238DF80430164B8DF806801B688DF8077001A8984761E712
:203E4000142000FB0833C3F80016C3F80426A6E728B1C3F8A017C3F8A4272823A0E71420DE
:203E600000FB0833C3F80017C3F80427F5E700BFC52C0020CC2C0020C82C002000700240CA
:203E8000889A0E00A49A0E00F02D002037B50446FFF77AFD2046FFF75FFD837B032B0DD104
:203EA0002046FFF767FD01218140C9430F48FFF7A1FB03B0BDE83040FFF71CBF0568002D37
:203EC000F7D12046FFF756FD01218140C9430748FFF790FB06238DF80430054B8DF80640AF
:203EE0001B688DF8075001A89847E2E7C82C0020F02D00200720FFF7C9BF0620FFF7C6BF7B
:203F00000520FFF7C3BF0420FFF7C0BF0320FFF7BDBF0220FFF7BABF0120FFF7B7BF0000B8
:203F200038B5134BD3F86C44C3F86C44BFF36F8FBFF34F8F01251CB9BDE83840FFF7DABE6A
:203F400094FAA4F171B1B1FA81F30F2B19460BDDA1F11000C0B205FA01F324EA0304FFF76A
:203F6000FDFDE8E72021F3E743F08000F3E700BF0070024013B5254BD3F80044C3F8004419
:203F8000BFF36F8FBFF34F8FBFF36F8FBFF34F8FE1050ED51E4B01221A700023ADF80530C5
:203FA0008DF8073002238DF804301A4B01A81B689847A2050DD5164A00231370ADF805308E
:203FC0008DF8073003238DF80430124B01A81B689847630518D50E4A1378ABB100231370A4
:203FE0000A4A0121C2F808159165BFF36F8FBFF34F8FADF805308DF8073004238DF80430C8
:20400000044B01A81B68984702B010BD00700240C42C0020F02D0020024A00231360024A9A
:2040200013707047F02D0020C62C002008B5454B4FF40062C3F80024BFF36F8FBFF34F8FE6
:20404000FFF738FC08B1FFF707FDFFF729FC98B10020FEF785FC3C4BD3F8001CC022002910
:2040600067D149F27531C3F8001CC3F8142CC3F8001C0020FEF776FC324B0122C3F8002577
:20408000BFF36F8FBFF34F8FD3F800241205FBD54FF40062C3F80024BFF36F8FBFF34F8F46
:2040A000FFF7FEFB90B10020FEF75AFC264BD3F8001C002940D149F27532C3F8002CC3F84F
:2040C000141CC3F8002C0020FEF74CFCFFF7F2FB30B1FFF7DDFCFFF7EDFB08B1FFF7BCFC94
:2040E000FFF7DEFB174B50B140F2E372C3F800284022C3F80428BFF36F8FBFF34F8F00217A
:204100008022C3F81C25C3F83015104B40F2FF121A600F4B1960FFF737FC0E4B19700E4BB2
:2041200002221A70FFF7C6FB50B1BDE80840FFF7AFBCC3F8142C9CE70022C3F8142CC2E787
:2041400008BD00BF0070024000E00640CC2C0020C82C0020F42D0020C62C00200C4B00220B
:204160001A700C4A0C4B002818BF13460B4AC2F804330B4BC02183F8271380215960012300
:20418000C2F80435BFF36F8FBFF34F8F704700BFC42C00200714E0010714C00100700240DC
:2041A00000E100E0024B1878003818BF01207047C62C0020034B1878012894BF00200120CD
:2041C000704700BFC62C002010B50020FEF7C8FB134B1B7803F0FF04BBB1124AD2F82C35E0
:2041E000DBB10023C2F82C35FFF75AFB68B10E4BD3F8001CC02269B949F27531C3F8001C95
:20420000C3F8142CC3F8001C04460020FEF7AAFB204610BDC3F8142CF6E71C46F5E700BFC0
:20422000C42C00200070024000E00640024B034AC3F80823704700BF007002400414800155
:20424000024B034AC3F80423704700BF0070024004148001014B00221A707047C42C002062
:2042600008B5FFF779FB818108BD000073B51D4B1C78002C33D11C4A106001221A7025460E
:20428000264615F0080F65F07F00C0B20CBF40214FF400710190FFF7E3FF0198FFF75CFB21
:2042A0000135092D867306608660EAD1402100252046FFF7D5FF2046FFF74EFB0134E4B26C
:2042C000092C85730560856002D1002002B070BD14F0080F14BF4FF400714021E8E708209B
:2042E000F4E700BFC62C0020F02D002008B5FFF733FB808908BD0000064A10F0800F00F057
:204300000F0314BFD2F81005D2F81405D84000F001007047007002402DE9F84306460020C7
:204320000F46FEF71DFB16F00F0503D1294B1B78B3424BD1284BDFF8C4801C68D8F8003003
:20434000E443A4B230461C43FFF714FB4FF0010909FA00F914EA09043AD13046FFF7FCFA49
:204360000C225543320603462CD51C4A3968154401F06041BA68B1F1005F02F001021CD1FE
:20438000CAB9174A1A6097E8070085E80700D8F800005D6000229A609A73124B40EA09007F
:2043A0008022C8F80000C3F804210020FEF7DAFA2046BDE8F8830C4AE4E70AB90B4AE1E74B
:2043C0000B4ADFE70B4A15440B4ADBE71024ECE71124EAE7F42D0020CC2C0020483E0020F1
:2043E0000F390E0000E100E031390E00E1390E00193A0E00B43E0020DD380E00C82C00205C
:20440000F8B5064600200D46FEF7AAFA330703D1154B1B78B34223D1144B154F1C683B68C3
:20442000E443A4B230461C43FFF7A4FA012303FA00F10C4016D13046FFF78EFA84602B68E6
:2044400003606B684360847338680A4B084380223860C3F804210020FEF784FA2046F8BD84
:204460001024F8E71124F6E7F42D0020CC2C0020C82C002000E100E000487047F82D0020A5
:20448000044B40F48070C3F81805BFF36F8FBFF34F8F704700700240FFF7D4B9064BC3F899
:2044A0000C05BFF34F8F40F48070C3F80C05BFF36F8FBFF34F8F70470070024010B50822D3
:2044C0000021044604F0A0FA0E4BD3F880242270D3F884246270D3F88824D3F88C1442EA36
:2044E00001226280D3F89024D3F8941442EA0122A280D3F89824D3F89C3442EA0323E3807D
:2045000010BD00BF00700240034B0122DA64BFF36F8FBFF34F8F70470070024013B5FFF747
:2045200033FA114B9A7B032A07D110486FF4803102B0BDE81040FFF75DB81C687CB96FF49E
:2045400080310A48FFF756F806238DF80430084BADF806401B6801A8984702B010BD02B0B8
:20456000BDE81040FFF7D0BFD02C0020C82C0020F02D0020034B01221A65BFF36F8FBFF302
:204580004F8F704700700240034B01225A65BFF36F8FBFF34F8F704700700240014B18781F
:2045A000704700BFF42D002010B504460020FEF7D7F92046FFF7DEF90D4901220B6802FA35
:2045C00000F023EA000314F008020B600AD104F00F04084B04F5947443F82420BFF36F8FFD
:2045E000BFF34F8FBDE810400020FEF7BBB900BFCC2C002000700240F7B504460020FEF719
:20460000AFF92046FFF7A8F905462046FFF7B2F9012214F0800F02FA00F22E4819D1036834
:2046200032EA03030AD02046FFF7BEFF0323AB73002003B0BDE8F040FEF794B92B60036841
:2046400023EA02030360244B186820EA02001860ECE7230715D4802C204B2ED004F00F0173
:2046600001F2DA314900C3F80018D3F80418D3F80468C9B241F002013143C3F80418D3F83D
:204680000438154E0168336861EA03071742CFD0134321EA02013360002301602B600323FE
:2046A000AB738DF807300E4B8DF8064006221B688DF8042001A89847BAE740F2B471C3F86D
:2046C0000018D3F80418D3F80468C9B241F00401D2E700BFC82C0020CC2C0020007002409D
:2046E000F02D0020FFF788BF73B5184B184CD3F880542368174EDA43174B31781B6892B2D3
:2047000008461A43FFF736F9012303FA00F0104202D00846FFF770FF6FF0011105F08005F6
:204720000D483570FEF766FF236843F0010323600023ADF805308DF8073005238DF8043046
:20474000064B01A81B68984702B070BD00700240CC2C0020F42D0020C82C0020F02D0020C2
:204760002DE9F0411B4BD3F80413002301241D4671B9194F03F4000623F400044FF001080D
:20478000D4B9FFF7B7FA1EB3BDE8F041FFF7ACBF91FAA1F21148B2FA82F29600304404FA3E
:2047A00002F206682EB10560BFF36F8FBFF34F8F134321EA0201DBE794FAA4F5B5FA85F59D
:2047C00057F8253008FA05F5984724EA0504D7E7BDE8F08100700240B89A0E0000710240AA
:2047E000F8B5134E134B34681B68240C24041C4301271CB940F2FF133360F8BD94FAA4F5C7
:2048000085B1B5FA85F30F2B1D460DDDA5F11000C0B2030701D4FFF7EFFE07FA05F524EAD1
:204820000504E6E72025F1E743F08000F1E700BFCC2C0020C82C002038B50E4C8025C4F867
:20484000845163681B0613D5FFF7CAFF0A4B0022C3F80425BFF36F8FBFF34F8FC4F88450C5
:20486000BFF34F8FBFF36F8F4FF0FF32C3F8082338BD00BF00E100E00070024008B5FFF7C8
:20488000DBFF094BD3F80423C3F808230022C3F80025BFF36F8FBFF34F8FFFF775F8034B1F
:2048A00001221A7008BD00BF00700240C62C002010B50020FEF754F80E4B1B7803F0FF04FB
:2048C0002BB900240020FEF74DF8204610BDFFF787FF094AD2F8003413F40073F1D1012118
:2048E000C2F82C15D2F80014890544BFC2F82C351C46E7E7C42C00200070024010B5044632
:20490000FFF77AFE134A04F00F0064B2002C4FF00103B4BFD2F81015D2F8141503FA00F3FF
:204920006FEA0303B5BF0B400B40C2F81035C2F81435BFF36F8FBFF34F8F074A074B13EA2C
:20494000240338BF13461A5C01239340014AC2F8083310BD007002409A9A0E007F9A0E004B
:2049600038B5254A254B45B2002DA8BF134600F00F010446585C224A4FF0010303FA00F0ED
:20498000C2F804032ADAD2F81005C840C00731D4D2F810058B400343C2F81035BFF36F8F00
:2049A000BFF34F8F31B3002D24DB14F0080521D12846FDF7D5FF2046FFF7F6FD2046FEF774
:2049C000D9FF104901220B6802FA00F023EA00030B602846BDE83840FDF7C4BFD2F81405C4
:2049E000C840C00706D4D2F814058B400343C2F81435D3E738BD00BF9A9A0E007F9A0E0040
:204A000000700240C82C0020030610B5044605D4FEF718FF10B12046FFF7C6FD034BC3F8EA
:204A20001845BFF36F8FBFF34F8F10BD0070024028B139B10023C1E900301846704748F24B
:204A40001050704748F21350704730B1036848F240508B4208BF0020704748F21050704719
:204A600028B148F21150914208BF0020704748F21050704770B506460C461D46FFF7D8FF0D
:204A800050B9B3794AB1AB420AD111462046FBF787FE08B9044B236070BD48F21050FBE7AE
:204AA00048F21150F8E700BF7052464D2DE9F04383B00D4602AF04461149D7F82080284667
:204AC00016469946FFF7C1FF98B96B68796A5A7940465200FFF7C4FF58B976B10CB9AAB023
:204AE00002ACCDF800804B46324629462046FBF767FE0437BD46BDE8F08348F21050F8E7BF
:204B00007052464D10B5044638B149B141600B68984708B9044B236010BD48F20150FBE78E
:204B200048F21050F8E700BF6E524648F0B4134648B10768094EB7420AD161B12AB14368C7
:204B4000F0BC5B68184748F201531846F0BC704748F20253F9E748F21053F6E76E52464801
:204B6000F0B460B107680C4EB7420CD171B143681568DC68A5420CD3F0BC9B68184748F245
:204B80000150F0BC704748F20250FAE748F21350F7E748F21450F4E76E524648F7B50446BC
:204BA000DDE9086715460193FFF7ACFF68B9019A29462046FFF7BAFF38B93A4631462046A2
:204BC00003B0BDE8F040FFF7CBBF03B0F0BD0000F8B50A4F0A4C0B4EE41B0123E408337006
:204BE0000025A54203D1022333700020F8BD57F8353098470028F9D10135F2E7A49E0E0054
:204C0000AC9E0E00382E002001390144814200D2704703780A7800F8012B01F80139F5E7BB
:204C2000013A02440139824200D2704711F8013F02F80139F7E770B516460D46FFF7F0FF58
:204C40003246A9193044BDE87040FFF7E9BF38B50D460446FFF7D8FF29466019BDE8384057
:204C6000FFF7D2BFBFF34F8F0549064BCA6802F4E0621343CB60BFF34F8F00BFFDE700BFA1
:204C800000ED00E00400FA0530B52E4D297887B0044641B92C4A2D48FCF722F808B1FFF721
:204CA000E1FF01232B70072C14D8DFE804F01535401313041304FEF731F80028EFD124483E
:204CC000FCF749F80028EAD14FF48060FEF720F80028E4D107B030BD0120FBF733FC4FF08B
:204CE0008043D3F81824D1035CBF01229A60FBF7C5FF0028D3D1174D0FCD01AC0FC4164B3B
:204D0000059342F26663CDE9023301A8FF238DF80530FDF7B1FFD5E741F23330FEF704F8A7
:204D200041F2333007B0BDE83040FEF703B8FDF7F5FF0028B3D1064A40F266611046FBF73C
:204D4000E1FFC5E7392E00205D4D0E00709B0E00400000205C9B0E000003005008B50246B2
:204D600040F26661FBF7CEFF08B1FFF77BFFBDE808400120FBF7CCBB08B5FFF773FF0000A6
:204D800008B500F06FFB4FF48051002000F046F908B1FFF767FF0548C0F57E2100F03EF9BC
:204DA0000028F6D1024800F053F8F2E700000E00894C0E00014B01221A7070475C32002057
:204DC000BFF34F8F0549064BCA6802F4E0621343CB60BFF34F8F00BFFDE700BF00ED00E0FA
:204DE0000400FA05024B034800221A7001F0E2BB5C320020C14D0E00042810B5044609D8F8
:204E0000022811D815D00D4B1B68ABB12046BDE810401847831F012BF5D8094B0948002247
:204E20001A7001F0C7FBEEE70749002000F0F8F9E9E701F009FBE6E710BD00BF603200203F
:204E40005C320020C14D0E00E54D0E00002070475A4B5B4A70B518605A4B0020C3F83427AF
:204E600001F0BEFB0446002840F0A38000F0A4FA012800F09980022800F09D80002840F074
:204E800098804FF08043D3F80024D5031AD54FF48032C3F8002426464B4D2B6A012B2DD1AB
:204EA0004FF440535A68494B9A421AD001F01CFCAA690146002E57D0454801F0D5FE0028CF
:204EC00056D11BE0D3F8202502F0F902A92A06D1D3F8202502F05602C3F82025DBE70126C6
:204EE000DAE76A6B1EB995F86032012BDED039484FF4805101F0B8FE0028D7D100F0F6FA60
:204F0000354A20211820FBF775FD08B1FFF734FF4FF08043D3F80024D20742BFD3F8002499
:204F200042F00102C3F80024D3F81C2502F0F902B12A02BFD3F81C2502F04E02C3F81C257E
:204F4000FFF784FF002834D12046244900F068F9234800F0C7FF60BB00F0EEFAFBF7D0FDB4
:204F600020BF40BF20BFF7E795F8A132012BA3D1144BD3F810359804C0D54FF08043D3F829
:204F80000024D107BAD4D3F81C3503F0F903B12BB4D001F032FB60B9124B1870124801F0B5
:204FA00009FB00F025F804E00E4B10481C7001F001FB032070BD4FF4A0249FE76032002043
:204FC0000C00030000030050203F0020DBE5B151C1410020804100203C2E0020E54D0E0061
:204FE000F94D0E005C320020B54D0E00C14D0E0008B5074B4FF0FF32C3F88020C3F880214D
:2050000000F0CBFFBDE808404FF4805000F028B800E100E080F308880847000070B5054683
:20502000C1F30B00A8B9B5F57F2F12D80B4E3268072A10D8130103F1804404F5F0340132E6
:20504000C4F80058C4F804180221C4F80818326070BD0720FCE70420FAE700BF6432002022
:2050600010B504461448C0F58011FFF7D7FF08B1FFF782FE01F038FB104B9B6903F6FF7396
:2050800023F47F6323F00F0319180020FFF7C6FF08B1FFF771FEEFF305830023D4E900017D
:2050A00083F3148883F3108883F3118883F31388BDE81040FFF7AEBF00000E00203F0020CB
:2050C0001FB518490B7853BB4FF08043A024D3F81824D2035CBF01229A60134B0022C3F8F5
:2050E0000021D3F8000103900398C3F84021D3F8400102900298C3F84421D3F84401019080
:2051000001980A4880F82443102444600220C3F8082501229A601A60C3F804030A7004B05C
:2051200010BD00BF6C3200200040024000E100E037B56FF07F42154C057BD4F804358A4224
:2051400028BF0A46891A13444A1E942A23F07F4305F5A8729BBF963B96314160416044F89F
:2051600022300B4B4FF4F86043F001039847094BAA00134400221A601B680193019B4FF4EF
:205180008033AB40C4F8043303B030BD00400240809B0E00404102402DE9F3411B4BD3F8F5
:2051A000042152B11A490A6801320A600022C3F80421D3F804310093009B164C164DDFF889
:2051C0004C80164E00272B6873B12F602B68227B0193019B4FF480339340C8F80833616845
:2051E00051B12046FFF7A4FF0435B54204F11004E9D102B0BDE8F081A16811B12046FFF7CC
:2052000097FF2368002BEFD09847EDE7004002406832002060000020404102404841024086
:2052200070B50B4B1D682A7B4FF480339340094A0E46C2F80833044640B1FFF741FF2E6065
:2052400021462846BDE87040FFF772BF70BD00BF800000200040024070B5074B1D680E469F
:20526000A8600446FFF72CFF2E6021462846BDE87040FFF75DBF00BF84000020014B01221F
:205280001A7070476D3200202DE9F74F06468846A8EB06052D0B02F6FF77144600F026F9EB
:2052A000082D28BF08252B03DFF868B001933F0B0CB9234629E0BD422CBFBA46AA464FF05A
:2052C00000025146304634BFDDF80490A14600F03BFE0346C8B909F1030222F003024146EC
:2052E000304600F023FE034678B9DBF830304B44CBF8303001F064F9A7EB0A07A4EB09043B
:205300004E44C84403460028D2D0184603B0BDE8F08F00BF203F002010B501F00BFA124A52
:20532000916C01F500535C68104B9C4218D1D2E90C32934216D0884204D1BDE810400020D9
:2053400001F03EB9D21A02F6FF7222F47F6222F00F0219441844FFF797FF0028EDD010BDFF
:205360000320FCE70020FAE7203F0020DBE5B15138B50F4BDA6A5D6A9C6CAC2A10D15B6B0E
:205380001C44ED1A0B482A46214603F0F5F968B100F0D2F829462046BDE8384000F0ECBD3D
:2053A000002CEFD101F0B4F90446EBE738BD00BF203F002000000E0070B5264CE36AAA2B4D
:2053C00037D005D8012B0BD0A52B2ED0002070BDAC2BFBD1FFF7A0FF48BBFFF7C9FF26E0C8
:2053E000A66C656A01F080F9864229D101F07CF900222946FDF7B8FAA36A984202BF012337
:20540000C4E90703A5610025134801F03DF9134B134800221A7001F0D3F868B975B1236A33
:20542000012B14BF01200220D1E7FFF775FF0125EAE7FFF79DFFE6E70320C8E70120C6E712
:20544000236BEA1AF1181844FFF71EFF0028DAD1CCE700BF203F0020443F00206D3200201C
:205460007D520E0010B50024D4F8F83F013304D1084940F6F870FEF787F8D4F8FC3F0133BC
:2054800007D1BDE810404FF47E2140F6FC70FEF77BB810BD00000E000A4AD2F800347BB13A
:2054A00009480023D2F80815D940C90748BF03F5C07103F1010348BF42F82100072BF1D12A
:2054C000704700BF000001403546526EFFF7E4BF054B002282B0C3F80021D3F80031019331
:2054E000019B02B0704700BF0000014038B50E4D2B78BBB90D4BD3F800248AB1D3F80445B2
:20550000FFF7CAFF40F61650A042B8BF20460849A0F54860FFF7A0FE064B4FF480321A608F
:2055200001232B7038BD00BF6E32002000000140CD540E0000E100E0034BD3F800340BB1FE
:20554000FFF7AABF704700BF000001400023C0E90232C0E900118B881A440261B1F90630C7
:205560001A4442610888003818BF0120704710B5426811880346002939D002F1100141608B
:20558000148A2CB9C2680168FFF7E0FF204610BD9078118900F03004302C1BD1947C04F0DB
:2055A0003004302C1DD190881969091A19610021907810F0300F02BF986801309860908ACA
:2055C0000844196901441961B2F91620114459610120DCE700F0F004202C02D1508941430A
:2055E000E6E700F0C000802808BF0421E0E70846CDE770B5466804460D4663681A88AA4208
:2056000004D19B7803F00F03082B07D12046FFF7AEFF6368B342F0D1002070BD0120FCE7B7
:2056200043681A44426011B101399A4201D10120704713F8010B01F8010FF6E770B5426871
:20564000927802F00F01082986B003461FD103691C6800260CB906B070BD236826739D68B7
:20566000626829466846FFF771FF6368049304F10C030593AB7803F0C003802B08BF231D54
:20568000684608BF0493FFF7D9FFA468E2E712F0C00126D102F03000102810D15A69117022
:2056A0005A6818699378D46803F00F03072B0BD10146204606B0BDE8704000F01AB890063D
:2056C000EED55B691980C6E71289214624B106B0BDE8704003F082B806B0BDE8704003F0F0
:2056E00093B98029B7D10069002192060160B2D5E7E77FB50A4601466846FFF727FF30B1DF
:205700006846FFF79BFF6846FFF731FFF7E707B05DF804FB10B5836804460BB9002010BDE3
:205720000368012298470028F8D0A368013BA360F5E72DE9F3410F460DF107018046FFF785
:20574000E9FF054620B90025284602B0BDE8F0819DF907309DF80740002B13DA04F07F04AA
:2057600007260DF107014046FFF7D4FF0028EAD09DF8072002F07F03B3401C43130606F133
:20578000070601D43C60DFE7232EEAD1DBE7000030B5044685B01546A9B90268114B9A4234
:2057A00011D0102D06D82A4669462046FFF7F0FF05B030BD102269462046FFF7E9FF002894
:2057C000F6D0103DEDE7A368AB4201D20020EFE723682A46204698470028F7D0A268521B7B
:2057E000A260E5E721560E00F7B50E4601A907461546FFF79EFFA0B1019A511C4FF00004D5
:2058000004D2B37803F0C003802B01D1204608E033898B42FAD329463846FFF7B9FF019B79
:20582000EC5403B0F0BD73B50D4601A906461446FFF77FFF98B1019AB2F5803F11D2AB7839
:2058400003F0C003802B02F102010AD02B898B4207D32146304621F8022BFFF799FF02B059
:2058600070BD0020FBE7000010B5034C82600022C0E90041C26010BD21560E002DE9F34139
:20588000002580460E462F462C460DF107014046FFF740FFC0B19DF807C0A4F120030CF0A0
:2058A0007F02C4F1200102FA03F322FA01F10B43A2401CF0800F45EA020547EA030704F160
:2058C000070404D1C6E9005702B0BDE8F081462CDBD10020F8E737B50D4669461446FFF7BF
:2058E000CDFF70B12B89082B0DD1DDE90032C4E90032DDE90001914208BF98420CBF0120F8
:20590000002003B030BD042B03D1009B23600022EFE7022B03D1009B23809BB2F7E7012B18
:2059200004D1009B237003F0FF03F0E70020E8E737B50D4669461446FFF7A0FF30B12B8937
:20594000082BDDE9001203D1C4E9001203B030BD042B4FEAE17009D121600B460246824298
:2059600008BF8B420CBF01200020EFE7022B03D10BB22380DA17F2E7012B02D14BB22370F7
:20598000F8E70020E2E7F7B51F4600233B700D460B70136001A904461646FFF7CAFE30B928
:2059A000A36813B901233B70002003B0F0BD019C002CF7D0E30804F0070433602C70F4E73D
:2059C00013B50446052925D8DFE801F0030F17242422012201A92046FFF7DAFE18B19DF9DF
:2059E0000430002BF5DB02B010BD08220021204602B0BDE81040FFF7CBBE01A9FFF799FEEB
:205A00000028F0D0019A00212046FFF7C1FEEAE70422EBE70020E6E773B50D4601A90446A2
:205A2000FFF787FE064618B90026304602B070BD94E80F0085E80F0001998A42F4D3A96016
:205A4000A3685B1AA360F0E72DE9F0435768BB7813F0C00489B006468C46154603D0402CF9
:205A60006CD000240CE003F00F02614903F03003202B51F8228028D006D8CBB1102B1ED055
:205A8000204609B0BDE8F083302BF9D16B6939881980072A0AD16B6828691A89214602F010
:205AA000B3FF6B682969D868FFF723FE2A6942E02A693946434609B0BDE8F04318476B6964
:205AC00001221A702A696968F4E7BCF1020FD5F8149024D1042A22D804A9FFF79DFF044605
:205AE0000028BED0069B2BB16968B9F800304A899A4205D8059B7360069B002BC0D0B0E7CF
:205B000008892A6903FB002204A8C04728B1B9F800300133A9F80030E4E70446EAE7B9F838
:205B200000307A899A429CD92A693989581CA9F8000003FB012269683046BBE7D2F8108013
:205B4000474657F8043B23B909B0BDE8F043FFF737BF022914D104A9FFF75EFF002880D049
:205B6000D8F8003069683A4604A89847044600283FF477AF069B002BF2D1059B73607FE716
:205B8000012926D005292CD000297FF46AAF0C460DF1040901340B2C3FF463AF0122494646
:205BA0003046FFF7F5FD00283FF45BAF19F9013B002BEFDB0F4B049301ABCDE90534002330
:205BC0000793D8F8003069683A4604A89847044656E7082201A9FFF7DBFD08240028E9D118
:205BE0003FE704220DEB0201FFF7D2FD0424F5E7889B0E0021560E002DE9F04F91B00446FF
:205C0000002604A8CDE90266FFF7A0FCA3683BBBDDE9053404A89D78FFF7A9FC0028F7D1B6
:205C200015F0300F03D1059B1B8803B10134002C00F0A980630902A90022934240F09C8081
:205C400010AA02EB830304F01F0453F8383CC4F120044FF0FF30E040C31A584258410DE0DD
:205C60000DF1030301AA0DF102012046FFF78BFE38B99DF80330002BCAD1002011B0BDE88A
:205C8000F08F019904A8FFF7B4FC002850D1019BB3427DD3059D059A937803F00F03082BEB
:205CA0007FD004A8FFF763FC059B9D42F3D14FF0FF36019FB7426BD3089B9DF802A0D4F860
:205CC00008801D684FF00109A368002D5DD098459CD12B68D3F800B0BBF1000F08D0534685
:205CE0003A4629462046D8470028C6D0AD68EBE7D3F808B0BBF800309F42F7D16A6859460B
:205D00000AA8FFF723FC6B680E9305F10C030F939BF8023003F0C003802B04BF2B1D0E93CF
:205D20000AAA85F80C9051462046FFF78DFEDBE7059B9B7813F0300F0FD1069A3F2A0CD894
:205D4000510910AB03EB810102F01F020123934051F8382C134341F8383CE5682DB19DF844
:205D60000220019904AB2046A8479DF8021004AA2046FFF769FE10E051F8045B01357FF40A
:205D80007DAF013259E7012078E798457FF43EAF9DF802102046FFF713FE00287FF436AF13
:205DA0006BE7168885E737B50C460546114620460192FFF79EFC019A2146284603B0BDE856
:205DC0003040FFF719BF70B586B0CE6801920C4602A90546FFF720FE68B1E06858B1A37880
:205DE000019A03F03003202B314602A805D1FFF7DAFF039B6B6006B070BDFFF7FDFEF8E7B5
:205E000013B50C466946FFF739FD60B1DDE900134A0842EAC372C9074FEA530344BFD24379
